{
  "contractName": "ClimateDAO",
  "abi": [
    {
      "inputs": [
        {
          "components": [
            {
              "internalType": "uint8",
              "name": "id",
              "type": "uint8"
            },
            {
              "internalType": "address",
              "name": "wallet",
              "type": "address"
            }
          ],
          "internalType": "struct ClimateDAO.Project[]",
          "name": "_projects",
          "type": "tuple[]"
        },
        {
          "internalType": "uint256[]",
          "name": "_verifyingKey",
          "type": "uint256[]"
        },
        {
          "internalType": "uint256",
          "name": "_startTime",
          "type": "uint256"
        },
        {
          "internalType": "address",
          "name": "USDCAddress",
          "type": "address"
        },
        {
          "internalType": "uint256",
          "name": "_matchingPool",
          "type": "uint256"
        },
        {
          "internalType": "uint256",
          "name": "_baseline",
          "type": "uint256"
        }
      ],
      "stateMutability": "nonpayable",
      "type": "constructor"
    },
    {
      "anonymous": false,
      "inputs": [
        {
          "indexed": true,
          "internalType": "address",
          "name": "_from",
          "type": "address"
        },
        {
          "indexed": false,
          "internalType": "uint256",
          "name": "value",
          "type": "uint256"
        }
      ],
      "name": "Contribute",
      "type": "event"
    },
    {
      "anonymous": false,
      "inputs": [
        {
          "indexed": false,
          "internalType": "address",
          "name": "wallet",
          "type": "address"
        },
        {
          "indexed": false,
          "internalType": "uint256",
          "name": "id",
          "type": "uint256"
        },
        {
          "indexed": false,
          "internalType": "uint256",
          "name": "funded",
          "type": "uint256"
        },
        {
          "indexed": false,
          "internalType": "uint256",
          "name": "matched",
          "type": "uint256"
        },
        {
          "indexed": false,
          "internalType": "uint256",
          "name": "total",
          "type": "uint256"
        }
      ],
      "name": "Distribute",
      "type": "event"
    },
    {
      "anonymous": false,
      "inputs": [
        {
          "indexed": true,
          "internalType": "address",
          "name": "_contributer",
          "type": "address"
        },
        {
          "indexed": false,
          "internalType": "uint256",
          "name": "amount",
          "type": "uint256"
        }
      ],
      "name": "Withdraw",
      "type": "event"
    },
    {
      "inputs": [],
      "name": "baseline",
      "outputs": [
        {
          "internalType": "uint256",
          "name": "",
          "type": "uint256"
        }
      ],
      "stateMutability": "view",
      "type": "function"
    },
    {
      "inputs": [],
      "name": "cancelled",
      "outputs": [
        {
          "internalType": "bool",
          "name": "",
          "type": "bool"
        }
      ],
      "stateMutability": "view",
      "type": "function"
    },
    {
      "inputs": [
        {
          "internalType": "address",
          "name": "",
          "type": "address"
        }
      ],
      "name": "contributors",
      "outputs": [
        {
          "internalType": "uint256",
          "name": "",
          "type": "uint256"
        }
      ],
      "stateMutability": "view",
      "type": "function"
    },
    {
      "inputs": [],
      "name": "distributed",
      "outputs": [
        {
          "internalType": "bool",
          "name": "",
          "type": "bool"
        }
      ],
      "stateMutability": "view",
      "type": "function"
    },
    {
      "inputs": [],
      "name": "endTime",
      "outputs": [
        {
          "internalType": "uint256",
          "name": "",
          "type": "uint256"
        }
      ],
      "stateMutability": "view",
      "type": "function"
    },
    {
      "inputs": [],
      "name": "fundingPool",
      "outputs": [
        {
          "internalType": "uint256",
          "name": "",
          "type": "uint256"
        }
      ],
      "stateMutability": "view",
      "type": "function"
    },
    {
      "inputs": [],
      "name": "matchingPool",
      "outputs": [
        {
          "internalType": "uint256",
          "name": "",
          "type": "uint256"
        }
      ],
      "stateMutability": "view",
      "type": "function"
    },
    {
      "inputs": [],
      "name": "owner",
      "outputs": [
        {
          "internalType": "address",
          "name": "",
          "type": "address"
        }
      ],
      "stateMutability": "view",
      "type": "function"
    },
    {
      "inputs": [
        {
          "internalType": "uint8",
          "name": "",
          "type": "uint8"
        }
      ],
      "name": "projects",
      "outputs": [
        {
          "internalType": "address",
          "name": "",
          "type": "address"
        }
      ],
      "stateMutability": "view",
      "type": "function"
    },
    {
      "inputs": [],
      "name": "startTime",
      "outputs": [
        {
          "internalType": "uint256",
          "name": "",
          "type": "uint256"
        }
      ],
      "stateMutability": "view",
      "type": "function"
    },
    {
      "inputs": [
        {
          "internalType": "address",
          "name": "newOwner",
          "type": "address"
        }
      ],
      "name": "transferOwnerShip",
      "outputs": [],
      "stateMutability": "nonpayable",
      "type": "function"
    },
    {
      "inputs": [],
      "name": "usdcToken",
      "outputs": [
        {
          "internalType": "contract IUSDC",
          "name": "",
          "type": "address"
        }
      ],
      "stateMutability": "view",
      "type": "function"
    },
    {
      "inputs": [
        {
          "internalType": "uint256",
          "name": "",
          "type": "uint256"
        }
      ],
      "name": "verifyingKey",
      "outputs": [
        {
          "internalType": "uint256",
          "name": "",
          "type": "uint256"
        }
      ],
      "stateMutability": "view",
      "type": "function"
    },
    {
      "inputs": [
        {
          "internalType": "uint8",
          "name": "id",
          "type": "uint8"
        },
        {
          "internalType": "address",
          "name": "newAddress",
          "type": "address"
        }
      ],
      "name": "updateProject",
      "outputs": [],
      "stateMutability": "nonpayable",
      "type": "function"
    },
    {
      "inputs": [
        {
          "internalType": "address",
          "name": "newAddress",
          "type": "address"
        }
      ],
      "name": "updateUSDC",
      "outputs": [],
      "stateMutability": "nonpayable",
      "type": "function"
    },
    {
      "inputs": [
        {
          "internalType": "uint256",
          "name": "newEndTime",
          "type": "uint256"
        }
      ],
      "name": "updateEndDate",
      "outputs": [],
      "stateMutability": "nonpayable",
      "type": "function"
    },
    {
      "inputs": [
        {
          "internalType": "uint256",
          "name": "newStartTime",
          "type": "uint256"
        }
      ],
      "name": "updateStartDate",
      "outputs": [],
      "stateMutability": "nonpayable",
      "type": "function"
    },
    {
      "inputs": [
        {
          "internalType": "uint256[]",
          "name": "_verifyingKey",
          "type": "uint256[]"
        }
      ],
      "name": "registerVerificationKey",
      "outputs": [],
      "stateMutability": "nonpayable",
      "type": "function"
    },
    {
      "inputs": [
        {
          "internalType": "address",
          "name": "user",
          "type": "address"
        }
      ],
      "name": "getContributionOf",
      "outputs": [
        {
          "internalType": "uint256",
          "name": "",
          "type": "uint256"
        }
      ],
      "stateMutability": "view",
      "type": "function"
    },
    {
      "inputs": [],
      "name": "getTotalContributions",
      "outputs": [
        {
          "internalType": "uint256",
          "name": "",
          "type": "uint256"
        }
      ],
      "stateMutability": "view",
      "type": "function"
    },
    {
      "inputs": [
        {
          "internalType": "address",
          "name": "ad",
          "type": "address"
        }
      ],
      "name": "getUSDCBalance",
      "outputs": [
        {
          "internalType": "uint256",
          "name": "",
          "type": "uint256"
        }
      ],
      "stateMutability": "view",
      "type": "function"
    },
    {
      "inputs": [
        {
          "internalType": "uint256[]",
          "name": "proof",
          "type": "uint256[]"
        },
        {
          "components": [
            {
              "internalType": "uint8",
              "name": "id",
              "type": "uint8"
            },
            {
              "internalType": "uint64",
              "name": "tally",
              "type": "uint64"
            },
            {
              "internalType": "uint64",
              "name": "funding",
              "type": "uint64"
            }
          ],
          "internalType": "struct ClimateDAO.ProjectDistribution[]",
          "name": "projectsToFund",
          "type": "tuple[]"
        },
        {
          "internalType": "bytes32[10]",
          "name": "voteTallyEnc",
          "type": "bytes32[10]"
        },
        {
          "internalType": "bytes32[10]",
          "name": "fundingTallyEnc",
          "type": "bytes32[10]"
        },
        {
          "internalType": "bytes32",
          "name": "encPublicKey",
          "type": "bytes32"
        }
      ],
      "name": "verifyThenDistribute",
      "outputs": [],
      "stateMutability": "nonpayable",
      "type": "function"
    },
    {
      "inputs": [
        {
          "internalType": "address",
          "name": "from",
          "type": "address"
        },
        {
          "internalType": "address",
          "name": "to",
          "type": "address"
        },
        {
          "internalType": "uint256",
          "name": "value",
          "type": "uint256"
        },
        {
          "internalType": "uint256",
          "name": "validAfter",
          "type": "uint256"
        },
        {
          "internalType": "uint256",
          "name": "validBefore",
          "type": "uint256"
        },
        {
          "internalType": "bytes32",
          "name": "nonce",
          "type": "bytes32"
        },
        {
          "components": [
            {
              "internalType": "uint8",
              "name": "v",
              "type": "uint8"
            },
            {
              "internalType": "bytes32",
              "name": "r",
              "type": "bytes32"
            },
            {
              "internalType": "bytes32",
              "name": "s",
              "type": "bytes32"
            }
          ],
          "internalType": "struct ClimateDAO.Signature",
          "name": "RWASig",
          "type": "tuple"
        },
        {
          "components": [
            {
              "internalType": "uint8",
              "name": "v",
              "type": "uint8"
            },
            {
              "internalType": "bytes32",
              "name": "r",
              "type": "bytes32"
            },
            {
              "internalType": "bytes32",
              "name": "s",
              "type": "bytes32"
            }
          ],
          "internalType": "struct ClimateDAO.Signature",
          "name": "ownerSig",
          "type": "tuple"
        }
      ],
      "name": "contributeSigned",
      "outputs": [],
      "stateMutability": "nonpayable",
      "type": "function"
    },
    {
      "inputs": [],
      "name": "withdrawContribution",
      "outputs": [],
      "stateMutability": "nonpayable",
      "type": "function"
    },
    {
      "inputs": [],
      "name": "cancel",
      "outputs": [],
      "stateMutability": "nonpayable",
      "type": "function"
    },
    {
      "inputs": [],
      "name": "cancelAndTransfer",
      "outputs": [],
      "stateMutability": "nonpayable",
      "type": "function"
    }
  ],
  "bytecode": "0x60806040523480156200001157600080fd5b50604051620044ef380380620044ef8339810160408190526200003491620002c7565b6200004833640100000000620001aa810204565b62000056846107086200048f565b6001556200006884620151806200048f565b60025560005b600581101562000164578681815181106200008d576200008d620004f7565b60200260200101516020015160086000898481518110620000b257620000b2620004f7565b60200260200101516000015160ff1660ff16815260200190815260200160002060006101000a815481600160a060020a030219169083600160a060020a0316021790555060068782815181106200010d576200010d620004f7565b602090810291909101810151518254600181018455600093845292829020918304909101805460ff928316601f9094166101000a9384029290930219909216179055806200015b81620004aa565b9150506200006e565b50600a8054600160a060020a031916600160a060020a038516179055845162000195906007906020880190620001cc565b50600491909155600555506200055592505050565b60008054600160a060020a031916600160a060020a0392909216919091179055565b8280548282559060005260206000209081019282156200020a579160200282015b828111156200020a578251825591602001919060010190620001ed565b50620002189291506200021c565b5090565b5b808211156200021857600081556001016200021d565b8051600160a060020a03811681146200024b57600080fd5b919050565b600082601f8301126200026257600080fd5b815160206200027b620002758362000469565b62000436565b82815281810190858301838502870184018810156200029957600080fd5b60005b85811015620002ba578151845292840192908401906001016200029c565b5090979650505050505050565b60008060008060008060c08789031215620002e157600080fd5b86516001604060020a0380821115620002f957600080fd5b818901915089601f8301126200030e57600080fd5b81516200031f620002758262000469565b80828252602082019150602085018d60206040860288010111156200034357600080fd5b600095505b83861015620003af576040818f0312156200036257600080fd5b6200036c6200040b565b815160ff811681146200037e57600080fd5b81526200038e6020830162000233565b60208201528084525060208301925060408101905060018601955062000348565b5060208c0151909a509350505080821115620003ca57600080fd5b50620003d989828a0162000250565b95505060408701519350620003f16060880162000233565b92506080870151915060a087015190509295509295509295565b604080519081016001604060020a038111828210171562000430576200043062000526565b60405290565b604051601f8201601f191681016001604060020a038111828210171562000461576200046162000526565b604052919050565b60006001604060020a0382111562000485576200048562000526565b5060209081020190565b60008219821115620004a557620004a5620004c8565b500190565b6000600019821415620004c157620004c1620004c8565b5060010190565b7f4e487b7100000000000000000000000000000000000000000000000000000000600052601160045260246000fd5b7f4e487b7100000000000000000000000000000000000000000000000000000000600052603260045260246000fd5b7f4e487b7100000000000000000000000000000000000000000000000000000000600052604160045260246000fd5b613f8a80620005656000396000f3fe608060405234801561001057600080fd5b50600436106101cb576000357c0100000000000000000000000000000000000000000000000000000000900480638da5cb5b1161010b578063ddf556d0116100b4578063ef2bbbdf1161008e578063ef2bbbdf146103a4578063f6a1fe94146103b7578063f84b903e146103c0578063fa866ffa146103e657600080fd5b8063ddf556d01461036b578063e14ed04514610373578063ea8a1af01461039c57600080fd5b8063aacef18b116100e5578063aacef18b14610346578063ab2637af1461034f578063d4abb1181461035857600080fd5b80638da5cb5b146102ed578063910c6855146102fe5780639a82a09a1461031157600080fd5b80633dbd8f1711610178578063680247171161015257806368024717146102ab57806378e97925146102be5780638863dd1a146102c75780638b4e8ade146102da57600080fd5b80633dbd8f1714610267578063489c00541461026f5780635fa0898d1461028257600080fd5b80631f6d4942116101a95780631f6d49421461021d578063201590011461024b5780633197cbb61461025e57600080fd5b80630d616d20146101d057806311eac855146101da57806318d947931461020a575b600080fd5b6101d86103f9565b005b600a546101ed90600160a060020a031681565b604051600160a060020a0390911681526020015b60405180910390f35b6101d8610218366004613b81565b610627565b61023d61022b366004613934565b60096020526000908152604090205481565b604051908152602001610201565b61023d610259366004613b81565b61071d565b61023d60025481565b6101d861073e565b6101d861027d36600461394f565b610af3565b6101ed610290366004613bc4565b600860205260009081526040902054600160a060020a031681565b61023d6102b9366004613934565b610e6c565b61023d60015481565b6101d86102d5366004613934565b610f09565b6101d86102e8366004613a9a565b610fd8565b600054600160a060020a03166101ed565b6101d861030c366004613934565b611036565b6000546103369074010000000000000000000000000000000000000000900460ff1681565b6040519015158152602001610201565b61023d60045481565b61023d60055481565b6101d86103663660046139cd565b6110b0565b60035461023d565b61023d610381366004613934565b600160a060020a031660009081526009602052604090205490565b6101d861130a565b6101d86103b2366004613b81565b611565565b61023d60035481565b600054610336907501000000000000000000000000000000000000000000900460ff1681565b6101d86103f4366004613bdf565b611608565b6000547501000000000000000000000000000000000000000000900460ff161561046d5760405160e560020a62461bcd02815260206004820152601d60248201527f646973747269627574696f6e20616c72656164792068617070656e656400000060448201526064015b60405180910390fd5b60005474010000000000000000000000000000000000000000900460ff166104da5760405160e560020a62461bcd02815260206004820152600d60248201527f4e6f742063616e63656c6c6564000000000000000000000000000000000000006044820152606401610464565b336000908152600960205260409020548061053a5760405160e560020a62461bcd02815260206004820152600a60248201527f6e6f2062616c616e6365000000000000000000000000000000000000000000006044820152606401610464565b3360008181526009602052604080822091909155517f884edad9ce6fa2440d8a54cc123490eb96d2768479d49ff9c7366125a94243649061057e9084815260200190565b60405180910390a2600a546040517fa9059cbb00000000000000000000000000000000000000000000000000000000815233600482015260248101839052600160a060020a039091169063a9059cbb90604401602060405180830381600087803b1580156105eb57600080fd5b505af11580156105ff573d6000803e3d6000fd5b505050506040513d601f19601f820116820180604052508101906106239190613b46565b5050565b600054600160a060020a031633146106725760405160e560020a62461bcd0281526020600482015260136024820152600080516020613f358339815191526044820152606401610464565b42600154116106c65760405160e560020a62461bcd02815260206004820152601760248201527f766f74696e6720616c72656164792073746172746564210000000000000000006044820152606401610464565b4281116107185760405160e560020a62461bcd02815260206004820152601b60248201527f6e65772073746172742074696d6520696e2074686520706173742100000000006044820152606401610464565b600155565b6007818154811061072d57600080fd5b600091825260209091200154905081565b600054600160a060020a031633146107895760405160e560020a62461bcd0281526020600482015260136024820152600080516020613f358339815191526044820152606401610464565b60005474010000000000000000000000000000000000000000900460ff16156107f75760405160e560020a62461bcd02815260206004820152600960248201527f63616e63656c6c656400000000000000000000000000000000000000000000006044820152606401610464565b6000547501000000000000000000000000000000000000000000900460ff16156108665760405160e560020a62461bcd02815260206004820152601d60248201527f646973747269627574696f6e20616c72656164792068617070656e65640000006044820152606401610464565b600a546040517f70a08231000000000000000000000000000000000000000000000000000000008152306004820152600091600160a060020a0316906370a082319060240160206040518083038186803b1580156108c357600080fd5b505afa1580156108d7573d6000803e3d6000fd5b505050506040513d601f19601f820116820180604052508101906108fb9190613b68565b9050600354643a352944006109109190613ca7565b8110156109875760405160e560020a62461bcd028152602060048201526024808201527f636f6e747261637420646f6573206e6f742068617665206d61746368696e672060448201527f706f6f6c000000000000000000000000000000000000000000000000000000006064820152608401610464565b6000805474ff00000000000000000000000000000000000000001916740100000000000000000000000000000000000000001781556005805460045490916109ce91613cbf565b6109d89190613ca7565b905060005b6005811015610aee57600a5460068054600160a060020a039092169163a9059cbb916008916000919086908110610a1657610a16613eb6565b600091825260208083208183040154601f9092166101000a90910460ff168352820192909252604090810190912054905163ffffffff83167c0100000000000000000000000000000000000000000000000000000000028152600160a060020a03909116600482015260248101859052604401602060405180830381600087803b158015610aa357600080fd5b505af1158015610ab7573d6000803e3d6000fd5b505050506040513d601f19601f82011682018060405250810190610adb9190613b46565b5080610ae681613dfa565b9150506109dd565b505050565b60005474010000000000000000000000000000000000000000900460ff1615610b615760405160e560020a62461bcd02815260206004820152600960248201527f63616e63656c6c656400000000000000000000000000000000000000000000006044820152606401610464565b426001541115610bb65760405160e560020a62461bcd02815260206004820152601260248201527f766f74696e67206e6f74207374617274656400000000000000000000000000006044820152606401610464565b426002541015610c0b5760405160e560020a62461bcd02815260206004820152601060248201527f766f74696e672068617320656e646564000000000000000000000000000000006044820152606401610464565b600086118015610c205750640253fca1c08611155b610c955760405160e560020a62461bcd02815260206004820152602d60248201527f446f6e6174696f6e73206d6179206e6f74206265206f7665722055534443203960448201527f2c393939207065722075736572000000000000000000000000000000000000006064820152608401610464565b64ae9f7bcc0086600354610ca99190613ca7565b1115610d205760405160e560020a62461bcd02815260206004820152603060248201527f57652068617665207265616368656420746865206c696d6974206f662075736560448201527f7220636f6e747269627574696f6e7321000000000000000000000000000000006064820152608401610464565b6040516c010000000000000000000000003081026020830152600160a060020a038a160260348201526048810187905260688101849052600090608801604051602081830303815290604052805190602001209050600081604051602001610db491907f19457468657265756d205369676e6564204d6573736167653a0a3332000000008152601c810191909152603c0190565b6040516020818303038152906040528051906020012090506000610de6846000015185602001518660400151856116ec565b9050600160a060020a038116610e415760405160e560020a62461bcd02815260206004820152601d60248201527f7369676e65722063616e6e6f74206265207a65726f20616464726573730000006044820152606401610464565b610e5f8b8b8b8b8b8b8b600001518c602001518d604001518a611757565b5050505050505050505050565b600a546040517f70a08231000000000000000000000000000000000000000000000000000000008152600160a060020a03838116600483015260009216906370a082319060240160206040518083038186803b158015610ecb57600080fd5b505afa158015610edf573d6000803e3d6000fd5b505050506040513d601f19601f82011682018060405250810190610f039190613b68565b92915050565b600054600160a060020a03163314610f545760405160e560020a62461bcd0281526020600482015260136024820152600080516020613f358339815191526044820152606401610464565b600160a060020a038116610fad5760405160e560020a62461bcd02815260206004820152601960248201527f4e6577206f776e6572206973207a65726f2061646472657373000000000000006044820152606401610464565b6000805473ffffffffffffffffffffffffffffffffffffffff1916600160a060020a03831617905550565b600054600160a060020a031633146110235760405160e560020a62461bcd0281526020600482015260136024820152600080516020613f358339815191526044820152606401610464565b8051610623906007906020840190613613565b600054600160a060020a031633146110815760405160e560020a62461bcd0281526020600482015260136024820152600080516020613f358339815191526044820152606401610464565b600a805473ffffffffffffffffffffffffffffffffffffffff1916600160a060020a0392909216919091179055565b600054600160a060020a031633146110fb5760405160e560020a62461bcd0281526020600482015260136024820152600080516020613f358339815191526044820152606401610464565b4260025411156111505760405160e560020a62461bcd02815260206004820152601160248201527f766f74696e67207374696c6c206f70656e0000000000000000000000000000006044820152606401610464565b6000547501000000000000000000000000000000000000000000900460ff16156111bf5760405160e560020a62461bcd02815260206004820152601d60248201527f646973747269627574696f6e20616c72656164792068617070656e65640000006044820152606401610464565b6111c761365e565b6111cf61365e565b60005b60058110156112e5578787828181106111ed576111ed613eb6565b90506060020160200160208101906112059190613b9a565b78010000000000000000000000000000000000000000000000000283826005811061123257611232613eb6565b77ffffffffffffffffffffffffffffffffffffffffffffffff19909216602092909202015287878281811061126957611269613eb6565b90506060020160400160208101906112819190613b9a565b7801000000000000000000000000000000000000000000000000028282600581106112ae576112ae613eb6565b77ffffffffffffffffffffffffffffffffffffffffffffffff199092166020929092020152806112dd81613dfa565b9150506111d2565b506112f58989878588868961196d565b6112ff8787611c3c565b505050505050505050565b600054600160a060020a031633146113555760405160e560020a62461bcd0281526020600482015260136024820152600080516020613f358339815191526044820152606401610464565b60005474010000000000000000000000000000000000000000900460ff16156113c35760405160e560020a62461bcd02815260206004820152600960248201527f63616e63656c6c656400000000000000000000000000000000000000000000006044820152606401610464565b6000547501000000000000000000000000000000000000000000900460ff16156114325760405160e560020a62461bcd02815260206004820152601d60248201527f646973747269627574696f6e20616c72656164792068617070656e65640000006044820152606401610464565b600a546040517f70a08231000000000000000000000000000000000000000000000000000000008152306004820152600091600160a060020a0316906370a082319060240160206040518083038186803b15801561148f57600080fd5b505afa1580156114a3573d6000803e3d6000fd5b505050506040513d601f19601f820116820180604052508101906114c79190613b68565b9050600354643a352944006114dc9190613ca7565b811061152d5760405160e560020a62461bcd02815260206004820152601b60248201527f636f6e74726163742068617665206d61746368696e6720706f6f6c00000000006044820152606401610464565b506000805474ff0000000000000000000000000000000000000000191674010000000000000000000000000000000000000000179055565b600054600160a060020a031633146115b05760405160e560020a62461bcd0281526020600482015260136024820152600080516020613f358339815191526044820152606401610464565b428110156116035760405160e560020a62461bcd02815260206004820152601960248201527f6e657720656e642074696d6520696e20746865207061737421000000000000006044820152606401610464565b600255565b600054600160a060020a031633146116535760405160e560020a62461bcd0281526020600482015260136024820152600080516020613f358339815191526044820152606401610464565b600160a060020a0381166116ac5760405160e560020a62461bcd02815260206004820152600c60248201527f5a65726f206164647265737300000000000000000000000000000000000000006044820152606401610464565b60ff919091166000908152600860205260409020805473ffffffffffffffffffffffffffffffffffffffff1916600160a060020a03909216919091179055565b6040805160008082526020820180845284905260ff8716928201929092526060810185905260808101849052819060019060a0016020604051602081039080840390855afa158015611742573d6000803e3d6000fd5b5050604051601f190151979650505050505050565b8061176a600054600160a060020a031690565b600160a060020a031681600160a060020a0316146117cd5760405160e560020a62461bcd02815260206004820152601360248201527f4e6f74207369676e6564206279206f776e6572000000000000000000000000006044820152606401610464565b600160a060020a038b16600090815260096020526040902054156118365760405160e560020a62461bcd02815260206004820152601760248201527f557365722068617320616c726561647920766f746564210000000000000000006044820152606401610464565b8a600160a060020a03167f906faaf913a60f38b5e8f2d6f5b163239bac2d994fa1a5d21751a51587a940578a60405161187191815260200190565b60405180910390a2600160a060020a038b1660009081526009602052604081208a9055600380548b92906118a6908490613ca7565b9091555050600a546040517fef55bec6000000000000000000000000000000000000000000000000000000008152600160a060020a038d811660048301528c81166024830152604482018c9052606482018b9052608482018a905260a4820189905260ff881660c483015260e4820187905261010482018690529091169063ef55bec69061012401600060405180830381600087803b15801561194857600080fd5b505af115801561195c573d6000803e3d6000fd5b505050505050505050505050505050565b600060028685604051602001611984929190613c12565b60408051601f198184030181529082905261199e91613c3b565b602060405180830381855afa1580156119bb573d6000803e3d6000fd5b5050506040513d601f19601f820116820180604052508101906119de9190613b68565b90506000600282848884602002015189600160200201518a600260200201518b600360200201518c600460200201518b600060200201518c600160200201518d600260200201518e600360200201518f60046020020151604051602001611ac09c9b9a999897969594939291909b8c5260208c019a909a5277ffffffffffffffffffffffffffffffffffffffffffffffff1998891660408c015296881660488b015294871660508a0152928616605889015290851660608801528416606887015283166070860152821660788501528116608084015216608882015260900190565b60408051601f1981840301815290829052611ada91613c3b565b602060405180830381855afa158015611af7573d6000803e3d6000fd5b5050506040513d601f19601f82011682018060405250810190611b1a9190613b68565b9050611bc78989808060200260200160405190810160405280939291908181526020018383602002808284376000920191909152505060078054604080516020808402820181019092528281527f1fffffffffffffffffffffffffffffffffffffffffffffffffffffffffffffff891695509350830182828015611bbd57602002820191906000526020600020905b815481526020019060010190808311611ba9575b505050505061205a565b6112ff5760405160e560020a62461bcd02815260206004820152602e60248201527f546869732070726f6f6620616e642f6f7220696e70757473206170706561727360448201527f20746f20626520696e76616c69640000000000000000000000000000000000006064820152608401610464565b6000805b6005811015611ca7576002848483818110611c5d57611c5d613eb6565b9050606002016020016020810190611c759190613b9a565b67ffffffffffffffff16611c899190613d18565b611c939083613ca7565b915080611c9f81613dfa565b915050611c40565b5060005b6005811015611fa7576000826002868685818110611ccb57611ccb613eb6565b9050606002016020016020810190611ce39190613b9a565b67ffffffffffffffff16611cf79190613d18565b600454611d049190613dc4565b611d0e9190613cbf565b9050600060055482878786818110611d2857611d28613eb6565b9050606002016040016020810190611d409190613b9a565b67ffffffffffffffff16611d549190613ca7565b611d5e9190613ca7565b90507fb8ef3e45a8d1a6548e71d30766619265fa47a1bb5662acf45bc40d7f6b5d818060086000888887818110611d9757611d97613eb6565b611dad9260206060909202019081019150613bc4565b60ff168152602081019190915260400160002054600160a060020a0316878786818110611ddc57611ddc613eb6565b611df29260206060909202019081019150613bc4565b888887818110611e0457611e04613eb6565b9050606002016040016020810190611e1c9190613b9a565b60408051600160a060020a03909416845260ff909216602084015267ffffffffffffffff1690820152606081018490526080810183905260a00160405180910390a1858584818110611e7057611e70613eb6565b9050606002016040016020810190611e889190613b9a565b67ffffffffffffffff1660036000828254611ea39190613de3565b9091555050600a54600160a060020a031663a9059cbb60086000898988818110611ecf57611ecf613eb6565b611ee59260206060909202019081019150613bc4565b60ff1681526020810191909152604090810160002054905163ffffffff83167c0100000000000000000000000000000000000000000000000000000000028152600160a060020a03909116600482015260248101849052604401602060405180830381600087803b158015611f5957600080fd5b505af1158015611f6d573d6000803e3d6000fd5b505050506040513d601f19601f82011682018060405250810190611f919190613b46565b5050508080611f9f90613dfa565b915050611cab565b506000805475ff00000000000000000000000000000000000000000019167501000000000000000000000000000000000000000000179055600354600111610aee5760405160e560020a62461bcd02815260206004820152603060248201527f536f6d65207573657220636f6e747269627574696f6e7320686176656e74206260448201527f65656e207472616e7366657272656421000000000000000000000000000000006064820152608401610464565b600061206784848461207e565b61207357506001612077565b5060005b9392505050565b600061208861367c565b60408051808201909152600080825260208201526120a46136cd565b604051806040016040528060008152602001600081525091506040518060400160405280886000815181106120db576120db613eb6565b60200260200101518152602001886001815181106120fb576120fb613eb6565b60200260200101518152508360000181905250604051806040016040528060405180604001604052808a60028151811061213757612137613eb6565b602002602001015181526020018a60038151811061215757612157613eb6565b6020026020010151815250815260200160405180604001604052808a60048151811061218557612185613eb6565b602002602001015181526020018a6005815181106121a5576121a5613eb6565b602002602001015181525081525083602001819052506040518060400160405280886006815181106121d9576121d9613eb6565b60200260200101518152602001886007815181106121f9576121f9613eb6565b60200260200101518152508360400181905250604051806040016040528060405180604001604052808860008151811061223557612235613eb6565b602002602001015181526020018860018151811061225557612255613eb6565b6020026020010151815250815260200160405180604001604052808860028151811061228357612283613eb6565b60200260200101518152602001886003815181106122a3576122a3613eb6565b602002602001015181525081525081600001819052506040518060400160405280866004815181106122d7576122d7613eb6565b60200260200101518152602001866005815181106122f7576122f7613eb6565b60200260200101518152508160200181905250604051806040016040528060405180604001604052808860068151811061233357612333613eb6565b602002602001015181526020018860078151811061235357612353613eb6565b6020026020010151815250815260200160405180604001604052808860088151811061238157612381613eb6565b60200260200101518152602001886009815181106123a1576123a1613eb6565b60200260200101518152508152508160400181905250604051806040016040528086600a815181106123d5576123d5613eb6565b6020026020010151815260200186600b815181106123f5576123f5613eb6565b602002602001015181525081606001819052506040518060400160405280604051806040016040528088600c8151811061243157612431613eb6565b6020026020010151815260200188600d8151811061245157612451613eb6565b60200260200101518152508152602001604051806040016040528088600e8151811061247f5761247f613eb6565b6020026020010151815260200188600f8151811061249f5761249f613eb6565b6020908102919091010151905290526080820152600060105b865181101561254d5760405180604001604052808883815181106124de576124de613eb6565b60200260200101518152602001888360016124f99190613ca7565b8151811061250957612509613eb6565b60200260200101518152508360a00151838061252490613dfa565b94506002811061253657612536613eb6565b6020020152612546600282613ca7565b90506124b8565b5061257c836125778460a0015160016002811061256c5761256c613eb6565b60200201518a612647565b6126f2565b92506125a3838360a0015160006002811061259957612599613eb6565b60200201516126f2565b92506125f382602001518360400151858560800151886040015187600001516125dc6125d78c600001518b602001516126f2565b612799565b6125ee8c602001518b60400151612826565b61287e565b612604576001945050505050612077565b6126288460000151836080015161261e8560600151612799565b8760200151612a09565b612639576002945050505050612077565b506000979650505050505050565b604080518082019091526000808252602082015261266361374b565b83518152602080850151908201526040810183905260006060836080848460076107d05a03f1905080801561269757612699565bfe5b50806126ea5760405160e560020a62461bcd02815260206004820152601f60248201527f4543207363616c6172206d756c7469706c69636174696f6e206661696c6564006044820152606401610464565b505092915050565b604080518082019091526000808252602082015261270e613769565b8351815260208085015181830152835160408301528301516060808301919091526000908360c0848460066107d05a03f190508080156126975750806126ea5760405160e560020a62461bcd02815260206004820152601260248201527f4543206164646974696f6e206661696c656400000000000000000000000000006044820152606401610464565b60408051808201909152600080825260208201528151600080516020613f15833981519152901580156127ce57506020830151155b156127ee5750506040805180820190915260008082526020820152919050565b6040518060400160405280846000015181526020018285602001516128139190613e15565b61281d9084613de3565b90529392505050565b61282e613787565b8251805160209182015182860151805190840151865180519086015188870151805197015161285d9790612b14565b84516020808701518082019390935292909152908101919091525292915050565b60408051600480825260a08201909252600091829190816020015b604080518082019091526000808252602082015281526020019060019003908161289957505060408051600480825260a0820190925291925060009190602082015b6128e3613787565b8152602001906001900390816128db5790505090508a8260008151811061290c5761290c613eb6565b6020026020010181905250888260018151811061292b5761292b613eb6565b6020026020010181905250868260028151811061294a5761294a613eb6565b6020026020010181905250848260038151811061296957612969613eb6565b6020026020010181905250898160008151811061298857612988613eb6565b602002602001018190525087816001815181106129a7576129a7613eb6565b602002602001018190525085816002815181106129c6576129c6613eb6565b602002602001018190525083816003815181106129e5576129e5613eb6565b60200260200101819052506129fa8282612c61565b9b9a5050505050505050505050565b60408051600280825260608201909252600091829190816020015b6040805180820190915260008082526020820152815260200190600190039081612a245750506040805160028082526060820190925291925060009190602082015b612a6e613787565b815260200190600190039081612a665790505090508682600081518110612a9757612a97613eb6565b60200260200101819052508482600181518110612ab657612ab6613eb6565b60200260200101819052508581600081518110612ad557612ad5613eb6565b60200260200101819052508381600181518110612af457612af4613eb6565b6020026020010181905250612b098282612c61565b979650505050505050565b60008080808b158015612b2557508a155b8015612b2f575089155b8015612b39575088155b15612b8a5787158015612b4a575086155b8015612b54575085155b8015612b5e575084155b612b7a57612b6e88888888612f22565b612b7a57612b7a613e29565b5086925085915084905083612c52565b87158015612b96575086155b8015612ba0575085155b8015612baa575084155b15612bd757612bbb8c8c8c8c612f22565b612bc757612bc7613e29565b508a925089915088905087612c52565b612be38c8c8c8c612f22565b612bef57612bef613e29565b612bfb88888888612f22565b612c0757612c07613e29565b6000612c218d8d8d8d600160008f8f8f8f60016000612fd7565b8051602082015160408301516060840151608085015160a0860151959650612c4895613260565b9450945094509450505b98509850985098945050505050565b815160009081612c72826006613dc4565b905060008167ffffffffffffffff811115612c8f57612c8f613ee5565b604051908082528060200260200182016040528015612cb8578160200160208202803683370190505b50905060005b83811015612ef357868181518110612cd857612cd8613eb6565b60200260200101516000015182826006612cf29190613dc4565b612cfd906000613ca7565b81518110612d0d57612d0d613eb6565b602002602001018181525050868181518110612d2b57612d2b613eb6565b60200260200101516020015182826006612d459190613dc4565b612d50906001613ca7565b81518110612d6057612d60613eb6565b602002602001018181525050858181518110612d7e57612d7e613eb6565b60209081029190910181015151015182612d99836006613dc4565b612da4906002613ca7565b81518110612db457612db4613eb6565b602002602001018181525050858181518110612dd257612dd2613eb6565b6020908102919091010151515182612deb836006613dc4565b612df6906003613ca7565b81518110612e0657612e06613eb6565b602002602001018181525050858181518110612e2457612e24613eb6565b602002602001015160200151600160028110612e4257612e42613eb6565b602002015182612e53836006613dc4565b612e5e906004613ca7565b81518110612e6e57612e6e613eb6565b602002602001018181525050858181518110612e8c57612e8c613eb6565b602002602001015160200151600060028110612eaa57612eaa613eb6565b602002015182612ebb836006613dc4565b612ec6906005613ca7565b81518110612ed657612ed6613eb6565b602090810291909101015280612eeb81613dfa565b915050612cbe565b50612efc6137a7565b60006020826020860260208601600060086107d05a03f150505115159695505050505050565b6000806000806000612f36878789896132aa565b9094509250612f47898981816132aa565b9092509050612f5882828b8b6132aa565b9092509050612f698484848461331b565b9094509250612fb984847f2b149d40ceb8aaae81be18991be06ac3b5b4c5e559dbefa33267e6dc24a138e57e9713b03af0fed4cd2cafadeed8fdf4a74fa084e52d1852e4a2bd0685c315d261331b565b909450925083158015612fca575082155b9998505050505050505050565b612fdf6137c5565b88158015612feb575087155b1561302d578686868686868660005b60a08901929092526080880192909252606087019290925260408601929092526020858101939093529091020152613250565b82158015613039575081155b1561304c578c8c8c8c8c8c866000612ffa565b61305885858b8b6132aa565b90955093506130698b8b85856132aa565b6060830152604082015261307f87878b8b6132aa565b90975095506130908d8d85856132aa565b60a083015260808201819052871480156130ad575060a081015186145b156130f2576040810151851480156130c85750606081015184145b156130e3576130db8d8d8d8d8d8d61335d565b866000612ffa565b60016000818180808681612ffa565b6130fe898985856132aa565b909350915061311e858583600260200201518460035b602002015161331b565b909d509b5061313887878360046020020151846005613114565b909b5099506131498b8b81816132aa565b9099509750613169898983600460200201518460055b60200201516132aa565b909550935061317a89898d8d6132aa565b909950975061318b898985856132aa565b60a083015260808201526131a18d8d81816132aa565b90975095506131b2878785856132aa565b90975095506131c387878b8b61331b565b90975095506131d4858560026134cc565b90935091506131e58787858561331b565b90975095506131f68b8b89896132aa565b602083015281526132098585898961331b565b909b50995061321a8d8d8d8d6132aa565b909b5099506132348989836002602002015184600361315f565b909d509b506132458b8b8f8f61331b565b606083015260408201525b9c9b505050505050505050505050565b60008060008060008061327388886134ff565b90925090506132848c8c84846132aa565b90965094506132958a8a84846132aa565b969d959c509a50949850929650505050505050565b6000806132e8600080516020613f15833981519152858809600080516020613f15833981519152858809600080516020613f1583398151915261358b565b600080516020613f1583398151915280868809600080516020613f15833981519152868a09089150915094509492505050565b6000806133378685600080516020613f1583398151915261358b565b6133508685600080516020613f1583398151915261358b565b9150915094509492505050565b6000806000806000806133728c8c60036134cc565b909650945061338386868e8e6132aa565b90965094506133948a8a8a8a6132aa565b90985096506133a58c8c8c8c6132aa565b90945092506133b684848a8a6132aa565b90945092506133c7868681816132aa565b909c509a506133d8848460086134cc565b90925090506133e98c8c848461331b565b909c509a506133fa888881816132aa565b909250905061340b848460046134cc565b909450925061341c84848e8e61331b565b909450925061342d848488886132aa565b909450925061343e8a8a60086134cc565b909650945061344f86868c8c6132aa565b9096509450613460868684846132aa565b90965094506134718484888861331b565b90945092506134828c8c60026134cc565b909650945061349386868a8a6132aa565b90965094506134a4888884846132aa565b90925090506134b5828260086134cc565b809250819350505096509650965096509650969050565b600080600080516020613f15833981519152838609600080516020613f1583398151915284860991509150935093915050565b60008080613540600080516020613f1583398151915280878809600080516020613f1583398151915287880908600080516020613f158339815191526135af565b9050600080516020613f15833981519152818609600080516020613f1583398151915282860961357e90600080516020613f15833981519152613de3565b92509250505b9250929050565b6000818061359b5761359b613e87565b6135a58484613de3565b8508949350505050565b600060018284835b8115613609576135c78284613cbf565b9050836135e58688806135dc576135dc613e87565b8785098961358b565b9095509350816135f58183613dc4565b6135ff9085613de3565b90935091506135b7565b5050505092915050565b82805482825590600052602060002090810192821561364e579160200282015b8281111561364e578251825591602001919060010190613633565b5061365a9291506137e3565b5090565b6040518060a001604052806005906020820280368337509192915050565b6040805160a0810190915260006060820181815260808301919091528152602081016136a6613787565b81526020016136c8604051806040016040528060008152602001600081525090565b905290565b6040518060c001604052806136e0613787565b8152602001613702604051806040016040528060008152602001600081525090565b815260200161370f613787565b8152602001613731604051806040016040528060008152602001600081525090565b815260200161373e613787565b81526020016136c86137f8565b60405180606001604052806003906020820280368337509192915050565b60405180608001604052806004906020820280368337509192915050565b604051806040016040528061379a613831565b81526020016136c8613831565b60405180602001604052806001906020820280368337509192915050565b6040518060c001604052806006906020820280368337509192915050565b5b8082111561365a57600081556001016137e4565b60405180604001604052806002905b60408051808201909152600080825260208201528152602001906001900390816138075790505090565b60405180604001604052806002906020820280368337509192915050565b8035600160a060020a038116811461386657600080fd5b919050565b806101408101831015610f0357600080fd5b60008083601f84011261388f57600080fd5b50813567ffffffffffffffff8111156138a757600080fd5b60208301915083602060608302850101111561358457600080fd5b6000606082840312156138d457600080fd5b6040516060810181811067ffffffffffffffff821117156138f7576138f7613ee5565b60405290508061390683613923565b815260208301356020820152604083013560408201525092915050565b803560ff8116811461386657600080fd5b60006020828403121561394657600080fd5b6120778261384f565b600080600080600080600080610180898b03121561396c57600080fd5b6139758961384f565b975061398360208a0161384f565b965060408901359550606089013594506080890135935060a089013592506139ae8a60c08b016138c2565b91506139be8a6101208b016138c2565b90509295985092959890939650565b60008060008060008060006102e0888a0312156139e957600080fd5b873567ffffffffffffffff80821115613a0157600080fd5b818a0191508a601f830112613a1557600080fd5b813581811115613a2457600080fd5b8b60208083028501011115613a3857600080fd5b602092830199509750908901359080821115613a5357600080fd5b50613a608a828b0161387d565b9096509450613a7490508960408a0161386b565b9250613a84896101808a0161386b565b91506102c0880135905092959891949750929550565b60006020808385031215613aad57600080fd5b823567ffffffffffffffff80821115613ac557600080fd5b818501915085601f830112613ad957600080fd5b813581811115613aeb57613aeb613ee5565b8381029150613afb848301613c76565b8181528481019084860184860187018a1015613b1657600080fd5b600095505b83861015613b39578035835260019590950194918601918601613b1b565b5098975050505050505050565b600060208284031215613b5857600080fd5b8151801515811461207757600080fd5b600060208284031215613b7a57600080fd5b5051919050565b600060208284031215613b9357600080fd5b5035919050565b600060208284031215613bac57600080fd5b813567ffffffffffffffff8116811461207757600080fd5b600060208284031215613bd657600080fd5b61207782613923565b60008060408385031215613bf257600080fd5b613bfb83613923565b9150613c096020840161384f565b90509250929050565b600061014080858437808301600081528185823750506000610280929092019182525092915050565b6000825160005b81811015613c5c5760208186018101518583015201613c42565b81811115613c6b576000828501525b509190910192915050565b604051601f8201601f1916810167ffffffffffffffff81118282101715613c9f57613c9f613ee5565b604052919050565b60008219821115613cba57613cba613e58565b500190565b600082613cce57613cce613e87565b500490565b600181815b80851115613d10578160001904821115613cf457613cf4613e58565b80851615613d0157918102915b60029094049390800290613cd8565b509250929050565b600061207760ff841683600082613d3157506001610f03565b81613d3e57506000610f03565b8160018114613d545760028114613d5e57613d7b565b6001915050610f03565b60ff841115613d6f57613d6f613e58565b8360020a915050610f03565b5060208310610133831016604e8410600b8410161715613d9e575081810a610f03565b613da88383613cd3565b8060001904821115613dbc57613dbc613e58565b029392505050565b6000816000190483118215151615613dde57613dde613e58565b500290565b600082821015613df557613df5613e58565b500390565b6000600019821415613e0e57613e0e613e58565b5060010190565b600082613e2457613e24613e87565b500690565b7f4e487b7100000000000000000000000000000000000000000000000000000000600052600160045260246000fd5b7f4e487b7100000000000000000000000000000000000000000000000000000000600052601160045260246000fd5b7f4e487b7100000000000000000000000000000000000000000000000000000000600052601260045260246000fd5b7f4e487b7100000000000000000000000000000000000000000000000000000000600052603260045260246000fd5b7f4e487b7100000000000000000000000000000000000000000000000000000000600052604160045260246000fdfe30644e72e131a029b85045b68181585d97816a916871ca8d3c208c16d87cfd4743616c6c6572206973206e6f74206f776e657200000000000000000000000000a2646970667358221220e48a4212f1898042e50e0e654502ee74efe5c829453f368a5a22723fee97122e64736f6c63430008070033",
  "immutableReferences": {},
  "source": "// SPDX-License-Identifier: UNLICENSED\n\npragma solidity 0.8.7;\n\nimport './Ownable.sol';\nimport './IUSDC.sol';\nimport './Verifier.sol';\ncontract ClimateDAO is Ownable {\n\n  struct Project {\n    uint8 id;\n    address wallet;\n  }\n\n  struct ProjectDistribution {\n    uint8 id;\n    uint64 tally; // sum of sqrts of contributions\n    uint64 funding; // sum of user contributions\n  }\n\n  struct Signature {\n    uint8 v;\n    bytes32 r;\n    bytes32 s;\n  }\n\n  bool public cancelled;\n  bool public distributed;\n  uint public startTime;\n  uint public endTime;\n  uint public fundingPool;\n  uint public matchingPool; // 150k for all projects\n  uint public baseline; // 20k per project\n  uint8[] projectIds;\n  uint[] public verifyingKey;\n  mapping(uint8 => address) public projects;\n  mapping(address => uint) public contributors;\n  IUSDC public usdcToken;\n\n  event Contribute(address indexed _from, uint value);\n  event Withdraw(address indexed _contributer, uint amount);\n  event Distribute(address wallet, uint id, uint funded, uint matched, uint total);\n\n  /**\n   * @notice constructor\n   * @param _projects - project info\n   * @param _verifyingKey - vk for zkp\n   * @param _startTime - time of voting start\n   * @param USDCAddress - address of USDC contract\n   * @param _matchingPool - amount of USDC in matching pool (decimals = 6)\n   * @param _baseline - amount of USDC in baseline (decimals = 6)\n   */\n  constructor(\n    Project[] memory _projects,\n    uint[] memory _verifyingKey,\n    uint _startTime,\n    address USDCAddress,\n    uint _matchingPool,\n    uint _baseline\n  ) {\n    startTime = _startTime + 30 minutes;\n    endTime = _startTime +  1 days;\n    // we initialise the projects structs with IDs and wallets\n    for (uint i = 0; i < 5; i++) {\n      projects[_projects[i].id] = _projects[i].wallet;\n      projectIds.push(_projects[i].id);\n    }\n    usdcToken = IUSDC(USDCAddress);\n    verifyingKey = _verifyingKey;\n    matchingPool = _matchingPool;\n    baseline = _baseline;\n  }\n\n  /**\n   * @notice Modifier for stopping actions when contract cancelled\n   */\n  modifier whenNotCancelled() {\n    require(!cancelled, \"cancelled\");\n    _;\n  }\n\n  /**\n   * @notice Modifier for allowing actions when voting in progress\n   */\n  modifier whenVotingInProgress() {\n    require(startTime <= block.timestamp, \"voting not started\");\n    require(endTime >= block.timestamp, \"voting has ended\");\n    _;\n  }\n\n  /**\n   * @notice Modifier for stopping actions when voting in progress\n   */\n  modifier whenVotingComplete() {\n    require(endTime <= block.timestamp, \"voting still open\");\n    _;\n  }\n\n  /**\n   * @notice Modifier for stopping actions after fund distribution complete\n   */\n  modifier beforeDistribution() {\n    require(!distributed, \"distribution already happened\");\n    _;\n  }\n\n  /**\n   * @notice Update address of project\n   * @param id Project id\n   * @param newAddress Project address\n   */\n  function updateProject(uint8 id, address newAddress) external onlyOwner {\n    require(newAddress != address(0), 'Zero address');\n    projects[id] = newAddress;\n  }\n\n  /**\n   * @notice Update address of USDC token contract\n   * @param newAddress USDC address\n   */\n  function updateUSDC(address newAddress) external onlyOwner {\n    usdcToken = IUSDC(newAddress);\n  }\n\n  /**\n   * @notice Update end time\n   * @param newEndTime end time\n   */\n  function updateEndDate(uint newEndTime) external onlyOwner {\n    require(newEndTime >= block.timestamp, \"new end time in the past!\");\n    endTime = newEndTime;\n  }\n\n  /**\n   * @notice Update start time\n   * @param newStartTime start time\n   */\n  function updateStartDate(uint newStartTime) external onlyOwner {\n    require(startTime > block.timestamp, \"voting already started!\");\n    require(newStartTime > block.timestamp, \"new start time in the past!\");\n    startTime = newStartTime;\n  }\n\n  /**\n   * @notice Update vk for project circuit\n   * @param _verifyingKey - vk\n   */\n  function registerVerificationKey(uint[] memory _verifyingKey) external onlyOwner {\n    verifyingKey = _verifyingKey;\n  }\n\n  /**\n   * @notice Get contribution of an user\n   * @param user Contributor address\n   */\n  function getContributionOf(address user) external view returns (uint) {\n    return contributors[user];\n  }\n\n  /**\n   * @notice Get all contributions by users\n   */\n  function getTotalContributions() external view returns (uint) {\n    return fundingPool;\n  }\n\n  /**\n   * @notice Get USDC balance of addr\n   */\n  function getUSDCBalance(address ad) external view returns (uint) {\n    return usdcToken.balanceOf(ad);\n  }\n\n\n  /**\n   * @notice Recover signer's address from a signed message and mark nonce as used\n   * @param sigV      v of the signature\n   * @param sigR      r of the signature\n   * @param sigS      s of the signature\n   * @param digest    Keccak-256 hash digest of the signed message\n   * @return Signer address\n   */\n  function getSigner(uint8 sigV, bytes32 sigR, bytes32 sigS, bytes32 digest) internal pure returns (address) {\n    address signer = ecrecover(digest, sigV, sigR, sigS);\n    return signer;\n  }\n\n  /**\n   * @notice Verify our proof of decryption of tally\n   * @dev Ideally the encrypted information would be on-chain, due to gas costs it is off-chain and passed as calldata. ALL inputs in the hash are linked with the proof - if any one piece is wrong, the proof will fail\n   * @param proof - proof of correct decryption of tally\n   * @param voteTallyEnc - encrypted tally of votes (sqrt(contribution))\n   * @param voteTally - plaintext tally of votes\n   * @param fundingTallyEnc - encrypted funding from users\n   * @param fundingTally - plaintext funding from users\n   * @param encPublicKey - auth public key for encryption\n   */\n  function verifyProof(\n    uint256[] calldata proof,\n    bytes32[10] calldata voteTallyEnc,\n    bytes8[5] memory voteTally,\n    bytes32[10] calldata fundingTallyEnc,\n    bytes8[5] memory fundingTally,\n    bytes32 encPublicKey\n  ) internal {\n    // calculate innerHash = hash of encrypted values\n    bytes32 innerHash = sha256(abi.encodePacked(voteTallyEnc, fundingTallyEnc));\n    // calculate publicInputHash\n    // we must encode each bytes8 separately to ensure it matches hash in circuit\n    bytes32 testHash = sha256(abi.encodePacked(innerHash, encPublicKey, voteTally[0], voteTally[1], voteTally[2], voteTally[3], voteTally[4], fundingTally[0], fundingTally[1], fundingTally[2], fundingTally[3], fundingTally[4]));\n    // verify proof with gm17 verifier\n    // concat hash by selecting the 1st 253 of 256 bits\n    require(Verifier.verify(proof, uint256(testHash & 0x1fffffffffffffffffffffffffffffffffffffffffffffffffffffffffffffff), verifyingKey), 'This proof and/or inputs appears to be invalid');\n  }\n\n  /**\n   * @notice Transfer funds\n   * @dev This is only executed if the proof of tally has been verified, and can only be called internally\n   * @param projectsToFund - amount of funding and votes per project\n   */\n  function distributeFunds(ProjectDistribution[] calldata projectsToFund) private {\n    // quadratic funding algorithm:\n    // each project recieves matchingPool * ((sum of sqrt(contributions)**2 for project)/sum of sqrt(contributions)**2 for all projects))\n    // our vote tally = sum of sqrt(contribution)\n    uint256 totalQuadratic;\n    // find the total of all votes **2 (the denominator)\n    for (uint i = 0; i < 5; i++) {\n      totalQuadratic += uint(projectsToFund[i].tally)**2;\n    }\n    // find and transfer the matched funds\n    for (uint i = 0; i < 5; i++) {\n\n      uint256 matched = (matchingPool * (uint(projectsToFund[i].tally)**2))/totalQuadratic;\n      uint256 totalToTransfer = uint(projectsToFund[i].funding) + matched + baseline;\n\n      // moving event before external call to avoid re-entrancy bugs\n      emit Distribute(projects[projectsToFund[i].id], projectsToFund[i].id, projectsToFund[i].funding, matched, totalToTransfer);\n\n      fundingPool -= projectsToFund[i].funding;\n      usdcToken.transfer(projects[projectsToFund[i].id], totalToTransfer);\n\n    }\n    distributed = true;\n    // we need to check that we haven't missed out any funds from users\n    require(fundingPool < 1, 'Some user contributions havent been transferred!');\n  }\n\n\n  /**\n   * @notice Execute quadratic funding\n   * @dev This is called by the owner to begin the process of distributing funds to projects. We distribute user funding and calculated matched funds.\n   * @param proof - proof of correct decryption of tally\n   * @param projectsToFund - amount of funding and votes per project\n   * @param voteTallyEnc - encrypted tally of votes\n   * @param fundingTallyEnc - encrypted funding from users\n   * @param encPublicKey - auth public key for encryption\n   */\n  function verifyThenDistribute(\n    uint256[] calldata proof,\n    ProjectDistribution[] calldata projectsToFund,\n    bytes32[10] calldata voteTallyEnc,\n    bytes32[10] calldata fundingTallyEnc,\n    bytes32 encPublicKey\n  ) external onlyOwner whenVotingComplete beforeDistribution {\n    bytes8[5] memory tallyBytes; // we convert to hash in verifyProof, so this must be converted to bytes\n    bytes8[5] memory fundingBytes;\n    for (uint i = 0; i < 5; i++) {\n      // NB projects must be ordered the same as when input to the circuit\n      tallyBytes[i] = bytes8(projectsToFund[i].tally);\n      fundingBytes[i] = bytes8(projectsToFund[i].funding);\n    }\n    // we verify that the encrypted tally & funds decrypt to these values\n    verifyProof(proof, voteTallyEnc, tallyBytes, fundingTallyEnc, fundingBytes, encPublicKey);\n    // we initiate transfer\n    distributeFunds(projectsToFund);\n\n  }\n\n  /**\n   * @notice Internal function to execute usdc transfer with a signed transaction.\n   * https://github.com/centrehq/centre-tokens/blob/0d3cab14ebd133a83fc834dbd48d0468bdf0b391/contracts/v2/FiatTokenV2.sol#L137\n   * @param from          Payer's address (Authorizer)\n   * @param to            Payee's address\n   * @param value         Amount to be transferred\n   * @param validAfter    The time after which this is valid (unix time)\n   * @param validBefore   The time before which this is valid (unix time)\n   * @param nonce         Unique nonce\n   * @param v             v of the signature\n   * @param r             r of the signature\n   * @param s             s of the signature\n   * @param user          Owner address\n   */\n  function contribute(\n    address from,\n    address to,\n    uint256 value,\n    uint256 validAfter,\n    uint256 validBefore,\n    bytes32 nonce,\n    uint8 v,\n    bytes32 r,\n    bytes32 s,\n    address user\n  ) internal onlyOwnerSigned(user) {\n    require(contributors[from] == 0, 'User has already voted!');\n    emit Contribute(from, value);\n    contributors[from] = value;\n    fundingPool += value;\n    usdcToken.receiveWithAuthorization(from, to, value, validAfter, validBefore, nonce, v, r, s);\n  }\n\n  /**\n   * @notice Execute usdc transfer with a signed transaction.\n   * @dev The usdc transfer is performed here to keep track of contributions.\n   * Contributers will be able to withdraw their contribution if voting has been cancelled.\n   * Since kyc is performed offchain, this method can be called only with owner's authorization. Transactions are relayed\n   * using a relayer, so msg.sender cannot be used to verify ownership. Hence we use owners singature to prove owner has\n   * authorized to perform this transaction.\n   * The below 7 params are arguments for USDC's receiveWithAuthorization.\n   * https://github.com/centrehq/centre-tokens/blob/0d3cab14ebd133a83fc834dbd48d0468bdf0b391/contracts/v2/FiatTokenV2.sol#L137\n   * @param from          Payer's address (Authorizer)\n   * @param to            Payee's address\n   * @param value         Amount to be transferred\n   * @param validAfter    The time after which this is valid (unix time)\n   * @param validBefore   The time before which this is valid (unix time)\n   * @param nonce         Unique nonce\n   * @param RWASig        ReceiveWithAuthorization digital signature [ v, r, s]\n   * @param ownerSig      Owner's Sigature. Used to verify owner's authorization to perform this transaction.\n   */\n  function contributeSigned(\n    address from,\n    address to,\n    uint256 value,\n    uint256 validAfter,\n    uint256 validBefore,\n    bytes32 nonce,\n    Signature memory RWASig,\n    Signature memory ownerSig\n  ) external whenNotCancelled whenVotingInProgress {\n    require(value > 0 && value <= 9999*1000000, 'Donations may not be over USDC 9,999 per user');\n    require(fundingPool + value <= 750000*1000000, 'We have reached the limit of user contributions!');\n    bytes32 hash = keccak256(abi.encodePacked(this, from, value,  nonce));\n    bytes32 messageDigest = keccak256(abi.encodePacked(\"\\x19Ethereum Signed Message:\\n32\", hash));\n    address signer = getSigner(ownerSig.v, ownerSig.r, ownerSig.s, messageDigest);\n    require(signer != address(0), 'signer cannot be zero address');\n    contribute(from, to, value, validAfter, validBefore, nonce, RWASig.v, RWASig.r, RWASig.s, signer);\n  }\n\n  /**\n   * @notice Withdraw contribution if contract has been cancelled.\n   * @dev Up on cancellation, contributors can withdraw their contributions\n   * Contributors cannot call this function post distribution\n   */\n  function withdrawContribution() external beforeDistribution {\n    require(cancelled, 'Not cancelled');\n    uint amount = contributors[msg.sender];\n    require(amount > 0, 'no balance');\n    contributors[msg.sender] = 0;\n    emit Withdraw(msg.sender, amount);\n    usdcToken.transfer(msg.sender, amount);\n  }\n\n  /**\n   * @notice Cancel contract\n   * @dev This is called by owner to cancel contract if we do NOT need to transfer matchingPool + baseline funds to projects\n   * That is if we have yet to transfer matching pool + baseline  to this contract. Matching pool + baseline = 250000*1000000\n   * Owner should not be able to cancel post distribution\n   */\n  function cancel() external onlyOwner whenNotCancelled beforeDistribution {\n    uint balance = usdcToken.balanceOf(address(this));\n    require( balance < 250000*1000000 + fundingPool, 'contract have matching pool');\n    cancelled = true;\n  }\n\n  /**\n   * @notice Cancel contract and distribute matchingPool + baseline\n   * @dev This is called by owner to cancel contract if matchingPool + baseline is yet to be transfered to projects\n   * Upon calling cancelAndTransfer, each project will get their portion of funding from matchingPool + baseline.\n   * Contributions from users will not be transfered to projects in case of cancellation.\n   * Contributors will be able to withdraw their contributions if contract has been cancelled.\n   */\n  function cancelAndTransfer() external onlyOwner whenNotCancelled beforeDistribution {\n    uint balance = usdcToken.balanceOf(address(this));\n    require( balance >= 250000*1000000 + fundingPool, 'contract does not have matching pool');\n    cancelled = true;\n    uint projectContribution = (matchingPool)/5 + baseline;\n    for (uint i = 0; i < 5; i++) {\n      usdcToken.transfer(projects[projectIds[i]], projectContribution);\n    }\n  }\n\n}\n",
  "sourcePath": "/Users/gg576gl/Desktop/projects/Climate-DAO/contracts/ClimateDAO.sol",
  "compiler": {
    "name": "solc",
    "version": "0.8.7+commit.e28d00a7.Emscripten.clang"
  },
  "schemaVersion": "3.4.3",
  "updatedAt": "2022-03-13T09:39:09.731Z",
  "devdoc": {
    "kind": "dev",
    "methods": {
      "cancel()": {
        "details": "This is called by owner to cancel contract if we do NOT need to transfer matchingPool + baseline funds to projects That is if we have yet to transfer matching pool + baseline  to this contract. Matching pool + baseline = 250000*1000000 Owner should not be able to cancel post distribution"
      },
      "cancelAndTransfer()": {
        "details": "This is called by owner to cancel contract if matchingPool + baseline is yet to be transfered to projects Upon calling cancelAndTransfer, each project will get their portion of funding from matchingPool + baseline. Contributions from users will not be transfered to projects in case of cancellation. Contributors will be able to withdraw their contributions if contract has been cancelled."
      },
      "constructor": {
        "params": {
          "USDCAddress": "- address of USDC contract",
          "_baseline": "- amount of USDC in baseline (decimals = 6)",
          "_matchingPool": "- amount of USDC in matching pool (decimals = 6)",
          "_projects": "- project info",
          "_startTime": "- time of voting start",
          "_verifyingKey": "- vk for zkp"
        }
      },
      "contributeSigned(address,address,uint256,uint256,uint256,bytes32,(uint8,bytes32,bytes32),(uint8,bytes32,bytes32))": {
        "details": "The usdc transfer is performed here to keep track of contributions. Contributers will be able to withdraw their contribution if voting has been cancelled. Since kyc is performed offchain, this method can be called only with owner's authorization. Transactions are relayed using a relayer, so msg.sender cannot be used to verify ownership. Hence we use owners singature to prove owner has authorized to perform this transaction. The below 7 params are arguments for USDC's receiveWithAuthorization. https://github.com/centrehq/centre-tokens/blob/0d3cab14ebd133a83fc834dbd48d0468bdf0b391/contracts/v2/FiatTokenV2.sol#L137",
        "params": {
          "RWASig": "ReceiveWithAuthorization digital signature [ v, r, s]",
          "from": "Payer's address (Authorizer)",
          "nonce": "Unique nonce",
          "ownerSig": "Owner's Sigature. Used to verify owner's authorization to perform this transaction.",
          "to": "Payee's address",
          "validAfter": "The time after which this is valid (unix time)",
          "validBefore": "The time before which this is valid (unix time)",
          "value": "Amount to be transferred"
        }
      },
      "getContributionOf(address)": {
        "params": {
          "user": "Contributor address"
        }
      },
      "registerVerificationKey(uint256[])": {
        "params": {
          "_verifyingKey": "- vk"
        }
      },
      "updateEndDate(uint256)": {
        "params": {
          "newEndTime": "end time"
        }
      },
      "updateProject(uint8,address)": {
        "params": {
          "id": "Project id",
          "newAddress": "Project address"
        }
      },
      "updateStartDate(uint256)": {
        "params": {
          "newStartTime": "start time"
        }
      },
      "updateUSDC(address)": {
        "params": {
          "newAddress": "USDC address"
        }
      },
      "verifyThenDistribute(uint256[],(uint8,uint64,uint64)[],bytes32[10],bytes32[10],bytes32)": {
        "details": "This is called by the owner to begin the process of distributing funds to projects. We distribute user funding and calculated matched funds.",
        "params": {
          "encPublicKey": "- auth public key for encryption",
          "fundingTallyEnc": "- encrypted funding from users",
          "projectsToFund": "- amount of funding and votes per project",
          "proof": "- proof of correct decryption of tally",
          "voteTallyEnc": "- encrypted tally of votes"
        }
      },
      "withdrawContribution()": {
        "details": "Up on cancellation, contributors can withdraw their contributions Contributors cannot call this function post distribution"
      }
    },
    "version": 1
  },
  "userdoc": {
    "kind": "user",
    "methods": {
      "cancel()": {
        "notice": "Cancel contract"
      },
      "cancelAndTransfer()": {
        "notice": "Cancel contract and distribute matchingPool + baseline"
      },
      "constructor": {
        "notice": "constructor"
      },
      "contributeSigned(address,address,uint256,uint256,uint256,bytes32,(uint8,bytes32,bytes32),(uint8,bytes32,bytes32))": {
        "notice": "Execute usdc transfer with a signed transaction."
      },
      "getContributionOf(address)": {
        "notice": "Get contribution of an user"
      },
      "getTotalContributions()": {
        "notice": "Get all contributions by users"
      },
      "getUSDCBalance(address)": {
        "notice": "Get USDC balance of addr"
      },
      "registerVerificationKey(uint256[])": {
        "notice": "Update vk for project circuit"
      },
      "updateEndDate(uint256)": {
        "notice": "Update end time"
      },
      "updateProject(uint8,address)": {
        "notice": "Update address of project"
      },
      "updateStartDate(uint256)": {
        "notice": "Update start time"
      },
      "updateUSDC(address)": {
        "notice": "Update address of USDC token contract"
      },
      "verifyThenDistribute(uint256[],(uint8,uint64,uint64)[],bytes32[10],bytes32[10],bytes32)": {
        "notice": "Execute quadratic funding"
      },
      "withdrawContribution()": {
        "notice": "Withdraw contribution if contract has been cancelled."
      }
    },
    "version": 1
  }
}