{
  "contractName": "Climate",
  "abi": [
    {
      "inputs": [
        {
          "components": [
            {
              "internalType": "uint8",
              "name": "id",
              "type": "uint8"
            },
            {
              "internalType": "address",
              "name": "wallet",
              "type": "address"
            }
          ],
          "internalType": "struct Climate.Project[]",
          "name": "_projects",
          "type": "tuple[]"
        },
        {
          "internalType": "uint256[]",
          "name": "_verifyingKey",
          "type": "uint256[]"
        },
        {
          "internalType": "uint256",
          "name": "_startTime",
          "type": "uint256"
        },
        {
          "internalType": "address",
          "name": "USDCAddress",
          "type": "address"
        },
        {
          "internalType": "uint256",
          "name": "_matchingPool",
          "type": "uint256"
        },
        {
          "internalType": "uint256",
          "name": "_baseline",
          "type": "uint256"
        }
      ],
      "stateMutability": "nonpayable",
      "type": "constructor"
    },
    {
      "anonymous": false,
      "inputs": [
        {
          "indexed": true,
          "internalType": "address",
          "name": "_from",
          "type": "address"
        },
        {
          "indexed": false,
          "internalType": "uint256",
          "name": "value",
          "type": "uint256"
        }
      ],
      "name": "Contribute",
      "type": "event"
    },
    {
      "anonymous": false,
      "inputs": [
        {
          "indexed": false,
          "internalType": "address",
          "name": "wallet",
          "type": "address"
        },
        {
          "indexed": false,
          "internalType": "uint256",
          "name": "id",
          "type": "uint256"
        },
        {
          "indexed": false,
          "internalType": "uint256",
          "name": "funded",
          "type": "uint256"
        },
        {
          "indexed": false,
          "internalType": "uint256",
          "name": "matched",
          "type": "uint256"
        },
        {
          "indexed": false,
          "internalType": "uint256",
          "name": "total",
          "type": "uint256"
        }
      ],
      "name": "Distribute",
      "type": "event"
    },
    {
      "anonymous": false,
      "inputs": [
        {
          "indexed": true,
          "internalType": "address",
          "name": "_contributer",
          "type": "address"
        },
        {
          "indexed": false,
          "internalType": "uint256",
          "name": "amount",
          "type": "uint256"
        }
      ],
      "name": "Withdraw",
      "type": "event"
    },
    {
      "inputs": [],
      "name": "baseline",
      "outputs": [
        {
          "internalType": "uint256",
          "name": "",
          "type": "uint256"
        }
      ],
      "stateMutability": "view",
      "type": "function"
    },
    {
      "inputs": [],
      "name": "cancelled",
      "outputs": [
        {
          "internalType": "bool",
          "name": "",
          "type": "bool"
        }
      ],
      "stateMutability": "view",
      "type": "function"
    },
    {
      "inputs": [
        {
          "internalType": "address",
          "name": "",
          "type": "address"
        }
      ],
      "name": "contributors",
      "outputs": [
        {
          "internalType": "uint256",
          "name": "",
          "type": "uint256"
        }
      ],
      "stateMutability": "view",
      "type": "function"
    },
    {
      "inputs": [],
      "name": "endTime",
      "outputs": [
        {
          "internalType": "uint256",
          "name": "",
          "type": "uint256"
        }
      ],
      "stateMutability": "view",
      "type": "function"
    },
    {
      "inputs": [],
      "name": "fundingPool",
      "outputs": [
        {
          "internalType": "uint256",
          "name": "",
          "type": "uint256"
        }
      ],
      "stateMutability": "view",
      "type": "function"
    },
    {
      "inputs": [],
      "name": "matchingPool",
      "outputs": [
        {
          "internalType": "uint256",
          "name": "",
          "type": "uint256"
        }
      ],
      "stateMutability": "view",
      "type": "function"
    },
    {
      "inputs": [],
      "name": "owner",
      "outputs": [
        {
          "internalType": "address",
          "name": "",
          "type": "address"
        }
      ],
      "stateMutability": "view",
      "type": "function"
    },
    {
      "inputs": [
        {
          "internalType": "uint8",
          "name": "",
          "type": "uint8"
        }
      ],
      "name": "projects",
      "outputs": [
        {
          "internalType": "address",
          "name": "",
          "type": "address"
        }
      ],
      "stateMutability": "view",
      "type": "function"
    },
    {
      "inputs": [],
      "name": "startTime",
      "outputs": [
        {
          "internalType": "uint256",
          "name": "",
          "type": "uint256"
        }
      ],
      "stateMutability": "view",
      "type": "function"
    },
    {
      "inputs": [
        {
          "internalType": "address",
          "name": "newOwner",
          "type": "address"
        }
      ],
      "name": "transferOwnerShip",
      "outputs": [],
      "stateMutability": "nonpayable",
      "type": "function"
    },
    {
      "inputs": [],
      "name": "usdcToken",
      "outputs": [
        {
          "internalType": "contract IUSDC",
          "name": "",
          "type": "address"
        }
      ],
      "stateMutability": "view",
      "type": "function"
    },
    {
      "inputs": [
        {
          "internalType": "uint256",
          "name": "",
          "type": "uint256"
        }
      ],
      "name": "verifyingKey",
      "outputs": [
        {
          "internalType": "uint256",
          "name": "",
          "type": "uint256"
        }
      ],
      "stateMutability": "view",
      "type": "function"
    },
    {
      "inputs": [
        {
          "internalType": "uint8",
          "name": "id",
          "type": "uint8"
        },
        {
          "internalType": "address",
          "name": "newAddress",
          "type": "address"
        }
      ],
      "name": "updateProject",
      "outputs": [],
      "stateMutability": "nonpayable",
      "type": "function"
    },
    {
      "inputs": [
        {
          "internalType": "address",
          "name": "newAddress",
          "type": "address"
        }
      ],
      "name": "updateUSDC",
      "outputs": [],
      "stateMutability": "nonpayable",
      "type": "function"
    },
    {
      "inputs": [
        {
          "internalType": "uint256",
          "name": "newEndTime",
          "type": "uint256"
        }
      ],
      "name": "updateEndDate",
      "outputs": [],
      "stateMutability": "nonpayable",
      "type": "function"
    },
    {
      "inputs": [
        {
          "internalType": "uint256[]",
          "name": "_verifyingKey",
          "type": "uint256[]"
        }
      ],
      "name": "registerVerificationKey",
      "outputs": [],
      "stateMutability": "nonpayable",
      "type": "function"
    },
    {
      "inputs": [
        {
          "internalType": "address",
          "name": "user",
          "type": "address"
        }
      ],
      "name": "getContributionOf",
      "outputs": [
        {
          "internalType": "uint256",
          "name": "",
          "type": "uint256"
        }
      ],
      "stateMutability": "view",
      "type": "function"
    },
    {
      "inputs": [],
      "name": "getTotalContributions",
      "outputs": [
        {
          "internalType": "uint256",
          "name": "",
          "type": "uint256"
        }
      ],
      "stateMutability": "view",
      "type": "function"
    },
    {
      "inputs": [
        {
          "internalType": "address",
          "name": "ad",
          "type": "address"
        }
      ],
      "name": "getUSDCBalance",
      "outputs": [
        {
          "internalType": "uint256",
          "name": "",
          "type": "uint256"
        }
      ],
      "stateMutability": "view",
      "type": "function"
    },
    {
      "inputs": [
        {
          "internalType": "bytes32",
          "name": "publicInputHash",
          "type": "bytes32"
        },
        {
          "internalType": "uint256[]",
          "name": "proof",
          "type": "uint256[]"
        },
        {
          "components": [
            {
              "internalType": "uint8",
              "name": "id",
              "type": "uint8"
            },
            {
              "internalType": "uint64",
              "name": "tally",
              "type": "uint64"
            },
            {
              "internalType": "uint64",
              "name": "funding",
              "type": "uint64"
            }
          ],
          "internalType": "struct Climate.ProjectDistribution[]",
          "name": "projectsToFund",
          "type": "tuple[]"
        },
        {
          "internalType": "bytes32[10]",
          "name": "voteTallyEnc",
          "type": "bytes32[10]"
        },
        {
          "internalType": "bytes32[10]",
          "name": "fundingTallyEnc",
          "type": "bytes32[10]"
        },
        {
          "internalType": "bytes32",
          "name": "encPublicKey",
          "type": "bytes32"
        }
      ],
      "name": "verifyThenDistribute",
      "outputs": [],
      "stateMutability": "nonpayable",
      "type": "function"
    },
    {
      "inputs": [
        {
          "internalType": "address",
          "name": "from",
          "type": "address"
        },
        {
          "internalType": "address",
          "name": "to",
          "type": "address"
        },
        {
          "internalType": "uint256",
          "name": "value",
          "type": "uint256"
        },
        {
          "internalType": "uint256",
          "name": "validAfter",
          "type": "uint256"
        },
        {
          "internalType": "uint256",
          "name": "validBefore",
          "type": "uint256"
        },
        {
          "internalType": "bytes32",
          "name": "nonce",
          "type": "bytes32"
        },
        {
          "components": [
            {
              "internalType": "uint8",
              "name": "v",
              "type": "uint8"
            },
            {
              "internalType": "bytes32",
              "name": "r",
              "type": "bytes32"
            },
            {
              "internalType": "bytes32",
              "name": "s",
              "type": "bytes32"
            }
          ],
          "internalType": "struct Climate.Signature",
          "name": "RWASig",
          "type": "tuple"
        },
        {
          "components": [
            {
              "internalType": "uint8",
              "name": "v",
              "type": "uint8"
            },
            {
              "internalType": "bytes32",
              "name": "r",
              "type": "bytes32"
            },
            {
              "internalType": "bytes32",
              "name": "s",
              "type": "bytes32"
            }
          ],
          "internalType": "struct Climate.Signature",
          "name": "ownerSig",
          "type": "tuple"
        }
      ],
      "name": "contributeSigned",
      "outputs": [],
      "stateMutability": "nonpayable",
      "type": "function"
    },
    {
      "inputs": [],
      "name": "withdrawContribution",
      "outputs": [],
      "stateMutability": "nonpayable",
      "type": "function"
    },
    {
      "inputs": [],
      "name": "cancel",
      "outputs": [],
      "stateMutability": "nonpayable",
      "type": "function"
    },
    {
      "inputs": [],
      "name": "cancelAndTransfer",
      "outputs": [],
      "stateMutability": "nonpayable",
      "type": "function"
    }
  ],
  "bytecode": "0x60806040523480156200001157600080fd5b5060405162003f8538038062003f858339810160408190526200003491620002c0565b6200004833640100000000620001a3810204565b60048490556200005c846201518062000488565b60055560005b60058110156200015857868181518110620000815762000081620004f0565b60200260200101516020015160016000898481518110620000a657620000a6620004f0565b60200260200101516000015160ff1660ff16815260200190815260200160002060006101000a815481600160a060020a030219169083600160a060020a031602179055506002878281518110620001015762000101620004f0565b602090810291909101810151518254600181018455600093845292829020918304909101805460ff928316601f9094166101000a9384029290930219909216179055806200014f81620004a3565b91505062000062565b506007805461010060a860020a031916610100600160a060020a0386160217905584516200018e906006906020880190620001c5565b50600a91909155600b55506200054e92505050565b60008054600160a060020a031916600160a060020a0392909216919091179055565b82805482825590600052602060002090810192821562000203579160200282015b8281111562000203578251825591602001919060010190620001e6565b506200021192915062000215565b5090565b5b8082111562000211576000815560010162000216565b8051600160a060020a03811681146200024457600080fd5b919050565b600082601f8301126200025b57600080fd5b81516020620002746200026e8362000462565b6200042f565b82815281810190858301838502870184018810156200029257600080fd5b60005b85811015620002b35781518452928401929084019060010162000295565b5090979650505050505050565b60008060008060008060c08789031215620002da57600080fd5b86516001604060020a0380821115620002f257600080fd5b818901915089601f8301126200030757600080fd5b8151620003186200026e8262000462565b80828252602082019150602085018d60206040860288010111156200033c57600080fd5b600095505b83861015620003a8576040818f0312156200035b57600080fd5b6200036562000404565b815160ff811681146200037757600080fd5b815262000387602083016200022c565b60208201528084525060208301925060408101905060018601955062000341565b5060208c0151909a509350505080821115620003c357600080fd5b50620003d289828a0162000249565b95505060408701519350620003ea606088016200022c565b92506080870151915060a087015190509295509295509295565b604080519081016001604060020a03811182821017156200042957620004296200051f565b60405290565b604051601f8201601f191681016001604060020a03811182821017156200045a576200045a6200051f565b604052919050565b60006001604060020a038211156200047e576200047e6200051f565b5060209081020190565b600082198211156200049e576200049e620004c1565b500190565b6000600019821415620004ba57620004ba620004c1565b5060010190565b7f4e487b7100000000000000000000000000000000000000000000000000000000600052601160045260246000fd5b7f4e487b7100000000000000000000000000000000000000000000000000000000600052603260045260246000fd5b7f4e487b7100000000000000000000000000000000000000000000000000000000600052604160045260246000fd5b613a27806200055e6000396000f3fe608060405234801561001057600080fd5b50600436106101b5576000357c0100000000000000000000000000000000000000000000000000000000900480638b4e8ade11610100578063ddf556d0116100a9578063ef2bbbdf11610083578063ef2bbbdf14610368578063f6a1fe941461037b578063fa866ffa1461038457600080fd5b8063ddf556d01461032f578063e14ed04514610337578063ea8a1af01461036057600080fd5b80639a82a09a116100da5780639a82a09a14610300578063aacef18b1461031d578063ab2637af1461032657600080fd5b80638b4e8ade146102c95780638da5cb5b146102dc578063910c6855146102ed57600080fd5b8063489c005411610162578063680247171161013c578063680247171461029a57806378e97925146102ad5780638863dd1a146102b657600080fd5b8063489c00541461024b57806351844abf1461025e5780635fa0898d1461027157600080fd5b8063201590011161019357806320159001146102275780633197cbb61461023a5780633dbd8f171461024357600080fd5b80630d616d20146101ba57806311eac855146101c45780631f6d4942146101f9575b600080fd5b6101c2610397565b005b6007546101dc906101009004600160a060020a031681565b604051600160a060020a0390911681526020015b60405180910390f35b6102196102073660046133c5565b60036020526000908152604090205481565b6040519081526020016101f0565b61021961023536600461361e565b610542565b61021960055481565b6101c2610563565b6101c26102593660046133e0565b610752565b6101c261026c366004613545565b610a4e565b6101dc61027f366004613661565b600160205260009081526040902054600160a060020a031681565b6102196102a83660046133c5565b610c3b565b61021960045481565b6101c26102c43660046133c5565b610cdd565b6101c26102d736600461345e565b610dac565b600054600160a060020a03166101dc565b6101c26102fb3660046133c5565b610e0a565b60075461030d9060ff1681565b60405190151581526020016101f0565b610219600a5481565b610219600b5481565b600954610219565b6102196103453660046133c5565b600160a060020a031660009081526003602052604090205490565b6101c2610e8a565b6101c261037636600461361e565b610f3a565b61021960095481565b6101c261039236600461367c565b610fdd565b60075460ff166103f15760405160e560020a62461bcd02815260206004820152600d60248201527f4e6f742063616e63656c6c65640000000000000000000000000000000000000060448201526064015b60405180910390fd5b33600090815260036020526040902054806104515760405160e560020a62461bcd02815260206004820152600a60248201527f6e6f2062616c616e63650000000000000000000000000000000000000000000060448201526064016103e8565b3360008181526003602052604080822091909155517f884edad9ce6fa2440d8a54cc123490eb96d2768479d49ff9c7366125a9424364906104959084815260200190565b60405180910390a26007546040517fa9059cbb00000000000000000000000000000000000000000000000000000000815233600482015260248101839052610100909104600160a060020a03169063a9059cbb90604401602060405180830381600087803b15801561050657600080fd5b505af115801561051a573d6000803e3d6000fd5b505050506040513d601f19601f8201168201806040525081019061053e919061350a565b5050565b6006818154811061055257600080fd5b600091825260209091200154905081565b600054600160a060020a031633146105ae5760405160e560020a62461bcd02815260206004820152601360248201526000805160206139d283398151915260448201526064016103e8565b60075460ff16156106045760405160e560020a62461bcd02815260206004820152600960248201527f63616e63656c6c6564000000000000000000000000000000000000000000000060448201526064016103e8565b6007805460ff19166001179055600b54600a54600091906106279060059061375c565b6106319190613744565b905060005b600581101561053e57600760019054906101000a9004600160a060020a0316600160a060020a031663a9059cbb600160006002858154811061067a5761067a613953565b600091825260208083208183040154601f9092166101000a90910460ff168352820192909252604090810190912054905163ffffffff83167c0100000000000000000000000000000000000000000000000000000000028152600160a060020a03909116600482015260248101859052604401602060405180830381600087803b15801561070757600080fd5b505af115801561071b573d6000803e3d6000fd5b505050506040513d601f19601f8201168201806040525081019061073f919061350a565b508061074a81613897565b915050610636565b60075460ff16156107a85760405160e560020a62461bcd02815260206004820152600960248201527f63616e63656c6c6564000000000000000000000000000000000000000000000060448201526064016103e8565b4260045411156107fd5760405160e560020a62461bcd02815260206004820152601260248201527f766f74696e67206e6f742073746172746564000000000000000000000000000060448201526064016103e8565b4260055410156108525760405160e560020a62461bcd02815260206004820152601060248201527f766f74696e672068617320656e6465640000000000000000000000000000000060448201526064016103e8565b6404a817c8008611156108d05760405160e560020a62461bcd02815260206004820152602e60248201527f436f6e747269627574696f6e73206d6179206e6f74206265206f76657220243260448201527f302c30303020706572207573657200000000000000000000000000000000000060648201526084016103e8565b64ae9f7bcc00866009546108e49190613744565b111561095b5760405160e560020a62461bcd02815260206004820152603060248201527f57652068617665207265616368656420746865206c696d6974206f662075736560448201527f7220636f6e747269627574696f6e73210000000000000000000000000000000060648201526084016103e8565b6040516c010000000000000000000000003081026020830152600160a060020a038a1602603482015260488101879052606881018490526000906088016040516020818303038152906040528051906020012090506000816040516020016109ef91907f19457468657265756d205369676e6564204d6573736167653a0a3332000000008152601c810191909152603c0190565b6040516020818303038152906040528051906020012090506000610a21846000015185602001518660400151856110c1565b9050610a418b8b8b8b8b8b8b600001518c602001518d604001518a61112c565b5050505050505050505050565b600054600160a060020a03163314610a995760405160e560020a62461bcd02815260206004820152601360248201526000805160206139d283398151915260448201526064016103e8565b426005541115610aee5760405160e560020a62461bcd02815260206004820152601160248201527f766f74696e67207374696c6c206f70656e00000000000000000000000000000060448201526064016103e8565b610af66130a4565b610afe6130a4565b60005b6005811015610c1457878782818110610b1c57610b1c613953565b9050606002016020016020810190610b349190613637565b780100000000000000000000000000000000000000000000000002838260058110610b6157610b61613953565b77ffffffffffffffffffffffffffffffffffffffffffffffff199092166020929092020152878782818110610b9857610b98613953565b9050606002016040016020810190610bb09190613637565b780100000000000000000000000000000000000000000000000002828260058110610bdd57610bdd613953565b77ffffffffffffffffffffffffffffffffffffffffffffffff19909216602092909202015280610c0c81613897565b915050610b01565b50610c258a8a8a888689878a611343565b610c2f87876116c1565b50505050505050505050565b6007546040517f70a08231000000000000000000000000000000000000000000000000000000008152600160a060020a038381166004830152600092610100900416906370a082319060240160206040518083038186803b158015610c9f57600080fd5b505afa158015610cb3573d6000803e3d6000fd5b505050506040513d601f19601f82011682018060405250810190610cd7919061352c565b92915050565b600054600160a060020a03163314610d285760405160e560020a62461bcd02815260206004820152601360248201526000805160206139d283398151915260448201526064016103e8565b600160a060020a038116610d815760405160e560020a62461bcd02815260206004820152601960248201527f4e6577206f776e6572206973207a65726f20616464726573730000000000000060448201526064016103e8565b6000805473ffffffffffffffffffffffffffffffffffffffff1916600160a060020a03831617905550565b600054600160a060020a03163314610df75760405160e560020a62461bcd02815260206004820152601360248201526000805160206139d283398151915260448201526064016103e8565b805161053e9060069060208401906130c2565b600054600160a060020a03163314610e555760405160e560020a62461bcd02815260206004820152601360248201526000805160206139d283398151915260448201526064016103e8565b60078054600160a060020a039092166101000274ffffffffffffffffffffffffffffffffffffffff0019909216919091179055565b600054600160a060020a03163314610ed55760405160e560020a62461bcd02815260206004820152601360248201526000805160206139d283398151915260448201526064016103e8565b60075460ff1615610f2b5760405160e560020a62461bcd02815260206004820152600960248201527f63616e63656c6c6564000000000000000000000000000000000000000000000060448201526064016103e8565b6007805460ff19166001179055565b600054600160a060020a03163314610f855760405160e560020a62461bcd02815260206004820152601360248201526000805160206139d283398151915260448201526064016103e8565b42811015610fd85760405160e560020a62461bcd02815260206004820152601960248201527f6e657720656e642074696d6520696e207468652070617374210000000000000060448201526064016103e8565b600555565b600054600160a060020a031633146110285760405160e560020a62461bcd02815260206004820152601360248201526000805160206139d283398151915260448201526064016103e8565b600160a060020a0381166110815760405160e560020a62461bcd02815260206004820152600c60248201527f5a65726f2061646472657373000000000000000000000000000000000000000060448201526064016103e8565b60ff919091166000908152600160205260409020805473ffffffffffffffffffffffffffffffffffffffff1916600160a060020a03909216919091179055565b6040805160008082526020820180845284905260ff8716928201929092526060810185905260808101849052819060019060a0016020604051602081039080840390855afa158015611117573d6000803e3d6000fd5b5050604051601f190151979650505050505050565b8061113f600054600160a060020a031690565b600160a060020a031681600160a060020a0316146111a25760405160e560020a62461bcd02815260206004820152601360248201527f4e6f74207369676e6564206279206f776e65720000000000000000000000000060448201526064016103e8565b6007546040517fef55bec6000000000000000000000000000000000000000000000000000000008152600160a060020a038d811660048301528c81166024830152604482018c9052606482018b9052608482018a905260a4820189905260ff881660c483015260e4820187905261010482018690526101009092049091169063ef55bec69061012401600060405180830381600087803b15801561124557600080fd5b505af1158015611259573d6000803e3d6000fd5b50505050600160a060020a038b16600090815260036020526040902054156112c65760405160e560020a62461bcd02815260206004820152601760248201527f557365722068617320616c726561647920766f7465642100000000000000000060448201526064016103e8565b600160a060020a038b1660009081526003602052604081208a9055600980548b92906112f3908490613744565b9091555050604051898152600160a060020a038c16907f906faaf913a60f38b5e8f2d6f5b163239bac2d994fa1a5d21751a51587a940579060200160405180910390a25050505050505050505050565b60006002868560405160200161135a9291906136af565b60408051601f1981840301815290829052611374916136d8565b602060405180830381855afa158015611391573d6000803e3d6000fd5b5050506040513d601f19601f820116820180604052508101906113b4919061352c565b7effffffffffffffffffffffffffffffffffffffffffffffffffffffffffffff1690506000600282848884602002015189600160200201518a600260200201518b600360200201518c600460200201518b600060200201518c600160200201518d600260200201518e600360200201518f600460200201516040516020016114b79c9b9a999897969594939291909b8c5260208c019a909a5277ffffffffffffffffffffffffffffffffffffffffffffffff1998891660408c015296881660488b015294871660508a0152928616605889015290851660608801528416606887015283166070860152821660788501528116608084015216608882015260900190565b60408051601f19818403018152908290526114d1916136d8565b602060405180830381855afa1580156114ee573d6000803e3d6000fd5b5050506040513d601f19601f82011682018060405250810190611511919061352c565b90507effffffffffffffffffffffffffffffffffffffffffffffffffffffffffffff81168a146115ac5760405160e560020a62461bcd02815260206004820152602760248201527f5075626c696320696e7075747320686173682063616e6e6f742062652072656360448201527f6f6e63696c65640000000000000000000000000000000000000000000000000060648201526084016103e8565b61164c898980806020026020016040519081016040528093929190818152602001838360200280828437600081840152601f19601f820116905080830192505050505050508b60019004600680548060200260200160405190810160405280929190818152602001828054801561164257602002820191906000526020600020905b81548152602001906001019080831161162e575b5050505050611ab4565b610c2f5760405160e560020a62461bcd02815260206004820152602e60248201527f546869732070726f6f6620616e642f6f7220696e70757473206170706561727360448201527f20746f20626520696e76616c696400000000000000000000000000000000000060648201526084016103e8565b6000805b600581101561172c5760028484838181106116e2576116e2613953565b90506060020160200160208101906116fa9190613637565b67ffffffffffffffff1661170e91906137b5565b6117189083613744565b91508061172481613897565b9150506116c5565b5060005b6005811015611a3357600082600286868581811061175057611750613953565b90506060020160200160208101906117689190613637565b67ffffffffffffffff1661177c91906137b5565b600a546117899190613861565b611793919061375c565b90506000600b54828787868181106117ad576117ad613953565b90506060020160400160208101906117c59190613637565b67ffffffffffffffff166117d99190613744565b6117e39190613744565b6007549091506101009004600160a060020a031663a9059cbb6001600089898881811061181257611812613953565b6118289260206060909202019081019150613661565b60ff1681526020810191909152604090810160002054905163ffffffff83167c0100000000000000000000000000000000000000000000000000000000028152600160a060020a03909116600482015260248101849052604401602060405180830381600087803b15801561189c57600080fd5b505af11580156118b0573d6000803e3d6000fd5b505050506040513d601f19601f820116820180604052508101906118d4919061350a565b508585848181106118e7576118e7613953565b90506060020160400160208101906118ff9190613637565b67ffffffffffffffff166009600082825461191a9190613880565b909155507fb8ef3e45a8d1a6548e71d30766619265fa47a1bb5662acf45bc40d7f6b5d818090506001600088888781811061195757611957613953565b61196d9260206060909202019081019150613661565b60ff168152602081019190915260400160002054600160a060020a031687878681811061199c5761199c613953565b6119b29260206060909202019081019150613661565b8888878181106119c4576119c4613953565b90506060020160400160208101906119dc9190613637565b60408051600160a060020a03909416845260ff909216602084015267ffffffffffffffff1690820152606081018490526080810183905260a00160405180910390a150508080611a2b90613897565b915050611730565b50600160095410611aaf5760405160e560020a62461bcd02815260206004820152603060248201527f536f6d65207573657220636f6e747269627574696f6e7320686176656e74206260448201527f65656e207472616e73666572726564210000000000000000000000000000000060648201526084016103e8565b505050565b6000611ac1848484611ad8565b611acd57506001611ad1565b5060005b9392505050565b6000611ae261310d565b6040805180820190915260008082526020820152611afe61315e565b60405180604001604052806000815260200160008152509150604051806040016040528088600081518110611b3557611b35613953565b6020026020010151815260200188600181518110611b5557611b55613953565b60200260200101518152508360000181905250604051806040016040528060405180604001604052808a600281518110611b9157611b91613953565b602002602001015181526020018a600381518110611bb157611bb1613953565b6020026020010151815250815260200160405180604001604052808a600481518110611bdf57611bdf613953565b602002602001015181526020018a600581518110611bff57611bff613953565b60200260200101518152508152508360200181905250604051806040016040528088600681518110611c3357611c33613953565b6020026020010151815260200188600781518110611c5357611c53613953565b602002602001015181525083604001819052506040518060400160405280604051806040016040528088600081518110611c8f57611c8f613953565b6020026020010151815260200188600181518110611caf57611caf613953565b60200260200101518152508152602001604051806040016040528088600281518110611cdd57611cdd613953565b6020026020010151815260200188600381518110611cfd57611cfd613953565b60200260200101518152508152508160000181905250604051806040016040528086600481518110611d3157611d31613953565b6020026020010151815260200186600581518110611d5157611d51613953565b602002602001015181525081602001819052506040518060400160405280604051806040016040528088600681518110611d8d57611d8d613953565b6020026020010151815260200188600781518110611dad57611dad613953565b60200260200101518152508152602001604051806040016040528088600881518110611ddb57611ddb613953565b6020026020010151815260200188600981518110611dfb57611dfb613953565b60200260200101518152508152508160400181905250604051806040016040528086600a81518110611e2f57611e2f613953565b6020026020010151815260200186600b81518110611e4f57611e4f613953565b602002602001015181525081606001819052506040518060400160405280604051806040016040528088600c81518110611e8b57611e8b613953565b6020026020010151815260200188600d81518110611eab57611eab613953565b60200260200101518152508152602001604051806040016040528088600e81518110611ed957611ed9613953565b6020026020010151815260200188600f81518110611ef957611ef9613953565b6020908102919091010151905290526080820152600060105b8651811015611fa7576040518060400160405280888381518110611f3857611f38613953565b6020026020010151815260200188836001611f539190613744565b81518110611f6357611f63613953565b60200260200101518152508360a001518380611f7e90613897565b945060028110611f9057611f90613953565b6020020152611fa0600282613744565b9050611f12565b506040805180820190915260008082526020820152600080611fe48560a00151600160028110611fd957611fd9613953565b60200201518b612162565b9093509150611ff386846121be565b9096509050811580612003575080155b15612018576002975050505050505050611ad1565b5050506000612042848460a0015160006002811061203857612038613953565b60200201516121be565b90945090508061205a57600395505050505050611ad1565b5060408051808201909152600080825260208201526000806000612086886000015187602001516121be565b9094509050806120a157600498505050505050505050611ad1565b506120df856020015186604001518888608001518b604001518a600001516120c88a612219565b6120da8f602001518e604001516122a6565b6122fe565b90925090508115806120ef575080155b15612104576005975050505050505050611ad1565b50505060008061212e866000015185608001516121248760600151612219565b896020015161248e565b909250905081158061213e575080155b156121525760069650505050505050611ad1565b5060009998505050505050505050565b604080518082019091526000808252602082015260006121806131dc565b845181526020808601519082015260408101849052606083608083600060076107d05a03f191508180156121b3576121b5565bfe5b50509250929050565b604080518082019091526000808252602082015260006121dc6131fa565b8451815260208086015181830152845160408301528401516060808301919091528360c083600060066107d05a03f191508180156121b3576121b5565b604080518082019091526000808252602082015281516000805160206139b28339815191529015801561224e57506020830151155b1561226e5750506040805180820190915260008082526020820152919050565b60405180604001604052808460000151815260200182856020015161229391906138b2565b61229d9084613880565b90529392505050565b6122ae613218565b825180516020918201518286015180519084015186518051908601518887015180519701516122dd979061259e565b84516020808701518082019390935292909152908101919091525292915050565b60408051600480825260a0820190925260009182918291816020015b604080518082019091526000808252602082015281526020019060019003908161231a57505060408051600480825260a0820190925291925060009190602082015b612364613218565b81526020019060019003908161235c5790505090508b8260008151811061238d5761238d613953565b602002602001018190525089826001815181106123ac576123ac613953565b602002602001018190525087826002815181106123cb576123cb613953565b602002602001018190525085826003815181106123ea576123ea613953565b60200260200101819052508a8160008151811061240957612409613953565b6020026020010181905250888160018151811061242857612428613953565b6020026020010181905250868160028151811061244757612447613953565b6020026020010181905250848160038151811061246657612466613953565b602002602001018190525061247b82826126eb565b9350935050509850989650505050505050565b6040805160028082526060820190925260009182918291816020015b60408051808201909152600080825260208201528152602001906001900390816124aa5750506040805160028082526060820190925291925060009190602082015b6124f4613218565b8152602001906001900390816124ec579050509050878260008151811061251d5761251d613953565b6020026020010181905250858260018151811061253c5761253c613953565b6020026020010181905250868160008151811061255b5761255b613953565b6020026020010181905250848160018151811061257a5761257a613953565b602002602001018190525061258f82826126eb565b93509350505094509492505050565b60008080808b1580156125af57508a155b80156125b9575089155b80156125c3575088155b1561261457871580156125d4575086155b80156125de575085155b80156125e8575084155b612604576125f8888888886129b4565b612604576126046138c6565b50869250859150849050836126dc565b87158015612620575086155b801561262a575085155b8015612634575084155b15612661576126458c8c8c8c6129b4565b612651576126516138c6565b508a9250899150889050876126dc565b61266d8c8c8c8c6129b4565b612679576126796138c6565b612685888888886129b4565b612691576126916138c6565b60006126ab8d8d8d8d600160008f8f8f8f60016000612a69565b8051602082015160408301516060840151608085015160a08601519596506126d295612cf2565b9450945094509450505b98509850985098945050505050565b81516000908190816126fe826006613861565b905060008167ffffffffffffffff81111561271b5761271b613982565b604051908082528060200260200182016040528015612744578160200160208202803683370190505b50905060005b8381101561297f5787818151811061276457612764613953565b6020026020010151600001518282600661277e9190613861565b612789906000613744565b8151811061279957612799613953565b6020026020010181815250508781815181106127b7576127b7613953565b602002602001015160200151828260066127d19190613861565b6127dc906001613744565b815181106127ec576127ec613953565b60200260200101818152505086818151811061280a5761280a613953565b60209081029190910181015151015182612825836006613861565b612830906002613744565b8151811061284057612840613953565b60200260200101818152505086818151811061285e5761285e613953565b6020908102919091010151515182612877836006613861565b612882906003613744565b8151811061289257612892613953565b6020026020010181815250508681815181106128b0576128b0613953565b6020026020010151602001516001600281106128ce576128ce613953565b6020020151826128df836006613861565b6128ea906004613744565b815181106128fa576128fa613953565b60200260200101818152505086818151811061291857612918613953565b60200260200101516020015160006002811061293657612936613953565b602002015182612947836006613861565b612952906005613744565b8151811061296257612962613953565b60209081029190910101528061297781613897565b91505061274a565b50612988613238565b60006020826020860260208601600060086107d05a03f1915115159650909450505050505b9250929050565b60008060008060006129c887878989612d3c565b90945092506129d989898181612d3c565b90925090506129ea82828b8b612d3c565b90925090506129fb84848484612dad565b9094509250612a4b84847f2b149d40ceb8aaae81be18991be06ac3b5b4c5e559dbefa33267e6dc24a138e57e9713b03af0fed4cd2cafadeed8fdf4a74fa084e52d1852e4a2bd0685c315d2612dad565b909450925083158015612a5c575082155b9998505050505050505050565b612a71613256565b88158015612a7d575087155b15612abf578686868686868660005b60a08901929092526080880192909252606087019290925260408601929092526020858101939093529091020152612ce2565b82158015612acb575081155b15612ade578c8c8c8c8c8c866000612a8c565b612aea85858b8b612d3c565b9095509350612afb8b8b8585612d3c565b60608301526040820152612b1187878b8b612d3c565b9097509550612b228d8d8585612d3c565b60a08301526080820181905287148015612b3f575060a081015186145b15612b8457604081015185148015612b5a5750606081015184145b15612b7557612b6d8d8d8d8d8d8d612def565b866000612a8c565b60016000818180808681612a8c565b612b9089898585612d3c565b9093509150612bb0858583600260200201518460035b6020020151612dad565b909d509b50612bca87878360046020020151846005612ba6565b909b509950612bdb8b8b8181612d3c565b9099509750612bfb898983600460200201518460055b6020020151612d3c565b9095509350612c0c89898d8d612d3c565b9099509750612c1d89898585612d3c565b60a08301526080820152612c338d8d8181612d3c565b9097509550612c4487878585612d3c565b9097509550612c5587878b8b612dad565b9097509550612c6685856002612f5e565b9093509150612c7787878585612dad565b9097509550612c888b8b8989612d3c565b60208301528152612c9b85858989612dad565b909b509950612cac8d8d8d8d612d3c565b909b509950612cc689898360026020020151846003612bf1565b909d509b50612cd78b8b8f8f612dad565b606083015260408201525b9c9b505050505050505050505050565b600080600080600080612d058888612f91565b9092509050612d168c8c8484612d3c565b9096509450612d278a8a8484612d3c565b969d959c509a50949850929650505050505050565b600080612d7a6000805160206139b28339815191528588096000805160206139b28339815191528588096000805160206139b283398151915261301c565b6000805160206139b2833981519152808688096000805160206139b2833981519152868a09089150915094509492505050565b600080612dc986856000805160206139b283398151915261301c565b612de286856000805160206139b283398151915261301c565b9150915094509492505050565b600080600080600080612e048c8c6003612f5e565b9096509450612e1586868e8e612d3c565b9096509450612e268a8a8a8a612d3c565b9098509650612e378c8c8c8c612d3c565b9094509250612e4884848a8a612d3c565b9094509250612e5986868181612d3c565b909c509a50612e6a84846008612f5e565b9092509050612e7b8c8c8484612dad565b909c509a50612e8c88888181612d3c565b9092509050612e9d84846004612f5e565b9094509250612eae84848e8e612dad565b9094509250612ebf84848888612d3c565b9094509250612ed08a8a6008612f5e565b9096509450612ee186868c8c612d3c565b9096509450612ef286868484612d3c565b9096509450612f0384848888612dad565b9094509250612f148c8c6002612f5e565b9096509450612f2586868a8a612d3c565b9096509450612f3688888484612d3c565b9092509050612f4782826008612f5e565b809250819350505096509650965096509650969050565b6000806000805160206139b28339815191528386096000805160206139b283398151915284860991509150935093915050565b60008080612fd26000805160206139b2833981519152808788096000805160206139b2833981519152878809086000805160206139b2833981519152613040565b90506000805160206139b28339815191528186096000805160206139b2833981519152828609613010906000805160206139b2833981519152613880565b92509250509250929050565b6000818061302c5761302c613924565b6130368484613880565b8508949350505050565b600060018284835b811561309a57613058828461375c565b90508361307686888061306d5761306d613924565b8785098961301c565b9095509350816130868183613861565b6130909085613880565b9093509150613048565b5050505092915050565b6040518060a001604052806005906020820280368337509192915050565b8280548282559060005260206000209081019282156130fd579160200282015b828111156130fd5782518255916020019190600101906130e2565b50613109929150613274565b5090565b6040805160a081019091526000606082018181526080830191909152815260208101613137613218565b8152602001613159604051806040016040528060008152602001600081525090565b905290565b6040518060c00160405280613171613218565b8152602001613193604051806040016040528060008152602001600081525090565b81526020016131a0613218565b81526020016131c2604051806040016040528060008152602001600081525090565b81526020016131cf613218565b8152602001613159613289565b60405180606001604052806003906020820280368337509192915050565b60405180608001604052806004906020820280368337509192915050565b604051806040016040528061322b6132c2565b81526020016131596132c2565b60405180602001604052806001906020820280368337509192915050565b6040518060c001604052806006906020820280368337509192915050565b5b808211156131095760008155600101613275565b60405180604001604052806002905b60408051808201909152600080825260208201528152602001906001900390816132985790505090565b60405180604001604052806002906020820280368337509192915050565b8035600160a060020a03811681146132f757600080fd5b919050565b806101408101831015610cd757600080fd5b60008083601f84011261332057600080fd5b50813567ffffffffffffffff81111561333857600080fd5b6020830191508360206060830285010111156129ad57600080fd5b60006060828403121561336557600080fd5b6040516060810181811067ffffffffffffffff8211171561338857613388613982565b604052905080613397836133b4565b815260208301356020820152604083013560408201525092915050565b803560ff811681146132f757600080fd5b6000602082840312156133d757600080fd5b611ad1826132e0565b600080600080600080600080610180898b0312156133fd57600080fd5b613406896132e0565b975061341460208a016132e0565b965060408901359550606089013594506080890135935060a0890135925061343f8a60c08b01613353565b915061344f8a6101208b01613353565b90509295985092959890939650565b6000602080838503121561347157600080fd5b823567ffffffffffffffff8082111561348957600080fd5b818501915085601f83011261349d57600080fd5b8135818111156134af576134af613982565b83810291506134bf848301613713565b8181528481019084860184860187018a10156134da57600080fd5b600095505b838610156134fd5780358352600195909501949186019186016134df565b5098975050505050505050565b60006020828403121561351c57600080fd5b81518015158114611ad157600080fd5b60006020828403121561353e57600080fd5b5051919050565b600080600080600080600080610300898b03121561356257600080fd5b88359750602089013567ffffffffffffffff8082111561358157600080fd5b818b0191508b601f83011261359557600080fd5b8135818111156135a457600080fd5b8c602080830285010111156135b857600080fd5b6020830199508098505060408b01359150808211156135d657600080fd5b506135e38b828c0161330e565b90965094506135f790508a60608b016132fc565b92506136078a6101a08b016132fc565b91506102e089013590509295985092959890939650565b60006020828403121561363057600080fd5b5035919050565b60006020828403121561364957600080fd5b813567ffffffffffffffff81168114611ad157600080fd5b60006020828403121561367357600080fd5b611ad1826133b4565b6000806040838503121561368f57600080fd5b613698836133b4565b91506136a6602084016132e0565b90509250929050565b600061014080858437808301600081528185823750506000610280929092019182525092915050565b6000825160005b818110156136f957602081860181015185830152016136df565b81811115613708576000828501525b509190910192915050565b604051601f8201601f1916810167ffffffffffffffff8111828210171561373c5761373c613982565b604052919050565b60008219821115613757576137576138f5565b500190565b60008261376b5761376b613924565b500490565b600181815b808511156137ad578160001904821115613791576137916138f5565b8085161561379e57918102915b60029094049390800290613775565b509250929050565b6000611ad160ff8416836000826137ce57506001610cd7565b816137db57506000610cd7565b81600181146137f157600281146137fb57613818565b6001915050610cd7565b60ff84111561380c5761380c6138f5565b8360020a915050610cd7565b5060208310610133831016604e8410600b841016171561383b575081810a610cd7565b6138458383613770565b8060001904821115613859576138596138f5565b029392505050565b600081600019048311821515161561387b5761387b6138f5565b500290565b600082821015613892576138926138f5565b500390565b60006000198214156138ab576138ab6138f5565b5060010190565b6000826138c1576138c1613924565b500690565b7f4e487b7100000000000000000000000000000000000000000000000000000000600052600160045260246000fd5b7f4e487b7100000000000000000000000000000000000000000000000000000000600052601160045260246000fd5b7f4e487b7100000000000000000000000000000000000000000000000000000000600052601260045260246000fd5b7f4e487b7100000000000000000000000000000000000000000000000000000000600052603260045260246000fd5b7f4e487b7100000000000000000000000000000000000000000000000000000000600052604160045260246000fdfe30644e72e131a029b85045b68181585d97816a916871ca8d3c208c16d87cfd4743616c6c6572206973206e6f74206f776e657200000000000000000000000000a26469706673582212201fbdf1209dfbd9023ec1ce37e48603f0f8e8de318fcdc69d9f84f4c7f4b9a01164736f6c63430008070033",
  "immutableReferences": {},
  "source": "// SPDX-License-Identifier: UNLICENSED\n\npragma solidity 0.8.7;\n\nimport './Ownable.sol';\nimport './IUSDC.sol';\nimport './Verifier.sol';\ncontract Climate is Ownable {\n\n  struct Project {\n    uint8 id;\n    address wallet;\n  }\n\n  struct ProjectDistribution {\n    uint8 id;\n    uint64 tally; // sum of sqrts of contributions\n    uint64 funding; // sum of user contributions\n  }\n\n  struct Signature {\n    uint8 v;\n    bytes32 r;\n    bytes32 s;\n  }\n\n  mapping(uint8 => address) public projects;\n  uint8[] projectIds;\n  mapping(address => uint) public contributors;\n\n  uint public startTime;\n  uint public endTime;\n\n  uint[] public verifyingKey;\n  bool public cancelled;\n  IUSDC public usdcToken;\n\n  mapping(bytes32 => bool) private usedNonce;\n\n  uint public fundingPool;\n  uint public matchingPool; // 150k for all projects\n  uint public baseline; // 20k per project\n\n  event Contribute(address indexed _from, uint value);\n  event Withdraw(address indexed _contributer, uint amount);\n  event Distribute(address wallet, uint id, uint funded, uint matched, uint total);\n\n  /**\n   * @notice constructor\n   * @param _projects - project info\n   * @param _verifyingKey - vk for zkp\n   * @param _startTime - time of voting start\n   * @param USDCAddress - address of USDC contract\n   * @param _matchingPool - amount of USDC in matching pool (decimals = 6)\n   * @param _baseline - amount of USDC in baseline (decimals = 6)\n   */\n  constructor(\n    Project[] memory _projects,\n    uint[] memory _verifyingKey,\n    uint _startTime,\n    address USDCAddress,\n    uint _matchingPool,\n    uint _baseline\n  ) {\n    startTime = _startTime;\n    endTime = _startTime +  1 days;\n    // we initialise the projects structs with IDs and wallets\n    for (uint i = 0; i < 5; i++) {\n      projects[_projects[i].id] = _projects[i].wallet;\n      projectIds.push(_projects[i].id);\n    }\n    usdcToken = IUSDC(USDCAddress);\n    verifyingKey = _verifyingKey;\n    matchingPool = _matchingPool;\n    baseline = _baseline;\n  }\n\n  modifier whenNotCancelled() {\n    require(!cancelled, \"cancelled\");\n    _;\n  }\n\n  modifier whenVotingInProgress() {\n    require(startTime <= block.timestamp, \"voting not started\");\n    require(endTime >= block.timestamp, \"voting has ended\");\n    _;\n  }\n\n  modifier whenVotingComplete() {\n    require(endTime <= block.timestamp, \"voting still open\");\n    _;\n  }\n\n  modifier whenOwnerNonceNotUsed(bytes32 nonce) {\n    require(!usedNonce[nonce], \"Nonce already used\");\n    _;\n  }\n\n  /**\n   * @notice Update address of project\n   * @param id Project id\n   * @param newAddress Project address\n   */\n  function updateProject(uint8 id, address newAddress) public onlyOwner {\n    require(newAddress != address(0), 'Zero address');\n    projects[id] = newAddress;\n  }\n\n  /**\n   * @notice Update address of USDC token contract\n   * @param newAddress USDC address\n   */\n  function updateUSDC(address newAddress) public onlyOwner {\n    usdcToken = IUSDC(newAddress);\n  }\n\n  /**\n   * @notice Update end time\n   * @param newEndTime end time\n   */\n  function updateEndDate(uint newEndTime) public onlyOwner {\n    require(newEndTime >= block.timestamp, \"new end time in the past!\");\n    endTime = newEndTime;\n  }\n\n  /**\n   * @notice Update vk for project circuit\n   * @param _verifyingKey - vk\n   */\n  function registerVerificationKey(uint[] memory _verifyingKey) public onlyOwner {\n    verifyingKey = _verifyingKey;\n  }\n\n  /**\n   * @notice Get contribution of an user\n   * @param user Contributor address\n   */\n  function getContributionOf(address user) public view returns (uint) {\n    return contributors[user];\n  }\n\n  /**\n   * @notice Get all contributions by users\n   */\n  function getTotalContributions() public view returns (uint) {\n    return fundingPool;\n  }\n\n  /**\n   * @notice Get USDC balance of addr\n   */\n  function getUSDCBalance(address ad) public view returns (uint) {\n    return usdcToken.balanceOf(ad);\n  }\n\n\n  /**\n   * @notice Recover signer's address from a signed message and mark nonce as used\n   * @param sigV      v of the signature\n   * @param sigR      r of the signature\n   * @param sigS      s of the signature\n   * @param digest    Keccak-256 hash digest of the signed message\n   * @return Signer address\n   */\n  function getSigner(uint8 sigV, bytes32 sigR, bytes32 sigS, bytes32 digest) internal pure returns (address) {\n    address signer = ecrecover(digest, sigV, sigR, sigS);\n    return signer;\n  }\n\n  /**\n   * @notice Verify our proof of decryption of tally\n   * @dev Ideally the encrypted information would be on-chain, due to gas costs it is off-chain and passed as calldata. ALL inputs in the hash are linked with the proof - if any one piece is wrong, the proof will fail\n   * @param publicInputHash - hash of all public inputs to circuit (saves gas using a hash rather than plain inputs)\n   * @param proof - proof of correct decryption of tally\n   * @param voteTallyEnc - encrypted tally of votes (sqrt(contribution))\n   * @param voteTally - plaintext tally of votes\n   * @param fundingTallyEnc - encrypted funding from users\n   * @param fundingTally - plaintext funding from users\n   * @param encPublicKey - auth public key for encryption\n   */\n  function verifyProof(\n    bytes32 publicInputHash,\n    uint256[] calldata proof,\n    bytes32[10] calldata voteTallyEnc,\n    bytes8[5] memory voteTally,\n    bytes32[10] calldata fundingTallyEnc,\n    bytes8[5] memory fundingTally,\n    bytes32 encPublicKey\n  ) internal {\n    // calculate innerHash = hash of encrypted values\n    bytes32 innerHash = sha256(abi.encodePacked(voteTallyEnc, fundingTallyEnc)) & 0x00ffffffffffffffffffffffffffffffffffffffffffffffffffffffffffffff; // select 248 bits of the sha256 calculated\n    // calculate publicInputHash\n    // we must encode each bytes8 separately to ensure it matches hash in circuit\n    bytes32 testHash = sha256(abi.encodePacked(innerHash, encPublicKey, voteTally[0], voteTally[1], voteTally[2], voteTally[3], voteTally[4], fundingTally[0], fundingTally[1], fundingTally[2], fundingTally[3], fundingTally[4]));\n    // ensure hashes match\n    require(publicInputHash == testHash & 0x00ffffffffffffffffffffffffffffffffffffffffffffffffffffffffffffff, 'Public inputs hash cannot be reconciled');\n    // verify proof with gm17 verifier\n    require(Verifier.verify(proof, uint256(publicInputHash), verifyingKey), 'This proof and/or inputs appears to be invalid');\n  }\n\n  /**\n   * @notice Transfer funds\n   * @dev This is only executed if the proof of tally has been verified, and can only be called internally\n   * @param projectsToFund - amount of funding and votes per project\n   */\n  function distributeFunds(ProjectDistribution[] calldata projectsToFund) private {\n    // quadratic funding algorithm:\n    // each project recieves matchingPool * ((sum of sqrt(contributions)**2 for project)/sum of sqrt(contributions)**2 for all projects))\n    // our vote tally = sum of sqrt(contribution)\n    uint256 totalQuadratic;\n    // find the total of all votes **2 (the denominator)\n    for (uint i = 0; i < 5; i++) {\n      totalQuadratic += uint(projectsToFund[i].tally)**2;\n    }\n    // find and transfer the matched funds\n    for (uint i = 0; i < 5; i++) {\n\n      uint256 matched = (matchingPool * (uint(projectsToFund[i].tally)**2))/totalQuadratic;\n      uint256 totalToTransfer = uint(projectsToFund[i].funding) + matched + baseline;\n      usdcToken.transfer(projects[projectsToFund[i].id], totalToTransfer);\n\n      fundingPool -= projectsToFund[i].funding;\n\n      emit Distribute(projects[projectsToFund[i].id], projectsToFund[i].id, projectsToFund[i].funding, matched, totalToTransfer);\n    }\n    // we need to check that we haven't missed out any funds from users\n    require(fundingPool < 1, 'Some user contributions havent been transferred!');\n  }\n\n\n  /**\n   * @notice Execute quadratic funding\n   * @dev This is called by the owner to begin the process of distributing funds to projects. We distribute user funding and calculated matched funds.\n   * @param publicInputHash - hash of all public inputs to circuit (saves gas using a hash rather than plain inputs)\n   * @param proof - proof of correct decryption of tally\n   * @param projectsToFund - amount of funding and votes per project\n   * @param voteTallyEnc - encrypted tally of votes\n   * @param fundingTallyEnc - encrypted funding from users\n   * @param encPublicKey - auth public key for encryption\n   */\n  function verifyThenDistribute(\n    bytes32 publicInputHash,\n    uint256[] calldata proof,\n    ProjectDistribution[] calldata projectsToFund,\n    bytes32[10] calldata voteTallyEnc,\n    bytes32[10] calldata fundingTallyEnc,\n    bytes32 encPublicKey\n  ) external onlyOwner whenVotingComplete { // TODO add whenVotingComplete() post testing\n    bytes8[5] memory tallyBytes; // we convert to hash in verifyProof, so this must be converted to bytes\n    bytes8[5] memory fundingBytes;\n    for (uint i = 0; i < 5; i++) {\n      // NB projects must be ordered the same as when input to the circuit\n      tallyBytes[i] = bytes8(projectsToFund[i].tally);\n      fundingBytes[i] = bytes8(projectsToFund[i].funding);\n    }\n    // we verify that the encrypted tally & funds decrypt to these values\n    verifyProof(publicInputHash, proof, voteTallyEnc, tallyBytes, fundingTallyEnc, fundingBytes, encPublicKey);\n    // we initiate transfer\n    distributeFunds(projectsToFund);\n\n  }\n\n  /**\n   * @notice Internal function to execute usdc transfer with a signed transaction.\n   * https://github.com/centrehq/centre-tokens/blob/0d3cab14ebd133a83fc834dbd48d0468bdf0b391/contracts/v2/FiatTokenV2.sol#L137\n   * @param from          Payer's address (Authorizer)\n   * @param to            Payee's address\n   * @param value         Amount to be transferred\n   * @param validAfter    The time after which this is valid (unix time)\n   * @param validBefore   The time before which this is valid (unix time)\n   * @param nonce         Unique nonce\n   * @param v             v of the signature\n   * @param r             r of the signature\n   * @param s             s of the signature\n   * @param user          Owner address\n   */\n  function contribute(\n    address from,\n    address to,\n    uint256 value,\n    uint256 validAfter,\n    uint256 validBefore,\n    bytes32 nonce,\n    uint8 v,\n    bytes32 r,\n    bytes32 s,\n    address user\n  ) internal onlyOwnerSigned(user) {\n    usdcToken.receiveWithAuthorization(from, to, value, validAfter, validBefore, nonce, v, r, s);\n    require(contributors[from] == 0, 'User has already voted!');\n    contributors[from] = value;\n    fundingPool += value;\n    emit Contribute(from, value);\n  }\n\n  /**\n   * @notice Execute usdc transfer with a signed transaction.\n   * @dev The usdc transfer is performed here to keep track of contributions.\n   * Contributers will be able to withdraw their contribution if voting has been cancelled.\n   * Since kyc is performed offchain, this method can be called only with owner's authorization. Transactions are relayed\n   * using a relayer, so msg.sender cannot be used to verify ownership. Hence we use owners singature to prove owner has\n   * authorized to perform this transaction.\n   * The below 7 params are arguments for USDC's receiveWithAuthorization.\n   * https://github.com/centrehq/centre-tokens/blob/0d3cab14ebd133a83fc834dbd48d0468bdf0b391/contracts/v2/FiatTokenV2.sol#L137\n   * @param from          Payer's address (Authorizer)\n   * @param to            Payee's address\n   * @param value         Amount to be transferred\n   * @param validAfter    The time after which this is valid (unix time)\n   * @param validBefore   The time before which this is valid (unix time)\n   * @param nonce         Unique nonce\n   * @param RWASig        ReceiveWithAuthorization digital signature [ v, r, s]\n   * @param ownerSig      Owner's Sigature. Used to verify owner's authorization to perform this transaction.\n   */\n  function contributeSigned(\n    address from,\n    address to,\n    uint256 value,\n    uint256 validAfter,\n    uint256 validBefore,\n    bytes32 nonce,\n    Signature memory RWASig,\n    Signature memory ownerSig\n  ) external whenNotCancelled whenVotingInProgress {\n    require(value <= 20000*(10**6), 'Contributions may not be over $20,000 per user');\n    require(fundingPool + value <= 750000*(10**6), 'We have reached the limit of user contributions!');\n    bytes32 hash = keccak256(abi.encodePacked(this, from, value,  nonce));\n    bytes32 messageDigest = keccak256(abi.encodePacked(\"\\x19Ethereum Signed Message:\\n32\", hash));\n    address signer = getSigner(ownerSig.v, ownerSig.r, ownerSig.s, messageDigest);\n    contribute(from, to, value, validAfter, validBefore, nonce, RWASig.v, RWASig.r, RWASig.s, signer);\n  }\n\n  /**\n   * @notice Withdraw contribution if contract has been cancelled.\n   * @dev Up on cancellation, contributors can withdraw their contributions\n   */\n  function withdrawContribution() external {\n    require(cancelled, 'Not cancelled');\n    uint amount = contributors[msg.sender];\n    require(amount > 0, 'no balance');\n    contributors[msg.sender] = 0;\n    emit Withdraw(msg.sender, amount);\n    usdcToken.transfer(msg.sender, amount);\n  }\n\n  /**\n   * @notice Cancel contract\n    * @dev This is called by owner to cancel contract if matchingPool + baseline has been already transfered to contract address\n   */\n  function cancel() external onlyOwner whenNotCancelled {\n    cancelled = true;\n  }\n\n  /**\n   * @notice Cancel contract and distribute matchingPool + baseline\n   * @dev This is called by owner to cancel contract if matchingPool + baseline is yet to be transfered\n   * Upon calling cancelAndTransfer, each project will get their portion of funding from matchingPool + baseline.\n   * Contributions from users will not be transfered to projects in case of cancellation.\n   * Contributors will be able to withdraw their contributions if contract has been cancelled.\n   */\n  function cancelAndTransfer() external onlyOwner whenNotCancelled {\n    cancelled = true;\n    uint projectContribution = (matchingPool)/5 + baseline;\n    for (uint i = 0; i < 5; i++) {\n      usdcToken.transfer(projects[projectIds[i]], projectContribution);\n    }\n  }\n\n}\n",
  "sourcePath": "/Users/Hariprasath.V/Documents/Projects/Ver-2/Climate-DAO/contracts/Climate.sol",
  "compiler": {
    "name": "solc",
    "version": "0.8.7+commit.e28d00a7.Emscripten.clang"
  },
  "schemaVersion": "3.4.3",
  "updatedAt": "2021-10-20T07:35:49.166Z",
  "devdoc": {
    "kind": "dev",
    "methods": {
      "cancel()": {
        "details": "This is called by owner to cancel contract if matchingPool + baseline has been already transfered to contract address"
      },
      "cancelAndTransfer()": {
        "details": "This is called by owner to cancel contract if matchingPool + baseline is yet to be transfered Upon calling cancelAndTransfer, each project will get their portion of funding from matchingPool + baseline. Contributions from users will not be transfered to projects in case of cancellation. Contributors will be able to withdraw their contributions if contract has been cancelled."
      },
      "constructor": {
        "params": {
          "USDCAddress": "- address of USDC contract",
          "_baseline": "- amount of USDC in baseline (decimals = 6)",
          "_matchingPool": "- amount of USDC in matching pool (decimals = 6)",
          "_projects": "- project info",
          "_startTime": "- time of voting start",
          "_verifyingKey": "- vk for zkp"
        }
      },
      "contributeSigned(address,address,uint256,uint256,uint256,bytes32,(uint8,bytes32,bytes32),(uint8,bytes32,bytes32))": {
        "details": "The usdc transfer is performed here to keep track of contributions. Contributers will be able to withdraw their contribution if voting has been cancelled. Since kyc is performed offchain, this method can be called only with owner's authorization. Transactions are relayed using a relayer, so msg.sender cannot be used to verify ownership. Hence we use owners singature to prove owner has authorized to perform this transaction. The below 7 params are arguments for USDC's receiveWithAuthorization. https://github.com/centrehq/centre-tokens/blob/0d3cab14ebd133a83fc834dbd48d0468bdf0b391/contracts/v2/FiatTokenV2.sol#L137",
        "params": {
          "RWASig": "ReceiveWithAuthorization digital signature [ v, r, s]",
          "from": "Payer's address (Authorizer)",
          "nonce": "Unique nonce",
          "ownerSig": "Owner's Sigature. Used to verify owner's authorization to perform this transaction.",
          "to": "Payee's address",
          "validAfter": "The time after which this is valid (unix time)",
          "validBefore": "The time before which this is valid (unix time)",
          "value": "Amount to be transferred"
        }
      },
      "getContributionOf(address)": {
        "params": {
          "user": "Contributor address"
        }
      },
      "registerVerificationKey(uint256[])": {
        "params": {
          "_verifyingKey": "- vk"
        }
      },
      "updateEndDate(uint256)": {
        "params": {
          "newEndTime": "end time"
        }
      },
      "updateProject(uint8,address)": {
        "params": {
          "id": "Project id",
          "newAddress": "Project address"
        }
      },
      "updateUSDC(address)": {
        "params": {
          "newAddress": "USDC address"
        }
      },
      "verifyThenDistribute(bytes32,uint256[],(uint8,uint64,uint64)[],bytes32[10],bytes32[10],bytes32)": {
        "details": "This is called by the owner to begin the process of distributing funds to projects. We distribute user funding and calculated matched funds.",
        "params": {
          "encPublicKey": "- auth public key for encryption",
          "fundingTallyEnc": "- encrypted funding from users",
          "projectsToFund": "- amount of funding and votes per project",
          "proof": "- proof of correct decryption of tally",
          "publicInputHash": "- hash of all public inputs to circuit (saves gas using a hash rather than plain inputs)",
          "voteTallyEnc": "- encrypted tally of votes"
        }
      },
      "withdrawContribution()": {
        "details": "Up on cancellation, contributors can withdraw their contributions"
      }
    },
    "version": 1
  },
  "userdoc": {
    "kind": "user",
    "methods": {
      "cancel()": {
        "notice": "Cancel contract"
      },
      "cancelAndTransfer()": {
        "notice": "Cancel contract and distribute matchingPool + baseline"
      },
      "constructor": {
        "notice": "constructor"
      },
      "contributeSigned(address,address,uint256,uint256,uint256,bytes32,(uint8,bytes32,bytes32),(uint8,bytes32,bytes32))": {
        "notice": "Execute usdc transfer with a signed transaction."
      },
      "getContributionOf(address)": {
        "notice": "Get contribution of an user"
      },
      "getTotalContributions()": {
        "notice": "Get all contributions by users"
      },
      "getUSDCBalance(address)": {
        "notice": "Get USDC balance of addr"
      },
      "registerVerificationKey(uint256[])": {
        "notice": "Update vk for project circuit"
      },
      "updateEndDate(uint256)": {
        "notice": "Update end time"
      },
      "updateProject(uint8,address)": {
        "notice": "Update address of project"
      },
      "updateUSDC(address)": {
        "notice": "Update address of USDC token contract"
      },
      "verifyThenDistribute(bytes32,uint256[],(uint8,uint64,uint64)[],bytes32[10],bytes32[10],bytes32)": {
        "notice": "Execute quadratic funding"
      },
      "withdrawContribution()": {
        "notice": "Withdraw contribution if contract has been cancelled."
      }
    },
    "version": 1
  }
}