{
  "contractName": "FiatTokenV2",
  "abi": [
    {
      "anonymous": false,
      "inputs": [
        {
          "indexed": true,
          "internalType": "address",
          "name": "owner",
          "type": "address"
        },
        {
          "indexed": true,
          "internalType": "address",
          "name": "spender",
          "type": "address"
        },
        {
          "indexed": false,
          "internalType": "uint256",
          "name": "value",
          "type": "uint256"
        }
      ],
      "name": "Approval",
      "type": "event"
    },
    {
      "anonymous": false,
      "inputs": [
        {
          "indexed": true,
          "internalType": "address",
          "name": "authorizer",
          "type": "address"
        },
        {
          "indexed": true,
          "internalType": "bytes32",
          "name": "nonce",
          "type": "bytes32"
        }
      ],
      "name": "AuthorizationCanceled",
      "type": "event"
    },
    {
      "anonymous": false,
      "inputs": [
        {
          "indexed": true,
          "internalType": "address",
          "name": "authorizer",
          "type": "address"
        },
        {
          "indexed": true,
          "internalType": "bytes32",
          "name": "nonce",
          "type": "bytes32"
        }
      ],
      "name": "AuthorizationUsed",
      "type": "event"
    },
    {
      "anonymous": false,
      "inputs": [
        {
          "indexed": true,
          "internalType": "address",
          "name": "_account",
          "type": "address"
        }
      ],
      "name": "Blacklisted",
      "type": "event"
    },
    {
      "anonymous": false,
      "inputs": [
        {
          "indexed": true,
          "internalType": "address",
          "name": "newBlacklister",
          "type": "address"
        }
      ],
      "name": "BlacklisterChanged",
      "type": "event"
    },
    {
      "anonymous": false,
      "inputs": [
        {
          "indexed": true,
          "internalType": "address",
          "name": "burner",
          "type": "address"
        },
        {
          "indexed": false,
          "internalType": "uint256",
          "name": "amount",
          "type": "uint256"
        }
      ],
      "name": "Burn",
      "type": "event"
    },
    {
      "anonymous": false,
      "inputs": [
        {
          "indexed": true,
          "internalType": "address",
          "name": "newMasterMinter",
          "type": "address"
        }
      ],
      "name": "MasterMinterChanged",
      "type": "event"
    },
    {
      "anonymous": false,
      "inputs": [
        {
          "indexed": true,
          "internalType": "address",
          "name": "minter",
          "type": "address"
        },
        {
          "indexed": true,
          "internalType": "address",
          "name": "to",
          "type": "address"
        },
        {
          "indexed": false,
          "internalType": "uint256",
          "name": "amount",
          "type": "uint256"
        }
      ],
      "name": "Mint",
      "type": "event"
    },
    {
      "anonymous": false,
      "inputs": [
        {
          "indexed": true,
          "internalType": "address",
          "name": "minter",
          "type": "address"
        },
        {
          "indexed": false,
          "internalType": "uint256",
          "name": "minterAllowedAmount",
          "type": "uint256"
        }
      ],
      "name": "MinterConfigured",
      "type": "event"
    },
    {
      "anonymous": false,
      "inputs": [
        {
          "indexed": true,
          "internalType": "address",
          "name": "oldMinter",
          "type": "address"
        }
      ],
      "name": "MinterRemoved",
      "type": "event"
    },
    {
      "anonymous": false,
      "inputs": [
        {
          "indexed": false,
          "internalType": "address",
          "name": "previousOwner",
          "type": "address"
        },
        {
          "indexed": false,
          "internalType": "address",
          "name": "newOwner",
          "type": "address"
        }
      ],
      "name": "OwnershipTransferred",
      "type": "event"
    },
    {
      "anonymous": false,
      "inputs": [],
      "name": "Pause",
      "type": "event"
    },
    {
      "anonymous": false,
      "inputs": [
        {
          "indexed": true,
          "internalType": "address",
          "name": "newAddress",
          "type": "address"
        }
      ],
      "name": "PauserChanged",
      "type": "event"
    },
    {
      "anonymous": false,
      "inputs": [
        {
          "indexed": true,
          "internalType": "address",
          "name": "newRescuer",
          "type": "address"
        }
      ],
      "name": "RescuerChanged",
      "type": "event"
    },
    {
      "anonymous": false,
      "inputs": [
        {
          "indexed": true,
          "internalType": "address",
          "name": "from",
          "type": "address"
        },
        {
          "indexed": true,
          "internalType": "address",
          "name": "to",
          "type": "address"
        },
        {
          "indexed": false,
          "internalType": "uint256",
          "name": "value",
          "type": "uint256"
        }
      ],
      "name": "Transfer",
      "type": "event"
    },
    {
      "anonymous": false,
      "inputs": [
        {
          "indexed": true,
          "internalType": "address",
          "name": "_account",
          "type": "address"
        }
      ],
      "name": "UnBlacklisted",
      "type": "event"
    },
    {
      "anonymous": false,
      "inputs": [],
      "name": "Unpause",
      "type": "event"
    },
    {
      "inputs": [],
      "name": "CANCEL_AUTHORIZATION_TYPEHASH",
      "outputs": [
        {
          "internalType": "bytes32",
          "name": "",
          "type": "bytes32"
        }
      ],
      "stateMutability": "view",
      "type": "function",
      "constant": true
    },
    {
      "inputs": [],
      "name": "DOMAIN_SEPARATOR",
      "outputs": [
        {
          "internalType": "bytes32",
          "name": "",
          "type": "bytes32"
        }
      ],
      "stateMutability": "view",
      "type": "function",
      "constant": true
    },
    {
      "inputs": [],
      "name": "PERMIT_TYPEHASH",
      "outputs": [
        {
          "internalType": "bytes32",
          "name": "",
          "type": "bytes32"
        }
      ],
      "stateMutability": "view",
      "type": "function",
      "constant": true
    },
    {
      "inputs": [],
      "name": "RECEIVE_WITH_AUTHORIZATION_TYPEHASH",
      "outputs": [
        {
          "internalType": "bytes32",
          "name": "",
          "type": "bytes32"
        }
      ],
      "stateMutability": "view",
      "type": "function",
      "constant": true
    },
    {
      "inputs": [],
      "name": "TRANSFER_WITH_AUTHORIZATION_TYPEHASH",
      "outputs": [
        {
          "internalType": "bytes32",
          "name": "",
          "type": "bytes32"
        }
      ],
      "stateMutability": "view",
      "type": "function",
      "constant": true
    },
    {
      "inputs": [
        {
          "internalType": "address",
          "name": "owner",
          "type": "address"
        },
        {
          "internalType": "address",
          "name": "spender",
          "type": "address"
        }
      ],
      "name": "allowance",
      "outputs": [
        {
          "internalType": "uint256",
          "name": "",
          "type": "uint256"
        }
      ],
      "stateMutability": "view",
      "type": "function",
      "constant": true
    },
    {
      "inputs": [
        {
          "internalType": "address",
          "name": "spender",
          "type": "address"
        },
        {
          "internalType": "uint256",
          "name": "value",
          "type": "uint256"
        }
      ],
      "name": "approve",
      "outputs": [
        {
          "internalType": "bool",
          "name": "",
          "type": "bool"
        }
      ],
      "stateMutability": "nonpayable",
      "type": "function"
    },
    {
      "inputs": [
        {
          "internalType": "address",
          "name": "authorizer",
          "type": "address"
        },
        {
          "internalType": "bytes32",
          "name": "nonce",
          "type": "bytes32"
        }
      ],
      "name": "authorizationState",
      "outputs": [
        {
          "internalType": "bool",
          "name": "",
          "type": "bool"
        }
      ],
      "stateMutability": "view",
      "type": "function",
      "constant": true
    },
    {
      "inputs": [
        {
          "internalType": "address",
          "name": "account",
          "type": "address"
        }
      ],
      "name": "balanceOf",
      "outputs": [
        {
          "internalType": "uint256",
          "name": "",
          "type": "uint256"
        }
      ],
      "stateMutability": "view",
      "type": "function",
      "constant": true
    },
    {
      "inputs": [
        {
          "internalType": "address",
          "name": "_account",
          "type": "address"
        }
      ],
      "name": "blacklist",
      "outputs": [],
      "stateMutability": "nonpayable",
      "type": "function"
    },
    {
      "inputs": [],
      "name": "blacklister",
      "outputs": [
        {
          "internalType": "address",
          "name": "",
          "type": "address"
        }
      ],
      "stateMutability": "view",
      "type": "function",
      "constant": true
    },
    {
      "inputs": [
        {
          "internalType": "uint256",
          "name": "_amount",
          "type": "uint256"
        }
      ],
      "name": "burn",
      "outputs": [],
      "stateMutability": "nonpayable",
      "type": "function"
    },
    {
      "inputs": [
        {
          "internalType": "address",
          "name": "minter",
          "type": "address"
        },
        {
          "internalType": "uint256",
          "name": "minterAllowedAmount",
          "type": "uint256"
        }
      ],
      "name": "configureMinter",
      "outputs": [
        {
          "internalType": "bool",
          "name": "",
          "type": "bool"
        }
      ],
      "stateMutability": "nonpayable",
      "type": "function"
    },
    {
      "inputs": [],
      "name": "currency",
      "outputs": [
        {
          "internalType": "string",
          "name": "",
          "type": "string"
        }
      ],
      "stateMutability": "view",
      "type": "function",
      "constant": true
    },
    {
      "inputs": [],
      "name": "decimals",
      "outputs": [
        {
          "internalType": "uint8",
          "name": "",
          "type": "uint8"
        }
      ],
      "stateMutability": "view",
      "type": "function",
      "constant": true
    },
    {
      "inputs": [
        {
          "internalType": "string",
          "name": "tokenName",
          "type": "string"
        },
        {
          "internalType": "string",
          "name": "tokenSymbol",
          "type": "string"
        },
        {
          "internalType": "string",
          "name": "tokenCurrency",
          "type": "string"
        },
        {
          "internalType": "uint8",
          "name": "tokenDecimals",
          "type": "uint8"
        },
        {
          "internalType": "address",
          "name": "newMasterMinter",
          "type": "address"
        },
        {
          "internalType": "address",
          "name": "newPauser",
          "type": "address"
        },
        {
          "internalType": "address",
          "name": "newBlacklister",
          "type": "address"
        },
        {
          "internalType": "address",
          "name": "newOwner",
          "type": "address"
        }
      ],
      "name": "initialize",
      "outputs": [],
      "stateMutability": "nonpayable",
      "type": "function"
    },
    {
      "inputs": [
        {
          "internalType": "address",
          "name": "_account",
          "type": "address"
        }
      ],
      "name": "isBlacklisted",
      "outputs": [
        {
          "internalType": "bool",
          "name": "",
          "type": "bool"
        }
      ],
      "stateMutability": "view",
      "type": "function",
      "constant": true
    },
    {
      "inputs": [
        {
          "internalType": "address",
          "name": "account",
          "type": "address"
        }
      ],
      "name": "isMinter",
      "outputs": [
        {
          "internalType": "bool",
          "name": "",
          "type": "bool"
        }
      ],
      "stateMutability": "view",
      "type": "function",
      "constant": true
    },
    {
      "inputs": [],
      "name": "masterMinter",
      "outputs": [
        {
          "internalType": "address",
          "name": "",
          "type": "address"
        }
      ],
      "stateMutability": "view",
      "type": "function",
      "constant": true
    },
    {
      "inputs": [
        {
          "internalType": "address",
          "name": "_to",
          "type": "address"
        },
        {
          "internalType": "uint256",
          "name": "_amount",
          "type": "uint256"
        }
      ],
      "name": "mint",
      "outputs": [
        {
          "internalType": "bool",
          "name": "",
          "type": "bool"
        }
      ],
      "stateMutability": "nonpayable",
      "type": "function"
    },
    {
      "inputs": [
        {
          "internalType": "address",
          "name": "minter",
          "type": "address"
        }
      ],
      "name": "minterAllowance",
      "outputs": [
        {
          "internalType": "uint256",
          "name": "",
          "type": "uint256"
        }
      ],
      "stateMutability": "view",
      "type": "function",
      "constant": true
    },
    {
      "inputs": [],
      "name": "name",
      "outputs": [
        {
          "internalType": "string",
          "name": "",
          "type": "string"
        }
      ],
      "stateMutability": "view",
      "type": "function",
      "constant": true
    },
    {
      "inputs": [
        {
          "internalType": "address",
          "name": "owner",
          "type": "address"
        }
      ],
      "name": "nonces",
      "outputs": [
        {
          "internalType": "uint256",
          "name": "",
          "type": "uint256"
        }
      ],
      "stateMutability": "view",
      "type": "function",
      "constant": true
    },
    {
      "inputs": [],
      "name": "owner",
      "outputs": [
        {
          "internalType": "address",
          "name": "",
          "type": "address"
        }
      ],
      "stateMutability": "view",
      "type": "function",
      "constant": true
    },
    {
      "inputs": [],
      "name": "pause",
      "outputs": [],
      "stateMutability": "nonpayable",
      "type": "function"
    },
    {
      "inputs": [],
      "name": "paused",
      "outputs": [
        {
          "internalType": "bool",
          "name": "",
          "type": "bool"
        }
      ],
      "stateMutability": "view",
      "type": "function",
      "constant": true
    },
    {
      "inputs": [],
      "name": "pauser",
      "outputs": [
        {
          "internalType": "address",
          "name": "",
          "type": "address"
        }
      ],
      "stateMutability": "view",
      "type": "function",
      "constant": true
    },
    {
      "inputs": [
        {
          "internalType": "address",
          "name": "minter",
          "type": "address"
        }
      ],
      "name": "removeMinter",
      "outputs": [
        {
          "internalType": "bool",
          "name": "",
          "type": "bool"
        }
      ],
      "stateMutability": "nonpayable",
      "type": "function"
    },
    {
      "inputs": [
        {
          "internalType": "contract IERC20",
          "name": "tokenContract",
          "type": "address"
        },
        {
          "internalType": "address",
          "name": "to",
          "type": "address"
        },
        {
          "internalType": "uint256",
          "name": "amount",
          "type": "uint256"
        }
      ],
      "name": "rescueERC20",
      "outputs": [],
      "stateMutability": "nonpayable",
      "type": "function"
    },
    {
      "inputs": [],
      "name": "rescuer",
      "outputs": [
        {
          "internalType": "address",
          "name": "",
          "type": "address"
        }
      ],
      "stateMutability": "view",
      "type": "function",
      "constant": true
    },
    {
      "inputs": [],
      "name": "symbol",
      "outputs": [
        {
          "internalType": "string",
          "name": "",
          "type": "string"
        }
      ],
      "stateMutability": "view",
      "type": "function",
      "constant": true
    },
    {
      "inputs": [],
      "name": "totalSupply",
      "outputs": [
        {
          "internalType": "uint256",
          "name": "",
          "type": "uint256"
        }
      ],
      "stateMutability": "view",
      "type": "function",
      "constant": true
    },
    {
      "inputs": [
        {
          "internalType": "address",
          "name": "to",
          "type": "address"
        },
        {
          "internalType": "uint256",
          "name": "value",
          "type": "uint256"
        }
      ],
      "name": "transfer",
      "outputs": [
        {
          "internalType": "bool",
          "name": "",
          "type": "bool"
        }
      ],
      "stateMutability": "nonpayable",
      "type": "function"
    },
    {
      "inputs": [
        {
          "internalType": "address",
          "name": "from",
          "type": "address"
        },
        {
          "internalType": "address",
          "name": "to",
          "type": "address"
        },
        {
          "internalType": "uint256",
          "name": "value",
          "type": "uint256"
        }
      ],
      "name": "transferFrom",
      "outputs": [
        {
          "internalType": "bool",
          "name": "",
          "type": "bool"
        }
      ],
      "stateMutability": "nonpayable",
      "type": "function"
    },
    {
      "inputs": [
        {
          "internalType": "address",
          "name": "newOwner",
          "type": "address"
        }
      ],
      "name": "transferOwnership",
      "outputs": [],
      "stateMutability": "nonpayable",
      "type": "function"
    },
    {
      "inputs": [
        {
          "internalType": "address",
          "name": "_account",
          "type": "address"
        }
      ],
      "name": "unBlacklist",
      "outputs": [],
      "stateMutability": "nonpayable",
      "type": "function"
    },
    {
      "inputs": [],
      "name": "unpause",
      "outputs": [],
      "stateMutability": "nonpayable",
      "type": "function"
    },
    {
      "inputs": [
        {
          "internalType": "address",
          "name": "_newBlacklister",
          "type": "address"
        }
      ],
      "name": "updateBlacklister",
      "outputs": [],
      "stateMutability": "nonpayable",
      "type": "function"
    },
    {
      "inputs": [
        {
          "internalType": "address",
          "name": "_newMasterMinter",
          "type": "address"
        }
      ],
      "name": "updateMasterMinter",
      "outputs": [],
      "stateMutability": "nonpayable",
      "type": "function"
    },
    {
      "inputs": [
        {
          "internalType": "address",
          "name": "_newPauser",
          "type": "address"
        }
      ],
      "name": "updatePauser",
      "outputs": [],
      "stateMutability": "nonpayable",
      "type": "function"
    },
    {
      "inputs": [
        {
          "internalType": "address",
          "name": "newRescuer",
          "type": "address"
        }
      ],
      "name": "updateRescuer",
      "outputs": [],
      "stateMutability": "nonpayable",
      "type": "function"
    },
    {
      "inputs": [
        {
          "internalType": "string",
          "name": "newName",
          "type": "string"
        }
      ],
      "name": "initializeV2",
      "outputs": [],
      "stateMutability": "nonpayable",
      "type": "function"
    },
    {
      "inputs": [
        {
          "internalType": "address",
          "name": "spender",
          "type": "address"
        },
        {
          "internalType": "uint256",
          "name": "increment",
          "type": "uint256"
        }
      ],
      "name": "increaseAllowance",
      "outputs": [
        {
          "internalType": "bool",
          "name": "",
          "type": "bool"
        }
      ],
      "stateMutability": "nonpayable",
      "type": "function"
    },
    {
      "inputs": [
        {
          "internalType": "address",
          "name": "spender",
          "type": "address"
        },
        {
          "internalType": "uint256",
          "name": "decrement",
          "type": "uint256"
        }
      ],
      "name": "decreaseAllowance",
      "outputs": [
        {
          "internalType": "bool",
          "name": "",
          "type": "bool"
        }
      ],
      "stateMutability": "nonpayable",
      "type": "function"
    },
    {
      "inputs": [
        {
          "internalType": "address",
          "name": "from",
          "type": "address"
        },
        {
          "internalType": "address",
          "name": "to",
          "type": "address"
        },
        {
          "internalType": "uint256",
          "name": "value",
          "type": "uint256"
        },
        {
          "internalType": "uint256",
          "name": "validAfter",
          "type": "uint256"
        },
        {
          "internalType": "uint256",
          "name": "validBefore",
          "type": "uint256"
        },
        {
          "internalType": "bytes32",
          "name": "nonce",
          "type": "bytes32"
        },
        {
          "internalType": "uint8",
          "name": "v",
          "type": "uint8"
        },
        {
          "internalType": "bytes32",
          "name": "r",
          "type": "bytes32"
        },
        {
          "internalType": "bytes32",
          "name": "s",
          "type": "bytes32"
        }
      ],
      "name": "transferWithAuthorization",
      "outputs": [],
      "stateMutability": "nonpayable",
      "type": "function"
    },
    {
      "inputs": [
        {
          "internalType": "address",
          "name": "from",
          "type": "address"
        },
        {
          "internalType": "address",
          "name": "to",
          "type": "address"
        },
        {
          "internalType": "uint256",
          "name": "value",
          "type": "uint256"
        },
        {
          "internalType": "uint256",
          "name": "validAfter",
          "type": "uint256"
        },
        {
          "internalType": "uint256",
          "name": "validBefore",
          "type": "uint256"
        },
        {
          "internalType": "bytes32",
          "name": "nonce",
          "type": "bytes32"
        },
        {
          "internalType": "uint8",
          "name": "v",
          "type": "uint8"
        },
        {
          "internalType": "bytes32",
          "name": "r",
          "type": "bytes32"
        },
        {
          "internalType": "bytes32",
          "name": "s",
          "type": "bytes32"
        }
      ],
      "name": "receiveWithAuthorization",
      "outputs": [],
      "stateMutability": "nonpayable",
      "type": "function"
    },
    {
      "inputs": [
        {
          "internalType": "address",
          "name": "authorizer",
          "type": "address"
        },
        {
          "internalType": "bytes32",
          "name": "nonce",
          "type": "bytes32"
        },
        {
          "internalType": "uint8",
          "name": "v",
          "type": "uint8"
        },
        {
          "internalType": "bytes32",
          "name": "r",
          "type": "bytes32"
        },
        {
          "internalType": "bytes32",
          "name": "s",
          "type": "bytes32"
        }
      ],
      "name": "cancelAuthorization",
      "outputs": [],
      "stateMutability": "nonpayable",
      "type": "function"
    },
    {
      "inputs": [
        {
          "internalType": "address",
          "name": "owner",
          "type": "address"
        },
        {
          "internalType": "address",
          "name": "spender",
          "type": "address"
        },
        {
          "internalType": "uint256",
          "name": "value",
          "type": "uint256"
        },
        {
          "internalType": "uint256",
          "name": "deadline",
          "type": "uint256"
        },
        {
          "internalType": "uint8",
          "name": "v",
          "type": "uint8"
        },
        {
          "internalType": "bytes32",
          "name": "r",
          "type": "bytes32"
        },
        {
          "internalType": "bytes32",
          "name": "s",
          "type": "bytes32"
        }
      ],
      "name": "permit",
      "outputs": [],
      "stateMutability": "nonpayable",
      "type": "function"
    }
  ],
  "bytecode": "0x60806040526001805460ff60a01b191690556000600b553480156200002357600080fd5b506200002f3362000035565b62000057565b600080546001600160a01b0319166001600160a01b0392909216919091179055565b6152e580620000676000396000f3fe608060405234801561001057600080fd5b50600436106103205760003560e01c80638456cb59116101a7578063bd102430116100ee578063e5a6b10f11610097578063f2fde38b11610071578063f2fde38b14610cdc578063f9f92be414610d0f578063fe575a8714610d4257610320565b8063e5a6b10f14610c2f578063e94a010214610c37578063ef55bec614610c7057610320565b8063d9169487116100c8578063d916948714610b80578063dd62ed3e14610b88578063e3ee160e14610bc357610320565b8063bd10243014610aaa578063d505accf14610ab2578063d608ea6414610b1057610320565b8063a457c2d711610150578063aa271e1a1161012a578063aa271e1a14610a01578063ad38bf2214610a34578063b2118a8d14610a6757610320565b8063a457c2d71461095c578063a9059cbb14610995578063aa20e1e4146109ce57610320565b806395d89b411161018157806395d89b41146109445780639fd0506d1461094c578063a0cc6a681461095457610320565b80638456cb59146109015780638a6db9c3146109095780638da5cb5b1461093c57610320565b806338a631831161026b578063554bab3c1161021457806370a08231116101ee57806370a08231146108935780637ecebe00146108c65780637f2eecc3146108f957610320565b8063554bab3c1461080a5780635a049a701461083d5780635c975abb1461088b57610320565b806340c10f191161024557806340c10f191461077b57806342966c68146107b45780634e44d956146107d157610320565b806338a6318314610732578063395093511461073a5780633f4ba83a1461077357610320565b80633092afd5116102cd5780633357162b116102a75780633357162b1461050d57806335d99f35146106f95780633644e5151461072a57610320565b80633092afd5146104b457806330adf81f146104e7578063313ce567146104ef57610320565b80631a895266116102fe5780631a8952661461040957806323b872dd1461043e5780632ab600451461048157610320565b806306fdde0314610325578063095ea7b3146103a257806318160ddd146103ef575b600080fd5b61032d610d75565b6040805160208082528351818301528351919283929083019185019080838360005b8381101561036757818101518382015260200161034f565b50505050905090810190601f1680156103945780820380516001836020036101000a031916815260200191505b509250505060405180910390f35b6103db600480360360408110156103b857600080fd5b5073ffffffffffffffffffffffffffffffffffffffff8135169060200135610e21565b604080519115158252519081900360200190f35b6103f7610fae565b60408051918252519081900360200190f35b61043c6004803603602081101561041f57600080fd5b503573ffffffffffffffffffffffffffffffffffffffff16610fb4565b005b6103db6004803603606081101561045457600080fd5b5073ffffffffffffffffffffffffffffffffffffffff813581169160208101359091169060400135611098565b61043c6004803603602081101561049757600080fd5b503573ffffffffffffffffffffffffffffffffffffffff1661139e565b6103db600480360360208110156104ca57600080fd5b503573ffffffffffffffffffffffffffffffffffffffff166114ff565b6103f76115f8565b6104f761161c565b6040805160ff9092168252519081900360200190f35b61043c600480360361010081101561052457600080fd5b81019060208101813564010000000081111561053f57600080fd5b82018360208201111561055157600080fd5b8035906020019184600183028401116401000000008311171561057357600080fd5b91908080601f01602080910402602001604051908101604052809392919081815260200183838082843760009201919091525092959493602081019350359150506401000000008111156105c657600080fd5b8201836020820111156105d857600080fd5b803590602001918460018302840111640100000000831117156105fa57600080fd5b91908080601f016020809104026020016040519081016040528093929190818152602001838380828437600092019190915250929594936020810193503591505064010000000081111561064d57600080fd5b82018360208201111561065f57600080fd5b8035906020019184600183028401116401000000008311171561068157600080fd5b91908080601f0160208091040260200160405190810160405280939291908181526020018383808284376000920191909152509295505050813560ff16925050602081013573ffffffffffffffffffffffffffffffffffffffff90811691604081013582169160608201358116916080013516611625565b610701611967565b6040805173ffffffffffffffffffffffffffffffffffffffff9092168252519081900360200190f35b6103f7611983565b610701611989565b6103db6004803603604081101561075057600080fd5b5073ffffffffffffffffffffffffffffffffffffffff81351690602001356119a5565b61043c611b27565b6103db6004803603604081101561079157600080fd5b5073ffffffffffffffffffffffffffffffffffffffff8135169060200135611bea565b61043c600480360360208110156107ca57600080fd5b503561201f565b6103db600480360360408110156107e757600080fd5b5073ffffffffffffffffffffffffffffffffffffffff81351690602001356122d9565b61043c6004803603602081101561082057600080fd5b503573ffffffffffffffffffffffffffffffffffffffff1661246c565b61043c600480360360a081101561085357600080fd5b5073ffffffffffffffffffffffffffffffffffffffff8135169060208101359060ff60408201351690606081013590608001356125d3565b6103db612671565b6103f7600480360360208110156108a957600080fd5b503573ffffffffffffffffffffffffffffffffffffffff16612692565b6103f7600480360360208110156108dc57600080fd5b503573ffffffffffffffffffffffffffffffffffffffff166126ba565b6103f76126e2565b61043c612706565b6103f76004803603602081101561091f57600080fd5b503573ffffffffffffffffffffffffffffffffffffffff166127e0565b610701612808565b61032d612824565b61070161289d565b6103f76128b9565b6103db6004803603604081101561097257600080fd5b5073ffffffffffffffffffffffffffffffffffffffff81351690602001356128dd565b6103db600480360360408110156109ab57600080fd5b5073ffffffffffffffffffffffffffffffffffffffff8135169060200135612a5f565b61043c600480360360208110156109e457600080fd5b503573ffffffffffffffffffffffffffffffffffffffff16612be1565b6103db60048036036020811015610a1757600080fd5b503573ffffffffffffffffffffffffffffffffffffffff16612d48565b61043c60048036036020811015610a4a57600080fd5b503573ffffffffffffffffffffffffffffffffffffffff16612d73565b61043c60048036036060811015610a7d57600080fd5b5073ffffffffffffffffffffffffffffffffffffffff813581169160208101359091169060400135612eda565b610701612f70565b61043c600480360360e0811015610ac857600080fd5b5073ffffffffffffffffffffffffffffffffffffffff813581169160208101359091169060408101359060608101359060ff6080820135169060a08101359060c00135612f8c565b61043c60048036036020811015610b2657600080fd5b810190602081018135640100000000811115610b4157600080fd5b820183602082011115610b5357600080fd5b80359060200191846001830284011164010000000083111715610b7557600080fd5b509092509050613132565b6103f761321b565b6103f760048036036040811015610b9e57600080fd5b5073ffffffffffffffffffffffffffffffffffffffff8135811691602001351661323f565b61043c6004803603610120811015610bda57600080fd5b5073ffffffffffffffffffffffffffffffffffffffff813581169160208101359091169060408101359060608101359060808101359060a08101359060ff60c0820135169060e0810135906101000135613277565b61032d613421565b6103db60048036036040811015610c4d57600080fd5b5073ffffffffffffffffffffffffffffffffffffffff813516906020013561349a565b61043c6004803603610120811015610c8757600080fd5b5073ffffffffffffffffffffffffffffffffffffffff813581169160208101359091169060408101359060608101359060808101359060a08101359060ff60c0820135169060e08101359061010001356134d2565b61043c60048036036020811015610cf257600080fd5b503573ffffffffffffffffffffffffffffffffffffffff1661366f565b61043c60048036036020811015610d2557600080fd5b503573ffffffffffffffffffffffffffffffffffffffff166137c2565b6103db60048036036020811015610d5857600080fd5b503573ffffffffffffffffffffffffffffffffffffffff166138a9565b6004805460408051602060026001851615610100027fffffffffffffffffffffffffffffffffffffffffffffffffffffffffffffffff0190941693909304601f81018490048402820184019092528181529291830182828015610e195780601f10610dee57610100808354040283529160200191610e19565b820191906000526020600020905b815481529060010190602001808311610dfc57829003601f168201915b505050505081565b60015460009074010000000000000000000000000000000000000000900460ff1615610eae57604080517f08c379a000000000000000000000000000000000000000000000000000000000815260206004820152601060248201527f5061757361626c653a2070617573656400000000000000000000000000000000604482015290519081900360640190fd5b3360008181526003602052604090205460ff1615610f17576040517f08c379a00000000000000000000000000000000000000000000000000000000081526004018080602001828103825260258152602001806152416025913960400191505060405180910390fd5b73ffffffffffffffffffffffffffffffffffffffff8416600090815260036020526040902054849060ff1615610f98576040517f08c379a00000000000000000000000000000000000000000000000000000000081526004018080602001828103825260258152602001806152416025913960400191505060405180910390fd5b610fa33386866138d4565b506001949350505050565b600b5490565b60025473ffffffffffffffffffffffffffffffffffffffff163314611024576040517f08c379a000000000000000000000000000000000000000000000000000000000815260040180806020018281038252602c815260200180614f65602c913960400191505060405180910390fd5b73ffffffffffffffffffffffffffffffffffffffff811660008181526003602052604080822080547fffffffffffffffffffffffffffffffffffffffffffffffffffffffffffffff00169055517f117e3210bb9aa7d9baff172026820255c6f6c30ba8999d1c2fd88e2848137c4e9190a250565b60015460009074010000000000000000000000000000000000000000900460ff161561112557604080517f08c379a000000000000000000000000000000000000000000000000000000000815260206004820152601060248201527f5061757361626c653a2070617573656400000000000000000000000000000000604482015290519081900360640190fd5b3360008181526003602052604090205460ff161561118e576040517f08c379a00000000000000000000000000000000000000000000000000000000081526004018080602001828103825260258152602001806152416025913960400191505060405180910390fd5b73ffffffffffffffffffffffffffffffffffffffff8516600090815260036020526040902054859060ff161561120f576040517f08c379a00000000000000000000000000000000000000000000000000000000081526004018080602001828103825260258152602001806152416025913960400191505060405180910390fd5b73ffffffffffffffffffffffffffffffffffffffff8516600090815260036020526040902054859060ff1615611290576040517f08c379a00000000000000000000000000000000000000000000000000000000081526004018080602001828103825260258152602001806152416025913960400191505060405180910390fd5b73ffffffffffffffffffffffffffffffffffffffff87166000908152600a60209081526040808320338452909152902054851115611319576040517f08c379a000000000000000000000000000000000000000000000000000000000815260040180806020018281038252602881526020018061502b6028913960400191505060405180910390fd5b611324878787613a1b565b73ffffffffffffffffffffffffffffffffffffffff87166000908152600a6020908152604080832033845290915290205461135f9086613c46565b73ffffffffffffffffffffffffffffffffffffffff88166000908152600a60209081526040808320338452909152902055600193505050509392505050565b60005473ffffffffffffffffffffffffffffffffffffffff16331461142457604080517f08c379a000000000000000000000000000000000000000000000000000000000815260206004820181905260248201527f4f776e61626c653a2063616c6c6572206973206e6f7420746865206f776e6572604482015290519081900360640190fd5b73ffffffffffffffffffffffffffffffffffffffff8116611490576040517f08c379a000000000000000000000000000000000000000000000000000000000815260040180806020018281038252602a815260200180614ec3602a913960400191505060405180910390fd5b600e80547fffffffffffffffffffffffff00000000000000000000000000000000000000001673ffffffffffffffffffffffffffffffffffffffff83169081179091556040517fe475e580d85111348e40d8ca33cfdd74c30fe1655c2d8537a13abc10065ffa5a90600090a250565b60085460009073ffffffffffffffffffffffffffffffffffffffff163314611572576040517f08c379a0000000000000000000000000000000000000000000000000000000008152600401808060200182810382526029815260200180614f3c6029913960400191505060405180910390fd5b73ffffffffffffffffffffffffffffffffffffffff82166000818152600c6020908152604080832080547fffffffffffffffffffffffffffffffffffffffffffffffffffffffffffffff00169055600d909152808220829055517fe94479a9f7e1952cc78f2d6baab678adc1b772d936c6583def489e524cb666929190a2506001919050565b7f6e71edae12b1b97f4d1f60370fef10105fa2faae0126114a169c64845d6126c981565b60065460ff1681565b60085474010000000000000000000000000000000000000000900460ff1615611699576040517f08c379a000000000000000000000000000000000000000000000000000000000815260040180806020018281038252602a8152602001806150a6602a913960400191505060405180910390fd5b73ffffffffffffffffffffffffffffffffffffffff8416611705576040517f08c379a000000000000000000000000000000000000000000000000000000000815260040180806020018281038252602f815260200180614fd8602f913960400191505060405180910390fd5b73ffffffffffffffffffffffffffffffffffffffff8316611771576040517f08c379a0000000000000000000000000000000000000000000000000000000008152600401808060200182810382526029815260200180614e9a6029913960400191505060405180910390fd5b73ffffffffffffffffffffffffffffffffffffffff82166117dd576040517f08c379a000000000000000000000000000000000000000000000000000000000815260040180806020018281038252602e815260200180615053602e913960400191505060405180910390fd5b73ffffffffffffffffffffffffffffffffffffffff8116611849576040517f08c379a00000000000000000000000000000000000000000000000000000000081526004018080602001828103825260288152602001806151b96028913960400191505060405180910390fd5b875161185c9060049060208b0190614c4a565b5086516118709060059060208a0190614c4a565b508551611884906007906020890190614c4a565b50600680547fffffffffffffffffffffffffffffffffffffffffffffffffffffffffffffff001660ff8716179055600880547fffffffffffffffffffffffff000000000000000000000000000000000000000090811673ffffffffffffffffffffffffffffffffffffffff878116919091179092556001805482168684161790556002805490911691841691909117905561191e81613c8f565b5050600880547fffffffffffffffffffffff00ffffffffffffffffffffffffffffffffffffffff1674010000000000000000000000000000000000000000179055505050505050565b60085473ffffffffffffffffffffffffffffffffffffffff1681565b600f5481565b600e5473ffffffffffffffffffffffffffffffffffffffff1690565b60015460009074010000000000000000000000000000000000000000900460ff1615611a3257604080517f08c379a000000000000000000000000000000000000000000000000000000000815260206004820152601060248201527f5061757361626c653a2070617573656400000000000000000000000000000000604482015290519081900360640190fd5b3360008181526003602052604090205460ff1615611a9b576040517f08c379a00000000000000000000000000000000000000000000000000000000081526004018080602001828103825260258152602001806152416025913960400191505060405180910390fd5b73ffffffffffffffffffffffffffffffffffffffff8416600090815260036020526040902054849060ff1615611b1c576040517f08c379a00000000000000000000000000000000000000000000000000000000081526004018080602001828103825260258152602001806152416025913960400191505060405180910390fd5b610fa3338686613cd6565b60015473ffffffffffffffffffffffffffffffffffffffff163314611b97576040517f08c379a00000000000000000000000000000000000000000000000000000000081526004018080602001828103825260228152602001806151476022913960400191505060405180910390fd5b600180547fffffffffffffffffffffff00ffffffffffffffffffffffffffffffffffffffff1690556040517f7805862f689e2f13df9f062ff482ad3ad112aca9e0847911ed832e158c525b3390600090a1565b60015460009074010000000000000000000000000000000000000000900460ff1615611c7757604080517f08c379a000000000000000000000000000000000000000000000000000000000815260206004820152601060248201527f5061757361626c653a2070617573656400000000000000000000000000000000604482015290519081900360640190fd5b336000908152600c602052604090205460ff16611cdf576040517f08c379a0000000000000000000000000000000000000000000000000000000008152600401808060200182810382526021815260200180614fb76021913960400191505060405180910390fd5b3360008181526003602052604090205460ff1615611d48576040517f08c379a00000000000000000000000000000000000000000000000000000000081526004018080602001828103825260258152602001806152416025913960400191505060405180910390fd5b73ffffffffffffffffffffffffffffffffffffffff8416600090815260036020526040902054849060ff1615611dc9576040517f08c379a00000000000000000000000000000000000000000000000000000000081526004018080602001828103825260258152602001806152416025913960400191505060405180910390fd5b73ffffffffffffffffffffffffffffffffffffffff8516611e35576040517f08c379a0000000000000000000000000000000000000000000000000000000008152600401808060200182810382526023815260200180614e096023913960400191505060405180910390fd5b60008411611e8e576040517f08c379a0000000000000000000000000000000000000000000000000000000008152600401808060200182810382526029815260200180614eed6029913960400191505060405180910390fd5b336000908152600d602052604090205480851115611ef7576040517f08c379a000000000000000000000000000000000000000000000000000000000815260040180806020018281038252602e815260200180615119602e913960400191505060405180910390fd5b600b54611f049086613d20565b600b5573ffffffffffffffffffffffffffffffffffffffff8616600090815260096020526040902054611f379086613d20565b73ffffffffffffffffffffffffffffffffffffffff8716600090815260096020526040902055611f678186613c46565b336000818152600d6020908152604091829020939093558051888152905173ffffffffffffffffffffffffffffffffffffffff8a16937fab8530f87dc9b59234c4623bf917212bb2536d647574c8e7e5da92c2ede0c9f8928290030190a360408051868152905173ffffffffffffffffffffffffffffffffffffffff8816916000917fddf252ad1be2c89b69c2b068fc378daa952ba7f163c4a11628f55a4df523b3ef9181900360200190a350600195945050505050565b60015474010000000000000000000000000000000000000000900460ff16156120a957604080517f08c379a000000000000000000000000000000000000000000000000000000000815260206004820152601060248201527f5061757361626c653a2070617573656400000000000000000000000000000000604482015290519081900360640190fd5b336000908152600c602052604090205460ff16612111576040517f08c379a0000000000000000000000000000000000000000000000000000000008152600401808060200182810382526021815260200180614fb76021913960400191505060405180910390fd5b3360008181526003602052604090205460ff161561217a576040517f08c379a00000000000000000000000000000000000000000000000000000000081526004018080602001828103825260258152602001806152416025913960400191505060405180910390fd5b33600090815260096020526040902054826121e0576040517f08c379a0000000000000000000000000000000000000000000000000000000008152600401808060200182810382526029815260200180614de06029913960400191505060405180910390fd5b82811015612239576040517f08c379a0000000000000000000000000000000000000000000000000000000008152600401808060200182810382526026815260200180614f916026913960400191505060405180910390fd5b600b546122469084613c46565b600b556122538184613c46565b33600081815260096020908152604091829020939093558051868152905191927fcc16f5dbb4873280815c1ee09dbd06736cffcc184412cf7a71a0fdb75d397ca592918290030190a260408051848152905160009133917fddf252ad1be2c89b69c2b068fc378daa952ba7f163c4a11628f55a4df523b3ef9181900360200190a3505050565b60015460009074010000000000000000000000000000000000000000900460ff161561236657604080517f08c379a000000000000000000000000000000000000000000000000000000000815260206004820152601060248201527f5061757361626c653a2070617573656400000000000000000000000000000000604482015290519081900360640190fd5b60085473ffffffffffffffffffffffffffffffffffffffff1633146123d6576040517f08c379a0000000000000000000000000000000000000000000000000000000008152600401808060200182810382526029815260200180614f3c6029913960400191505060405180910390fd5b73ffffffffffffffffffffffffffffffffffffffff83166000818152600c6020908152604080832080547fffffffffffffffffffffffffffffffffffffffffffffffffffffffffffffff00166001179055600d825291829020859055815185815291517f46980fca912ef9bcdbd36877427b6b90e860769f604e89c0e67720cece530d209281900390910190a250600192915050565b60005473ffffffffffffffffffffffffffffffffffffffff1633146124f257604080517f08c379a000000000000000000000000000000000000000000000000000000000815260206004820181905260248201527f4f776e61626c653a2063616c6c6572206973206e6f7420746865206f776e6572604482015290519081900360640190fd5b73ffffffffffffffffffffffffffffffffffffffff811661255e576040517f08c379a0000000000000000000000000000000000000000000000000000000008152600401808060200182810382526028815260200180614d8d6028913960400191505060405180910390fd5b600180547fffffffffffffffffffffffff00000000000000000000000000000000000000001673ffffffffffffffffffffffffffffffffffffffff83811691909117918290556040519116907fb80482a293ca2e013eda8683c9bd7fc8347cfdaeea5ede58cba46df502c2a60490600090a250565b60015474010000000000000000000000000000000000000000900460ff161561265d57604080517f08c379a000000000000000000000000000000000000000000000000000000000815260206004820152601060248201527f5061757361626c653a2070617573656400000000000000000000000000000000604482015290519081900360640190fd5b61266a8585858585613d94565b5050505050565b60015474010000000000000000000000000000000000000000900460ff1681565b73ffffffffffffffffffffffffffffffffffffffff1660009081526009602052604090205490565b73ffffffffffffffffffffffffffffffffffffffff1660009081526011602052604090205490565b7fd099cc98ef71107a616c4f0f941f04c322d8e254fe26b3c6668db87aae413de881565b60015473ffffffffffffffffffffffffffffffffffffffff163314612776576040517f08c379a00000000000000000000000000000000000000000000000000000000081526004018080602001828103825260228152602001806151476022913960400191505060405180910390fd5b600180547fffffffffffffffffffffff00ffffffffffffffffffffffffffffffffffffffff16740100000000000000000000000000000000000000001790556040517f6985a02210a168e66602d3235cb6db0e70f92b3ba4d376a33c0f3d9434bff62590600090a1565b73ffffffffffffffffffffffffffffffffffffffff166000908152600d602052604090205490565b60005473ffffffffffffffffffffffffffffffffffffffff1690565b6005805460408051602060026001851615610100027fffffffffffffffffffffffffffffffffffffffffffffffffffffffffffffffff0190941693909304601f81018490048402820184019092528181529291830182828015610e195780601f10610dee57610100808354040283529160200191610e19565b60015473ffffffffffffffffffffffffffffffffffffffff1681565b7f7c7c6cdb67a18743f49ec6fa9b35f50d52ed05cbed4cc592e13b44501c1a226781565b60015460009074010000000000000000000000000000000000000000900460ff161561296a57604080517f08c379a000000000000000000000000000000000000000000000000000000000815260206004820152601060248201527f5061757361626c653a2070617573656400000000000000000000000000000000604482015290519081900360640190fd5b3360008181526003602052604090205460ff16156129d3576040517f08c379a00000000000000000000000000000000000000000000000000000000081526004018080602001828103825260258152602001806152416025913960400191505060405180910390fd5b73ffffffffffffffffffffffffffffffffffffffff8416600090815260036020526040902054849060ff1615612a54576040517f08c379a00000000000000000000000000000000000000000000000000000000081526004018080602001828103825260258152602001806152416025913960400191505060405180910390fd5b610fa3338686613f1d565b60015460009074010000000000000000000000000000000000000000900460ff1615612aec57604080517f08c379a000000000000000000000000000000000000000000000000000000000815260206004820152601060248201527f5061757361626c653a2070617573656400000000000000000000000000000000604482015290519081900360640190fd5b3360008181526003602052604090205460ff1615612b55576040517f08c379a00000000000000000000000000000000000000000000000000000000081526004018080602001828103825260258152602001806152416025913960400191505060405180910390fd5b73ffffffffffffffffffffffffffffffffffffffff8416600090815260036020526040902054849060ff1615612bd6576040517f08c379a00000000000000000000000000000000000000000000000000000000081526004018080602001828103825260258152602001806152416025913960400191505060405180910390fd5b610fa3338686613a1b565b60005473ffffffffffffffffffffffffffffffffffffffff163314612c6757604080517f08c379a000000000000000000000000000000000000000000000000000000000815260206004820181905260248201527f4f776e61626c653a2063616c6c6572206973206e6f7420746865206f776e6572604482015290519081900360640190fd5b73ffffffffffffffffffffffffffffffffffffffff8116612cd3576040517f08c379a000000000000000000000000000000000000000000000000000000000815260040180806020018281038252602f815260200180614fd8602f913960400191505060405180910390fd5b600880547fffffffffffffffffffffffff00000000000000000000000000000000000000001673ffffffffffffffffffffffffffffffffffffffff83811691909117918290556040519116907fdb66dfa9c6b8f5226fe9aac7e51897ae8ee94ac31dc70bb6c9900b2574b707e690600090a250565b73ffffffffffffffffffffffffffffffffffffffff166000908152600c602052604090205460ff1690565b60005473ffffffffffffffffffffffffffffffffffffffff163314612df957604080517f08c379a000000000000000000000000000000000000000000000000000000000815260206004820181905260248201527f4f776e61626c653a2063616c6c6572206973206e6f7420746865206f776e6572604482015290519081900360640190fd5b73ffffffffffffffffffffffffffffffffffffffff8116612e65576040517f08c379a000000000000000000000000000000000000000000000000000000000815260040180806020018281038252603281526020018061520f6032913960400191505060405180910390fd5b600280547fffffffffffffffffffffffff00000000000000000000000000000000000000001673ffffffffffffffffffffffffffffffffffffffff83811691909117918290556040519116907fc67398012c111ce95ecb7429b933096c977380ee6c421175a71a4a4c6c88c06e90600090a250565b600e5473ffffffffffffffffffffffffffffffffffffffff163314612f4a576040517f08c379a00000000000000000000000000000000000000000000000000000000081526004018080602001828103825260248152602001806150076024913960400191505060405180910390fd5b612f6b73ffffffffffffffffffffffffffffffffffffffff84168383613f79565b505050565b60025473ffffffffffffffffffffffffffffffffffffffff1681565b60015474010000000000000000000000000000000000000000900460ff161561301657604080517f08c379a000000000000000000000000000000000000000000000000000000000815260206004820152601060248201527f5061757361626c653a2070617573656400000000000000000000000000000000604482015290519081900360640190fd5b73ffffffffffffffffffffffffffffffffffffffff8716600090815260036020526040902054879060ff1615613097576040517f08c379a00000000000000000000000000000000000000000000000000000000081526004018080602001828103825260258152602001806152416025913960400191505060405180910390fd5b73ffffffffffffffffffffffffffffffffffffffff8716600090815260036020526040902054879060ff1615613118576040517f08c379a00000000000000000000000000000000000000000000000000000000081526004018080602001828103825260258152602001806152416025913960400191505060405180910390fd5b61312789898989898989614006565b505050505050505050565b60085474010000000000000000000000000000000000000000900460ff16801561315f575060125460ff16155b61316857600080fd5b61317460048383614cc8565b506131e982828080601f0160208091040260200160405190810160405280939291908181526020018383808284376000920191909152505060408051808201909152600181527f3200000000000000000000000000000000000000000000000000000000000000602082015291506141af9050565b600f555050601280547fffffffffffffffffffffffffffffffffffffffffffffffffffffffffffffff00166001179055565b7f158b0a9edf7a828aad02f63cd515c68ef2f50ba807396f6d12842833a159742981565b73ffffffffffffffffffffffffffffffffffffffff9182166000908152600a6020908152604080832093909416825291909152205490565b60015474010000000000000000000000000000000000000000900460ff161561330157604080517f08c379a000000000000000000000000000000000000000000000000000000000815260206004820152601060248201527f5061757361626c653a2070617573656400000000000000000000000000000000604482015290519081900360640190fd5b73ffffffffffffffffffffffffffffffffffffffff8916600090815260036020526040902054899060ff1615613382576040517f08c379a00000000000000000000000000000000000000000000000000000000081526004018080602001828103825260258152602001806152416025913960400191505060405180910390fd5b73ffffffffffffffffffffffffffffffffffffffff8916600090815260036020526040902054899060ff1615613403576040517f08c379a00000000000000000000000000000000000000000000000000000000081526004018080602001828103825260258152602001806152416025913960400191505060405180910390fd5b6134148b8b8b8b8b8b8b8b8b614221565b5050505050505050505050565b6007805460408051602060026001851615610100027fffffffffffffffffffffffffffffffffffffffffffffffffffffffffffffffff0190941693909304601f81018490048402820184019092528181529291830182828015610e195780601f10610dee57610100808354040283529160200191610e19565b73ffffffffffffffffffffffffffffffffffffffff919091166000908152601060209081526040808320938352929052205460ff1690565b60015474010000000000000000000000000000000000000000900460ff161561355c57604080517f08c379a000000000000000000000000000000000000000000000000000000000815260206004820152601060248201527f5061757361626c653a2070617573656400000000000000000000000000000000604482015290519081900360640190fd5b73ffffffffffffffffffffffffffffffffffffffff8916600090815260036020526040902054899060ff16156135dd576040517f08c379a00000000000000000000000000000000000000000000000000000000081526004018080602001828103825260258152602001806152416025913960400191505060405180910390fd5b73ffffffffffffffffffffffffffffffffffffffff8916600090815260036020526040902054899060ff161561365e576040517f08c379a00000000000000000000000000000000000000000000000000000000081526004018080602001828103825260258152602001806152416025913960400191505060405180910390fd5b6134148b8b8b8b8b8b8b8b8b614363565b60005473ffffffffffffffffffffffffffffffffffffffff1633146136f557604080517f08c379a000000000000000000000000000000000000000000000000000000000815260206004820181905260248201527f4f776e61626c653a2063616c6c6572206973206e6f7420746865206f776e6572604482015290519081900360640190fd5b73ffffffffffffffffffffffffffffffffffffffff8116613761576040517f08c379a0000000000000000000000000000000000000000000000000000000008152600401808060200182810382526026815260200180614e526026913960400191505060405180910390fd5b6000546040805173ffffffffffffffffffffffffffffffffffffffff9283168152918316602083015280517f8be0079c531659141344cd1fd0a4f28419497f9722a3daafe3b4186f6b6457e09281900390910190a16137bf81613c8f565b50565b60025473ffffffffffffffffffffffffffffffffffffffff163314613832576040517f08c379a000000000000000000000000000000000000000000000000000000000815260040180806020018281038252602c815260200180614f65602c913960400191505060405180910390fd5b73ffffffffffffffffffffffffffffffffffffffff811660008181526003602052604080822080547fffffffffffffffffffffffffffffffffffffffffffffffffffffffffffffff00166001179055517fffa4e6181777692565cf28528fc88fd1516ea86b56da075235fa575af6a4b8559190a250565b73ffffffffffffffffffffffffffffffffffffffff1660009081526003602052604090205460ff1690565b73ffffffffffffffffffffffffffffffffffffffff8316613940576040517f08c379a00000000000000000000000000000000000000000000000000000000081526004018080602001828103825260248152602001806150f56024913960400191505060405180910390fd5b73ffffffffffffffffffffffffffffffffffffffff82166139ac576040517f08c379a0000000000000000000000000000000000000000000000000000000008152600401808060200182810382526022815260200180614e786022913960400191505060405180910390fd5b73ffffffffffffffffffffffffffffffffffffffff8084166000818152600a6020908152604080832094871680845294825291829020859055815185815291517f8c5be1e5ebec7d5bd14f71427d1e84f3dd0314c0f7b2291e5b200ac8c7c3b9259281900390910190a3505050565b73ffffffffffffffffffffffffffffffffffffffff8316613a87576040517f08c379a00000000000000000000000000000000000000000000000000000000081526004018080602001828103825260258152602001806150d06025913960400191505060405180910390fd5b73ffffffffffffffffffffffffffffffffffffffff8216613af3576040517f08c379a0000000000000000000000000000000000000000000000000000000008152600401808060200182810382526023815260200180614d6a6023913960400191505060405180910390fd5b73ffffffffffffffffffffffffffffffffffffffff8316600090815260096020526040902054811115613b71576040517f08c379a0000000000000000000000000000000000000000000000000000000008152600401808060200182810382526026815260200180614f166026913960400191505060405180910390fd5b73ffffffffffffffffffffffffffffffffffffffff8316600090815260096020526040902054613ba19082613c46565b73ffffffffffffffffffffffffffffffffffffffff8085166000908152600960205260408082209390935590841681522054613bdd9082613d20565b73ffffffffffffffffffffffffffffffffffffffff80841660008181526009602090815260409182902094909455805185815290519193928716927fddf252ad1be2c89b69c2b068fc378daa952ba7f163c4a11628f55a4df523b3ef92918290030190a3505050565b6000613c8883836040518060400160405280601e81526020017f536166654d6174683a207375627472616374696f6e206f766572666c6f770000815250614470565b9392505050565b600080547fffffffffffffffffffffffff00000000000000000000000000000000000000001673ffffffffffffffffffffffffffffffffffffffff92909216919091179055565b73ffffffffffffffffffffffffffffffffffffffff8084166000908152600a6020908152604080832093861683529290522054612f6b9084908490613d1b9085613d20565b6138d4565b600082820183811015613c8857604080517f08c379a000000000000000000000000000000000000000000000000000000000815260206004820152601b60248201527f536166654d6174683a206164646974696f6e206f766572666c6f770000000000604482015290519081900360640190fd5b613d9e8585614521565b604080517f158b0a9edf7a828aad02f63cd515c68ef2f50ba807396f6d12842833a1597429602082015273ffffffffffffffffffffffffffffffffffffffff87168183018190526060828101889052835180840390910181526080909201909252600f54909190613e1290868686866145af565b73ffffffffffffffffffffffffffffffffffffffff1614613e9457604080517f08c379a000000000000000000000000000000000000000000000000000000000815260206004820152601e60248201527f46696174546f6b656e56323a20696e76616c6964207369676e61747572650000604482015290519081900360640190fd5b73ffffffffffffffffffffffffffffffffffffffff8616600081815260106020908152604080832089845290915280822080547fffffffffffffffffffffffffffffffffffffffffffffffffffffffffffffff00166001179055518792917f1cdd46ff242716cdaa72d159d339a485b3438398348d68f09d7c8c0a59353d8191a3505050505050565b612f6b8383613d1b8460405180606001604052806025815260200161528b6025913973ffffffffffffffffffffffffffffffffffffffff808a166000908152600a60209081526040808320938c16835292905220549190614470565b6040805173ffffffffffffffffffffffffffffffffffffffff8416602482015260448082018490528251808303909101815260649091019091526020810180517bffffffffffffffffffffffffffffffffffffffffffffffffffffffff167fa9059cbb00000000000000000000000000000000000000000000000000000000179052612f6b908490614621565b4284101561407557604080517f08c379a000000000000000000000000000000000000000000000000000000000815260206004820152601e60248201527f46696174546f6b656e56323a207065726d697420697320657870697265640000604482015290519081900360640190fd5b73ffffffffffffffffffffffffffffffffffffffff80881660008181526011602090815260409182902080546001810190915582517f6e71edae12b1b97f4d1f60370fef10105fa2faae0126114a169c64845d6126c992810192909252818301849052938a1660608201526080810189905260a081019390935260c08084018890528151808503909101815260e09093019052600f5461411890868686866145af565b73ffffffffffffffffffffffffffffffffffffffff161461419a57604080517f08c379a000000000000000000000000000000000000000000000000000000000815260206004820152601a60248201527f454950323631323a20696e76616c6964207369676e6174757265000000000000604482015290519081900360640190fd5b6141a58888886138d4565b5050505050505050565b8151602092830120815191830191909120604080517f8b73c3c69bb8fe3d512ecc4cf759cc79239f7b179b0ffacaa9a75d522b39400f818601528082019390935260608301919091524660808301523060a0808401919091528151808403909101815260c09092019052805191012090565b61422d898588886146f9565b604080517f7c7c6cdb67a18743f49ec6fa9b35f50d52ed05cbed4cc592e13b44501c1a2267602082015273ffffffffffffffffffffffffffffffffffffffff808c16828401819052908b166060830152608082018a905260a0820189905260c0820188905260e080830188905283518084039091018152610100909201909252600f549091906142c090868686866145af565b73ffffffffffffffffffffffffffffffffffffffff161461434257604080517f08c379a000000000000000000000000000000000000000000000000000000000815260206004820152601e60248201527f46696174546f6b656e56323a20696e76616c6964207369676e61747572650000604482015290519081900360640190fd5b61434c8a866147b9565b6143578a8a8a613a1b565b50505050505050505050565b73ffffffffffffffffffffffffffffffffffffffff881633146143d1576040517f08c379a00000000000000000000000000000000000000000000000000000000081526004018080602001828103825260258152602001806150816025913960400191505060405180910390fd5b6143dd898588886146f9565b604080517fd099cc98ef71107a616c4f0f941f04c322d8e254fe26b3c6668db87aae413de8602082015273ffffffffffffffffffffffffffffffffffffffff808c16828401819052908b166060830152608082018a905260a0820189905260c0820188905260e080830188905283518084039091018152610100909201909252600f549091906142c090868686866145af565b60008184841115614519576040517f08c379a00000000000000000000000000000000000000000000000000000000081526004018080602001828103825283818151815260200191508051906020019080838360005b838110156144de5781810151838201526020016144c6565b50505050905090810190601f16801561450b5780820380516001836020036101000a031916815260200191505b509250505060405180910390fd5b505050900390565b73ffffffffffffffffffffffffffffffffffffffff8216600090815260106020908152604080832084845290915290205460ff16156145ab576040517f08c379a000000000000000000000000000000000000000000000000000000000815260040180806020018281038252602e8152602001806151e1602e913960400191505060405180910390fd5b5050565b8051602080830191909120604080517f1901000000000000000000000000000000000000000000000000000000000000818501526022810189905260428082019390935281518082039093018352606201905280519101206000906146168187878761483e565b979650505050505050565b6060614683826040518060400160405280602081526020017f5361666545524332303a206c6f772d6c6576656c2063616c6c206661696c65648152508573ffffffffffffffffffffffffffffffffffffffff16614a3b9092919063ffffffff16565b805190915015612f6b578080602001905160208110156146a257600080fd5b5051612f6b576040517f08c379a000000000000000000000000000000000000000000000000000000000815260040180806020018281038252602a81526020018061518f602a913960400191505060405180910390fd5b814211614751576040517f08c379a000000000000000000000000000000000000000000000000000000000815260040180806020018281038252602b815260200180614db5602b913960400191505060405180910390fd5b8042106147a9576040517f08c379a00000000000000000000000000000000000000000000000000000000081526004018080602001828103825260258152602001806152666025913960400191505060405180910390fd5b6147b38484614521565b50505050565b73ffffffffffffffffffffffffffffffffffffffff8216600081815260106020908152604080832085845290915280822080547fffffffffffffffffffffffffffffffffffffffffffffffffffffffffffffff00166001179055518392917f98de503528ee59b575ef0c0a2576a82497bfc029a5685b209e9ec333479b10a591a35050565b60007f7fffffffffffffffffffffffffffffff5d576e7357a4501ddfe92f46681b20a08211156148b9576040517f08c379a00000000000000000000000000000000000000000000000000000000081526004018080602001828103825260268152602001806151696026913960400191505060405180910390fd5b8360ff16601b141580156148d157508360ff16601c14155b15614927576040517f08c379a0000000000000000000000000000000000000000000000000000000008152600401808060200182810382526026815260200180614e2c6026913960400191505060405180910390fd5b600060018686868660405160008152602001604052604051808581526020018460ff1681526020018381526020018281526020019450505050506020604051602081039080840390855afa158015614983573d6000803e3d6000fd5b50506040517fffffffffffffffffffffffffffffffffffffffffffffffffffffffffffffffe0015191505073ffffffffffffffffffffffffffffffffffffffff8116614a3057604080517f08c379a000000000000000000000000000000000000000000000000000000000815260206004820152601c60248201527f45435265636f7665723a20696e76616c6964207369676e617475726500000000604482015290519081900360640190fd5b90505b949350505050565b6060614a3384846000856060614a5085614c11565b614abb57604080517f08c379a000000000000000000000000000000000000000000000000000000000815260206004820152601d60248201527f416464726573733a2063616c6c20746f206e6f6e2d636f6e7472616374000000604482015290519081900360640190fd5b600060608673ffffffffffffffffffffffffffffffffffffffff1685876040518082805190602001908083835b60208310614b2557805182527fffffffffffffffffffffffffffffffffffffffffffffffffffffffffffffffe09092019160209182019101614ae8565b6001836020036101000a03801982511681845116808217855250505050505090500191505060006040518083038185875af1925050503d8060008114614b87576040519150601f19603f3d011682016040523d82523d6000602084013e614b8c565b606091505b50915091508115614ba0579150614a339050565b805115614bb05780518082602001fd5b6040517f08c379a00000000000000000000000000000000000000000000000000000000081526020600482018181528651602484015286518793919283926044019190850190808383600083156144de5781810151838201526020016144c6565b6000813f7fc5d2460186f7233c927e7db2dcc703c0e500b653ca82273b7bfad8045d85a470818114801590614a33575050151592915050565b828054600181600116156101000203166002900490600052602060002090601f016020900481019282601f10614c8b57805160ff1916838001178555614cb8565b82800160010185558215614cb8579182015b82811115614cb8578251825591602001919060010190614c9d565b50614cc4929150614d54565b5090565b828054600181600116156101000203166002900490600052602060002090601f016020900481019282601f10614d27578280017fffffffffffffffffffffffffffffffffffffffffffffffffffffffffffffff00823516178555614cb8565b82800160010185558215614cb8579182015b82811115614cb8578235825591602001919060010190614d39565b5b80821115614cc45760008155600101614d5556fe45524332303a207472616e7366657220746f20746865207a65726f20616464726573735061757361626c653a206e65772070617573657220697320746865207a65726f206164647265737346696174546f6b656e56323a20617574686f72697a6174696f6e206973206e6f74207965742076616c696446696174546f6b656e3a206275726e20616d6f756e74206e6f742067726561746572207468616e203046696174546f6b656e3a206d696e7420746f20746865207a65726f206164647265737345435265636f7665723a20696e76616c6964207369676e6174757265202776272076616c75654f776e61626c653a206e6577206f776e657220697320746865207a65726f206164647265737345524332303a20617070726f766520746f20746865207a65726f206164647265737346696174546f6b656e3a206e65772070617573657220697320746865207a65726f2061646472657373526573637561626c653a206e6577207265736375657220697320746865207a65726f206164647265737346696174546f6b656e3a206d696e7420616d6f756e74206e6f742067726561746572207468616e203045524332303a207472616e7366657220616d6f756e7420657863656564732062616c616e636546696174546f6b656e3a2063616c6c6572206973206e6f7420746865206d61737465724d696e746572426c61636b6c69737461626c653a2063616c6c6572206973206e6f742074686520626c61636b6c697374657246696174546f6b656e3a206275726e20616d6f756e7420657863656564732062616c616e636546696174546f6b656e3a2063616c6c6572206973206e6f742061206d696e74657246696174546f6b656e3a206e6577206d61737465724d696e74657220697320746865207a65726f2061646472657373526573637561626c653a2063616c6c6572206973206e6f7420746865207265736375657245524332303a207472616e7366657220616d6f756e74206578636565647320616c6c6f77616e636546696174546f6b656e3a206e657720626c61636b6c697374657220697320746865207a65726f206164647265737346696174546f6b656e56323a2063616c6c6572206d7573742062652074686520706179656546696174546f6b656e3a20636f6e747261637420697320616c726561647920696e697469616c697a656445524332303a207472616e736665722066726f6d20746865207a65726f206164647265737345524332303a20617070726f76652066726f6d20746865207a65726f206164647265737346696174546f6b656e3a206d696e7420616d6f756e742065786365656473206d696e746572416c6c6f77616e63655061757361626c653a2063616c6c6572206973206e6f74207468652070617573657245435265636f7665723a20696e76616c6964207369676e6174757265202773272076616c75655361666545524332303a204552433230206f7065726174696f6e20646964206e6f74207375636365656446696174546f6b656e3a206e6577206f776e657220697320746865207a65726f206164647265737346696174546f6b656e56323a20617574686f72697a6174696f6e2069732075736564206f722063616e63656c6564426c61636b6c69737461626c653a206e657720626c61636b6c697374657220697320746865207a65726f2061646472657373426c61636b6c69737461626c653a206163636f756e7420697320626c61636b6c697374656446696174546f6b656e56323a20617574686f72697a6174696f6e206973206578706972656445524332303a2064656372656173656420616c6c6f77616e63652062656c6f77207a65726fa26469706673582212208b4910fcd9c6a5d3ad659f07ce8adc5d7410f4d660295e85a3f5494e41f5338b64736f6c634300060c0033",
  "immutableReferences": {},
  "source": "/**\n * SPDX-License-Identifier: MIT\n *\n * Copyright (c) 2018-2020 CENTRE SECZ\n *\n * Permission is hereby granted, free of charge, to any person obtaining a copy\n * of this software and associated documentation files (the \"Software\"), to deal\n * in the Software without restriction, including without limitation the rights\n * to use, copy, modify, merge, publish, distribute, sublicense, and/or sell\n * copies of the Software, and to permit persons to whom the Software is\n * furnished to do so, subject to the following conditions:\n *\n * The above copyright notice and this permission notice shall be included in\n * copies or substantial portions of the Software.\n *\n * THE SOFTWARE IS PROVIDED \"AS IS\", WITHOUT WARRANTY OF ANY KIND, EXPRESS OR\n * IMPLIED, INCLUDING BUT NOT LIMITED TO THE WARRANTIES OF MERCHANTABILITY,\n * FITNESS FOR A PARTICULAR PURPOSE AND NONINFRINGEMENT. IN NO EVENT SHALL THE\n * AUTHORS OR COPYRIGHT HOLDERS BE LIABLE FOR ANY CLAIM, DAMAGES OR OTHER\n * LIABILITY, WHETHER IN AN ACTION OF CONTRACT, TORT OR OTHERWISE, ARISING FROM,\n * OUT OF OR IN CONNECTION WITH THE SOFTWARE OR THE USE OR OTHER DEALINGS IN THE\n * SOFTWARE.\n */\n\npragma solidity 0.6.12;\n\nimport { FiatTokenV1_1 } from \"../v1.1/FiatTokenV1_1.sol\";\nimport { AbstractFiatTokenV2 } from \"./AbstractFiatTokenV2.sol\";\nimport { EIP712 } from \"../util/EIP712.sol\";\nimport { EIP712Domain } from \"./EIP712Domain.sol\";\nimport { EIP3009 } from \"./EIP3009.sol\";\nimport { EIP2612 } from \"./EIP2612.sol\";\n\n/**\n * @title FiatToken V2\n * @notice ERC20 Token backed by fiat reserves, version 2\n */\ncontract FiatTokenV2 is FiatTokenV1_1, EIP3009, EIP2612 {\n    uint8 internal _initializedVersion;\n\n    /**\n     * @notice Initialize v2\n     * @param newName   New token name\n     */\n    function initializeV2(string calldata newName) external {\n        // solhint-disable-next-line reason-string\n        require(initialized && _initializedVersion == 0);\n        name = newName;\n        DOMAIN_SEPARATOR = EIP712.makeDomainSeparator(newName, \"2\");\n        _initializedVersion = 1;\n    }\n\n    /**\n     * @notice Increase the allowance by a given increment\n     * @param spender   Spender's address\n     * @param increment Amount of increase in allowance\n     * @return True if successful\n     */\n    function increaseAllowance(address spender, uint256 increment)\n        external\n        whenNotPaused\n        notBlacklisted(msg.sender)\n        notBlacklisted(spender)\n        returns (bool)\n    {\n        _increaseAllowance(msg.sender, spender, increment);\n        return true;\n    }\n\n    /**\n     * @notice Decrease the allowance by a given decrement\n     * @param spender   Spender's address\n     * @param decrement Amount of decrease in allowance\n     * @return True if successful\n     */\n    function decreaseAllowance(address spender, uint256 decrement)\n        external\n        whenNotPaused\n        notBlacklisted(msg.sender)\n        notBlacklisted(spender)\n        returns (bool)\n    {\n        _decreaseAllowance(msg.sender, spender, decrement);\n        return true;\n    }\n\n    /**\n     * @notice Execute a transfer with a signed authorization\n     * @param from          Payer's address (Authorizer)\n     * @param to            Payee's address\n     * @param value         Amount to be transferred\n     * @param validAfter    The time after which this is valid (unix time)\n     * @param validBefore   The time before which this is valid (unix time)\n     * @param nonce         Unique nonce\n     * @param v             v of the signature\n     * @param r             r of the signature\n     * @param s             s of the signature\n     */\n    function transferWithAuthorization(\n        address from,\n        address to,\n        uint256 value,\n        uint256 validAfter,\n        uint256 validBefore,\n        bytes32 nonce,\n        uint8 v,\n        bytes32 r,\n        bytes32 s\n    ) external whenNotPaused notBlacklisted(from) notBlacklisted(to) {\n        _transferWithAuthorization(\n            from,\n            to,\n            value,\n            validAfter,\n            validBefore,\n            nonce,\n            v,\n            r,\n            s\n        );\n    }\n\n    /**\n     * @notice Receive a transfer with a signed authorization from the payer\n     * @dev This has an additional check to ensure that the payee's address\n     * matches the caller of this function to prevent front-running attacks.\n     * @param from          Payer's address (Authorizer)\n     * @param to            Payee's address\n     * @param value         Amount to be transferred\n     * @param validAfter    The time after which this is valid (unix time)\n     * @param validBefore   The time before which this is valid (unix time)\n     * @param nonce         Unique nonce\n     * @param v             v of the signature\n     * @param r             r of the signature\n     * @param s             s of the signature\n     */\n    function receiveWithAuthorization(\n        address from,\n        address to,\n        uint256 value,\n        uint256 validAfter,\n        uint256 validBefore,\n        bytes32 nonce,\n        uint8 v,\n        bytes32 r,\n        bytes32 s\n    ) external whenNotPaused notBlacklisted(from) notBlacklisted(to) {\n        _receiveWithAuthorization(\n            from,\n            to,\n            value,\n            validAfter,\n            validBefore,\n            nonce,\n            v,\n            r,\n            s\n        );\n    }\n\n    /**\n     * @notice Attempt to cancel an authorization\n     * @dev Works only if the authorization is not yet used.\n     * @param authorizer    Authorizer's address\n     * @param nonce         Nonce of the authorization\n     * @param v             v of the signature\n     * @param r             r of the signature\n     * @param s             s of the signature\n     */\n    function cancelAuthorization(\n        address authorizer,\n        bytes32 nonce,\n        uint8 v,\n        bytes32 r,\n        bytes32 s\n    ) external whenNotPaused {\n        _cancelAuthorization(authorizer, nonce, v, r, s);\n    }\n\n    /**\n     * @notice Update allowance with a signed permit\n     * @param owner       Token owner's address (Authorizer)\n     * @param spender     Spender's address\n     * @param value       Amount of allowance\n     * @param deadline    Expiration time, seconds since the epoch\n     * @param v           v of the signature\n     * @param r           r of the signature\n     * @param s           s of the signature\n     */\n    function permit(\n        address owner,\n        address spender,\n        uint256 value,\n        uint256 deadline,\n        uint8 v,\n        bytes32 r,\n        bytes32 s\n    ) external whenNotPaused notBlacklisted(owner) notBlacklisted(spender) {\n        _permit(owner, spender, value, deadline, v, r, s);\n    }\n\n    /**\n     * @notice Internal function to increase the allowance by a given increment\n     * @param owner     Token owner's address\n     * @param spender   Spender's address\n     * @param increment Amount of increase\n     */\n    function _increaseAllowance(\n        address owner,\n        address spender,\n        uint256 increment\n    ) internal override {\n        _approve(owner, spender, allowed[owner][spender].add(increment));\n    }\n\n    /**\n     * @notice Internal function to decrease the allowance by a given decrement\n     * @param owner     Token owner's address\n     * @param spender   Spender's address\n     * @param decrement Amount of decrease\n     */\n    function _decreaseAllowance(\n        address owner,\n        address spender,\n        uint256 decrement\n    ) internal override {\n        _approve(\n            owner,\n            spender,\n            allowed[owner][spender].sub(\n                decrement,\n                \"ERC20: decreased allowance below zero\"\n            )\n        );\n    }\n}\n",
  "sourcePath": "/Users/Hariprasath.V/Documents/Projects/centre-tokens/contracts/v2/FiatTokenV2.sol",
  "compiler": {
    "name": "solc",
    "version": "0.6.12+commit.27d51765.Emscripten.clang"
  },
  "schemaVersion": "3.4.3",
  "updatedAt": "2022-01-05T08:04:24.267Z",
  "networkType": "ethereum",
  "devdoc": {
    "kind": "dev",
    "methods": {
      "allowance(address,address)": {
        "params": {
          "owner": "Token owner's address",
          "spender": "Spender's address"
        },
        "returns": {
          "_0": "Allowance amount"
        }
      },
      "approve(address,uint256)": {
        "params": {
          "spender": "Spender's address",
          "value": "Allowance amount"
        },
        "returns": {
          "_0": "True if successful"
        }
      },
      "authorizationState(address,bytes32)": {
        "details": "Nonces are randomly generated 32-byte data unique to the authorizer's address",
        "params": {
          "authorizer": "Authorizer's address",
          "nonce": "Nonce of the authorization"
        },
        "returns": {
          "_0": "True if the nonce is used"
        }
      },
      "balanceOf(address)": {
        "details": "Get token balance of an account",
        "params": {
          "account": "address The account"
        }
      },
      "blacklist(address)": {
        "details": "Adds account to blacklist",
        "params": {
          "_account": "The address to blacklist"
        }
      },
      "burn(uint256)": {
        "details": "allows a minter to burn some of its own tokens Validates that caller is a minter and that sender is not blacklisted amount is less than or equal to the minter's account balance",
        "params": {
          "_amount": "uint256 the amount of tokens to be burned"
        }
      },
      "cancelAuthorization(address,bytes32,uint8,bytes32,bytes32)": {
        "details": "Works only if the authorization is not yet used.",
        "params": {
          "authorizer": "Authorizer's address",
          "nonce": "Nonce of the authorization",
          "r": "r of the signature",
          "s": "s of the signature",
          "v": "v of the signature"
        }
      },
      "configureMinter(address,uint256)": {
        "details": "Function to add/update a new minter",
        "params": {
          "minter": "The address of the minter",
          "minterAllowedAmount": "The minting amount allowed for the minter"
        },
        "returns": {
          "_0": "True if the operation was successful."
        }
      },
      "decreaseAllowance(address,uint256)": {
        "params": {
          "decrement": "Amount of decrease in allowance",
          "spender": "Spender's address"
        },
        "returns": {
          "_0": "True if successful"
        }
      },
      "increaseAllowance(address,uint256)": {
        "params": {
          "increment": "Amount of increase in allowance",
          "spender": "Spender's address"
        },
        "returns": {
          "_0": "True if successful"
        }
      },
      "initializeV2(string)": {
        "params": {
          "newName": "New token name"
        }
      },
      "isBlacklisted(address)": {
        "details": "Checks if account is blacklisted",
        "params": {
          "_account": "The address to check"
        }
      },
      "isMinter(address)": {
        "details": "Checks if account is a minter",
        "params": {
          "account": "The address to check"
        }
      },
      "mint(address,uint256)": {
        "details": "Function to mint tokens",
        "params": {
          "_amount": "The amount of tokens to mint. Must be less than or equal to the minterAllowance of the caller.",
          "_to": "The address that will receive the minted tokens."
        },
        "returns": {
          "_0": "A boolean that indicates if the operation was successful."
        }
      },
      "minterAllowance(address)": {
        "details": "Get minter allowance for an account",
        "params": {
          "minter": "The address of the minter"
        }
      },
      "nonces(address)": {
        "params": {
          "owner": "Token owner's address (Authorizer)"
        },
        "returns": {
          "_0": "Next nonce"
        }
      },
      "owner()": {
        "details": "Tells the address of the owner",
        "returns": {
          "_0": "the address of the owner"
        }
      },
      "pause()": {
        "details": "called by the owner to pause, triggers stopped state"
      },
      "permit(address,address,uint256,uint256,uint8,bytes32,bytes32)": {
        "params": {
          "deadline": "Expiration time, seconds since the epoch",
          "owner": "Token owner's address (Authorizer)",
          "r": "r of the signature",
          "s": "s of the signature",
          "spender": "Spender's address",
          "v": "v of the signature",
          "value": "Amount of allowance"
        }
      },
      "receiveWithAuthorization(address,address,uint256,uint256,uint256,bytes32,uint8,bytes32,bytes32)": {
        "details": "This has an additional check to ensure that the payee's address matches the caller of this function to prevent front-running attacks.",
        "params": {
          "from": "Payer's address (Authorizer)",
          "nonce": "Unique nonce",
          "r": "r of the signature",
          "s": "s of the signature",
          "to": "Payee's address",
          "v": "v of the signature",
          "validAfter": "The time after which this is valid (unix time)",
          "validBefore": "The time before which this is valid (unix time)",
          "value": "Amount to be transferred"
        }
      },
      "removeMinter(address)": {
        "details": "Function to remove a minter",
        "params": {
          "minter": "The address of the minter to remove"
        },
        "returns": {
          "_0": "True if the operation was successful."
        }
      },
      "rescueERC20(address,address,uint256)": {
        "params": {
          "amount": "Amount to withdraw",
          "to": "Recipient address",
          "tokenContract": "ERC20 token contract address"
        }
      },
      "rescuer()": {
        "returns": {
          "_0": "Rescuer's address"
        }
      },
      "totalSupply()": {
        "details": "Get totalSupply of token"
      },
      "transfer(address,uint256)": {
        "params": {
          "to": "Payee's address",
          "value": "Transfer amount"
        },
        "returns": {
          "_0": "True if successful"
        }
      },
      "transferFrom(address,address,uint256)": {
        "params": {
          "from": "Payer's address",
          "to": "Payee's address",
          "value": "Transfer amount"
        },
        "returns": {
          "_0": "True if successful"
        }
      },
      "transferOwnership(address)": {
        "details": "Allows the current owner to transfer control of the contract to a newOwner.",
        "params": {
          "newOwner": "The address to transfer ownership to."
        }
      },
      "transferWithAuthorization(address,address,uint256,uint256,uint256,bytes32,uint8,bytes32,bytes32)": {
        "params": {
          "from": "Payer's address (Authorizer)",
          "nonce": "Unique nonce",
          "r": "r of the signature",
          "s": "s of the signature",
          "to": "Payee's address",
          "v": "v of the signature",
          "validAfter": "The time after which this is valid (unix time)",
          "validBefore": "The time before which this is valid (unix time)",
          "value": "Amount to be transferred"
        }
      },
      "unBlacklist(address)": {
        "details": "Removes account from blacklist",
        "params": {
          "_account": "The address to remove from the blacklist"
        }
      },
      "unpause()": {
        "details": "called by the owner to unpause, returns to normal state"
      },
      "updatePauser(address)": {
        "details": "update the pauser role"
      },
      "updateRescuer(address)": {
        "params": {
          "newRescuer": "New rescuer's address"
        }
      }
    },
    "title": "FiatToken V2",
    "version": 1
  },
  "userdoc": {
    "kind": "user",
    "methods": {
      "allowance(address,address)": {
        "notice": "Amount of remaining tokens spender is allowed to transfer on behalf of the token owner"
      },
      "approve(address,uint256)": {
        "notice": "Set spender's allowance over the caller's tokens to be a given value."
      },
      "authorizationState(address,bytes32)": {
        "notice": "Returns the state of an authorization"
      },
      "cancelAuthorization(address,bytes32,uint8,bytes32,bytes32)": {
        "notice": "Attempt to cancel an authorization"
      },
      "decreaseAllowance(address,uint256)": {
        "notice": "Decrease the allowance by a given decrement"
      },
      "increaseAllowance(address,uint256)": {
        "notice": "Increase the allowance by a given increment"
      },
      "initializeV2(string)": {
        "notice": "Initialize v2"
      },
      "nonces(address)": {
        "notice": "Nonces for permit"
      },
      "permit(address,address,uint256,uint256,uint8,bytes32,bytes32)": {
        "notice": "Update allowance with a signed permit"
      },
      "receiveWithAuthorization(address,address,uint256,uint256,uint256,bytes32,uint8,bytes32,bytes32)": {
        "notice": "Receive a transfer with a signed authorization from the payer"
      },
      "rescueERC20(address,address,uint256)": {
        "notice": "Rescue ERC20 tokens locked up in this contract."
      },
      "rescuer()": {
        "notice": "Returns current rescuer"
      },
      "transfer(address,uint256)": {
        "notice": "Transfer tokens from the caller"
      },
      "transferFrom(address,address,uint256)": {
        "notice": "Transfer tokens by spending allowance"
      },
      "transferWithAuthorization(address,address,uint256,uint256,uint256,bytes32,uint8,bytes32,bytes32)": {
        "notice": "Execute a transfer with a signed authorization"
      },
      "updateRescuer(address)": {
        "notice": "Assign the rescuer role to a given address."
      }
    },
    "notice": "ERC20 Token backed by fiat reserves, version 2",
    "version": 1
  }
}