{
  "contractName": "Ownable",
  "abi": [
    {
      "inputs": [],
      "stateMutability": "nonpayable",
      "type": "constructor"
    },
    {
      "inputs": [],
      "name": "owner",
      "outputs": [
        {
          "internalType": "address",
          "name": "",
          "type": "address"
        }
      ],
      "stateMutability": "view",
      "type": "function"
    },
    {
      "inputs": [
        {
          "internalType": "address",
          "name": "newOwner",
          "type": "address"
        }
      ],
      "name": "transferOwnerShip",
      "outputs": [],
      "stateMutability": "nonpayable",
      "type": "function"
    }
  ],
  "bytecode": "0x608060405234801561001057600080fd5b5061002333640100000000610028810204565b61004a565b60008054600160a060020a031916600160a060020a0392909216919091179055565b610246806100596000396000f3fe608060405234801561001057600080fd5b5060043610610052577c010000000000000000000000000000000000000000000000000000000060003504638863dd1a81146100575780638da5cb5b1461006c575b600080fd5b61006a6100653660046101d3565b610098565b005b6000546040805173ffffffffffffffffffffffffffffffffffffffff9092168252519081900360200190f35b60005473ffffffffffffffffffffffffffffffffffffffff16331461011e576040517f08c379a000000000000000000000000000000000000000000000000000000000815260206004820152601360248201527f43616c6c6572206973206e6f74206f776e65720000000000000000000000000060448201526064015b60405180910390fd5b73ffffffffffffffffffffffffffffffffffffffff811661019b576040517f08c379a000000000000000000000000000000000000000000000000000000000815260206004820152601960248201527f4e6577206f776e6572206973207a65726f2061646472657373000000000000006044820152606401610115565b6000805473ffffffffffffffffffffffffffffffffffffffff191673ffffffffffffffffffffffffffffffffffffffff831617905550565b6000602082840312156101e557600080fd5b813573ffffffffffffffffffffffffffffffffffffffff8116811461020957600080fd5b939250505056fea26469706673582212201b8db8d806202d99f5294829ff527471212ce11f2f0742af38d6ad72642e6dc764736f6c63430008070033",
  "immutableReferences": {},
  "source": "// SPDX-License-Identifier: UNLICENSED\n\npragma solidity 0.8.7;\n\ncontract Ownable {\n  address private _owner;\n\n  constructor() {\n    setOwner(msg.sender);\n  }\n\n  function owner() public view returns (address) {\n    return _owner;\n  }\n\n  modifier onlyOwner() {\n    require(msg.sender == owner(), 'Caller is not owner');\n    _;\n  }\n\n  modifier onlyOwnerSigned(address _user) {\n    require(_user == owner(), 'Not signed by owner');\n    _;\n  }\n\n  function transferOwnerShip(address newOwner) external onlyOwner {\n    require(newOwner != address(0), 'New owner is zero address');\n    setOwner(newOwner);\n  }\n\n  function setOwner(address newOwner) internal {\n    _owner = newOwner;\n  }\n\n}\n",
  "sourcePath": "/Users/gg576gl/Desktop/projects/Climate-DAO/contracts/Ownable.sol",
  "compiler": {
    "name": "solc",
    "version": "0.8.7+commit.e28d00a7.Emscripten.clang"
  },
  "schemaVersion": "3.4.3",
  "updatedAt": "2021-10-21T17:30:23.337Z",
  "devdoc": {
    "kind": "dev",
    "methods": {},
    "version": 1
  },
  "userdoc": {
    "kind": "user",
    "methods": {},
    "version": 1
  }
}