{
  "contractName": "USDCStub",
  "abi": [
    {
      "inputs": [],
      "stateMutability": "nonpayable",
      "type": "constructor"
    },
    {
      "inputs": [],
      "name": "domain",
      "outputs": [
        {
          "internalType": "bytes32",
          "name": "",
          "type": "bytes32"
        }
      ],
      "stateMutability": "view",
      "type": "function"
    },
    {
      "inputs": [
        {
          "internalType": "address",
          "name": "account",
          "type": "address"
        }
      ],
      "name": "balanceOf",
      "outputs": [
        {
          "internalType": "uint256",
          "name": "",
          "type": "uint256"
        }
      ],
      "stateMutability": "view",
      "type": "function"
    },
    {
      "inputs": [
        {
          "internalType": "address",
          "name": "account",
          "type": "address"
        },
        {
          "internalType": "uint256",
          "name": "amount",
          "type": "uint256"
        }
      ],
      "name": "magicMint",
      "outputs": [
        {
          "internalType": "bool",
          "name": "",
          "type": "bool"
        }
      ],
      "stateMutability": "nonpayable",
      "type": "function"
    },
    {
      "inputs": [
        {
          "internalType": "address",
          "name": "recipient",
          "type": "address"
        },
        {
          "internalType": "uint256",
          "name": "amount",
          "type": "uint256"
        }
      ],
      "name": "transfer",
      "outputs": [
        {
          "internalType": "bool",
          "name": "",
          "type": "bool"
        }
      ],
      "stateMutability": "nonpayable",
      "type": "function"
    },
    {
      "inputs": [
        {
          "internalType": "address",
          "name": "from",
          "type": "address"
        },
        {
          "internalType": "address",
          "name": "to",
          "type": "address"
        },
        {
          "internalType": "uint256",
          "name": "value",
          "type": "uint256"
        },
        {
          "internalType": "uint256",
          "name": "validAfter",
          "type": "uint256"
        },
        {
          "internalType": "uint256",
          "name": "validBefore",
          "type": "uint256"
        },
        {
          "internalType": "bytes32",
          "name": "nonce",
          "type": "bytes32"
        },
        {
          "internalType": "uint8",
          "name": "v",
          "type": "uint8"
        },
        {
          "internalType": "bytes32",
          "name": "r",
          "type": "bytes32"
        },
        {
          "internalType": "bytes32",
          "name": "s",
          "type": "bytes32"
        }
      ],
      "name": "receiveWithAuthorization",
      "outputs": [],
      "stateMutability": "nonpayable",
      "type": "function"
    }
  ],
  "bytecode": "0x608060405234801561001057600080fd5b50604080518082018252600881527f55534420436f696e00000000000000000000000000000000000000000000000060209182015281518083018352600181527f32000000000000000000000000000000000000000000000000000000000000009082015281517f8b73c3c69bb8fe3d512ecc4cf759cc79239f7b179b0ffacaa9a75d522b39400f918101919091527f52878b207aaddbfc15ea7bebcda681eb8ccd306e2227b61cef68505c8c056341918101919091527fad7c5bef027816a800da1736444fb58a807ef4c9603b7848673f7e3a68eb14a56060820152600360808201523060a082015260c00160408051601f19818403018152919052805160209182012060015560009081905264174876e8007fe9fd55c01ccb69ddfc8c2cd4bf6186234a4d5f5886a6637d6e2ee2385e0976158190557f599ba157b1eb7b323c908a15e3241937d9b941d50136e8bce92e6c4ade450ef38190557f2ada4a37c7b910db00c73cbc70dd9418b168d61df5010bfe4b1c92c04d86570b8190557ff440a3efb736156ef5baa7649eae4ad8b47b04d98b9adff7a7e74e40c2f407538190557faa1efe4ab84cce5e463654b99e002cbb778084425cffa095d71ca45bf1cdd43081905573c4255a5909d423ebaaa260588ace6dbbc76e03c89091527fa8ff4cabddc8c91b35a07f6c42e1a2ba4c20d12b82909d117cc322dbf7fe41eb55610807806102216000396000f3fe608060405234801561001057600080fd5b5060043610610073577c010000000000000000000000000000000000000000000000000000000060003504630f177a6f811461007857806370a08231146100a0578063a9059cbb146100e4578063c2fb26a6146100f7578063ef55bec614610100575b600080fd5b61008b610086366004610749565b610115565b60405190151581526020015b60405180910390f35b6100d66100ae36600461069f565b73ffffffffffffffffffffffffffffffffffffffff1660009081526020819052604090205490565b604051908152602001610097565b61008b6100f2366004610749565b61015a565b6100d660015481565b61011361010e3660046106c1565b610170565b005b73ffffffffffffffffffffffffffffffffffffffff821660009081526020819052604081208054839190839061014c908490610773565b909155506001949350505050565b6000610167338484610402565b50600192915050565b73ffffffffffffffffffffffffffffffffffffffff8816331461021a576040517f08c379a000000000000000000000000000000000000000000000000000000000815260206004820152602560248201527f46696174546f6b656e56323a2063616c6c6572206d757374206265207468652060448201527f706179656500000000000000000000000000000000000000000000000000000060648201526084015b60405180910390fd5b604080517fd099cc98ef71107a616c4f0f941f04c322d8e254fe26b3c6668db87aae413de860208083019190915273ffffffffffffffffffffffffffffffffffffffff8c8116838501528b166060830152608082018a905260a0820189905260c0820188905260e08083018890528351808403909101815261010083019093526001548351918401919091207f19010000000000000000000000000000000000000000000000000000000000006101208401526101228301919091526101428201526000906101620160408051601f1981840301815282825280516020918201206000845290830180835281905260ff8816918301919091526060820186905260808201859052915073ffffffffffffffffffffffffffffffffffffffff8c169060019060a0016020604051602081039080840390855afa158015610363573d6000803e3d6000fd5b5050506020604051035173ffffffffffffffffffffffffffffffffffffffff16146103ea576040517f08c379a000000000000000000000000000000000000000000000000000000000815260206004820152601e60248201527f46696174546f6b656e56323a20696e76616c6964207369676e617475726500006044820152606401610211565b6103f58b8b8b610402565b5050505050505050505050565b73ffffffffffffffffffffffffffffffffffffffff83166104a5576040517f08c379a000000000000000000000000000000000000000000000000000000000815260206004820152602560248201527f45524332303a207472616e736665722066726f6d20746865207a65726f20616460448201527f64726573730000000000000000000000000000000000000000000000000000006064820152608401610211565b73ffffffffffffffffffffffffffffffffffffffff8216610548576040517f08c379a000000000000000000000000000000000000000000000000000000000815260206004820152602360248201527f45524332303a207472616e7366657220746f20746865207a65726f206164647260448201527f65737300000000000000000000000000000000000000000000000000000000006064820152608401610211565b73ffffffffffffffffffffffffffffffffffffffff83166000908152602081905260409020548111156105fd576040517f08c379a000000000000000000000000000000000000000000000000000000000815260206004820152602660248201527f45524332303a207472616e7366657220616d6f756e742065786365656473206260448201527f616c616e636500000000000000000000000000000000000000000000000000006064820152608401610211565b73ffffffffffffffffffffffffffffffffffffffff83166000908152602081905260408120805483929061063290849061078b565b909155505073ffffffffffffffffffffffffffffffffffffffff82166000908152602081905260408120805483929061066c908490610773565b9091555050505050565b803573ffffffffffffffffffffffffffffffffffffffff8116811461069a57600080fd5b919050565b6000602082840312156106b157600080fd5b6106ba82610676565b9392505050565b60008060008060008060008060006101208a8c0312156106e057600080fd5b6106e98a610676565b98506106f760208b01610676565b975060408a0135965060608a0135955060808a0135945060a08a0135935060c08a013560ff8116811461072957600080fd5b8093505060e08a013591506101008a013590509295985092959850929598565b6000806040838503121561075c57600080fd5b61076583610676565b946020939093013593505050565b60008219821115610786576107866107a2565b500190565b60008282101561079d5761079d6107a2565b500390565b7f4e487b7100000000000000000000000000000000000000000000000000000000600052601160045260246000fdfea26469706673582212205406166c6e2b85e564fed1e34b2c472d764e94eed0fd6386aa91b08d9464527364736f6c63430008070033",
  "immutableReferences": {},
  "source": "// SPDX-License-Identifier: MIT\n\npragma solidity 0.8.7;\ncontract USDCStub {\n\n    mapping(address => uint256) internal balances;\n    bytes32 public domain;\n\n    constructor() {\n      domain = keccak256(\n        abi.encode(\n            // keccak256(\"EIP712Domain(string name,string version,uint256 chainId,address verifyingContract)\")\n            0x8b73c3c69bb8fe3d512ecc4cf759cc79239f7b179b0ffacaa9a75d522b39400f,\n            keccak256(bytes('USD Coin')),\n            keccak256(bytes('2')),\n            3,\n            address(this)\n        )\n      );\n      balances[0xaE782688108DC82D3563fE4CA78c679aE9613Ec1] = 100000000000; // Alice\n      balances[0x4Edd80557F2cc893de5397d0508efe7EcBa7B98d] = 100000000000; // Bob\n      balances[0xE1b4eB313420cAc9da8C7D9c2197c758CEA1DDD0] = 100000000000; // Charlie\n\n      balances[0xaa315870d29e57aE428382B0608c193846F1E7D4] = 100000000000; // infosec\n      balances[0xC519264B3c1f9490Ed4AA6c410322D301F3c5fF7] = 100000000000; // infosec\n      balances[0xc4255a5909D423EbaAa260588acE6dBBc76e03C8] = 100000000000; // infosec\n\n    }\n\n    function balanceOf(address account) external view returns (uint256) {\n      return balances[account];\n    }\n\n    function magicMint(address account, uint256 amount) external returns (bool) {\n      balances[account] += amount;\n      return true;\n    }\n\n    function transfer(address recipient, uint256 amount) external returns (bool) {\n      _transfer(msg.sender, recipient, amount);\n      return true;\n    }\n\n    function receiveWithAuthorization(\n        address from,\n        address to,\n        uint256 value,\n        uint256 validAfter,\n        uint256 validBefore,\n        bytes32 nonce,\n        uint8 v,\n        bytes32 r,\n        bytes32 s\n    ) external {\n      require(to == msg.sender, \"FiatTokenV2: caller must be the payee\");\n      // _requireValidAuthorization(from, nonce, validAfter, validBefore);\n\n      bytes memory data = abi.encode(\n          0xd099cc98ef71107a616c4f0f941f04c322d8e254fe26b3c6668db87aae413de8,\n          from,\n          to,\n          value,\n          validAfter,\n          validBefore,\n          nonce\n      );\n\n      bytes32 digest = keccak256(\n          abi.encodePacked(\n              \"\\x19\\x01\",\n              domain,\n              keccak256(data)\n          )\n      );\n\n      require(\n          ecrecover(digest, v, r, s) == from,\n          \"FiatTokenV2: invalid signature\"\n      );\n      _transfer(from, to, value);\n    }\n\n    function _transfer(\n      address from,\n      address to,\n      uint256 value\n    ) internal  {\n      require(from != address(0), \"ERC20: transfer from the zero address\");\n      require(to != address(0), \"ERC20: transfer to the zero address\");\n      require(\n        value <= balances[from],\n        \"ERC20: transfer amount exceeds balance\"\n      );\n\n      balances[from] -= value;\n      balances[to] += value;\n      // emit Transfer(from, to, value);\n    }\n}\n",
  "sourcePath": "/Users/gg576gl/Desktop/projects/Climate-DAO/contracts/USDCStub.sol",
  "compiler": {
    "name": "solc",
    "version": "0.8.7+commit.e28d00a7.Emscripten.clang"
  },
  "schemaVersion": "3.4.3",
  "updatedAt": "2022-01-24T08:55:43.848Z",
  "devdoc": {
    "kind": "dev",
    "methods": {},
    "version": 1
  },
  "userdoc": {
    "kind": "user",
    "methods": {},
    "version": 1
  }
}